:1000000005C100000C9451320C947C320C94A73240
:100010000C94D2320C94FD320C9428330C9453334C
:100020000C947E3324C1000022C1000020C10000D6
:100030001EC100001CC100001AC1000018C1000050
:1000400016C1000014C1000012C1000010C1000060
:100050000EC100000CC100000AC100000C94A933BD
:1000600006C100000C94A5370C94DB3700C10000DA
:10007000FEC00000FCC00000FAC00000F8C0000094
:10008000F6C00000F4C00000F2C00000F0C00000A4
:100090000C9431380C946738EAC00000E8C00000C6
:1000A000E6C00000E4C00000E2C00000E0C00000C4
:1000B000DEC00000DCC00000DAC00000D8C00000D4
:1000C000D6C00000D4C000000C94D32D0C94BD38D1
:1000D0000C94F338CCC000000C9449390C947F394F
:1000E000C6C0000000000A0B02090C0D0E08070331
:1000F00004010000000000000000000000000000FB
:1001000000000000000000000000000000000000EF
:1001100012111000000000000000000000000000AC
:100120000000000000000000000001021020200874
:100130000810204010204080020102010804020142
:1001400001020408102040808040201008040201B1
:10015000800402018040201008040201080402010A
:100160000102040810204080010204081020408091
:1001700005050505070508080808020202020A0A23
:100180000808040404040101010101010101030341
:10019000030303030303040707070C0C0C0C0C0CEC
:1001A0000C0C0202020206060606060606060B0BE9
:1001B0000B0B0B0B0B0B000020002300260029006B
:1001C0002C002F003200000100000301060109018C
:1001D00000002200250028002B002E0031003400F2
:1001E00002010000050108010B01000021002400AC
:1001F00027002A002D003000330001010000040117
:1002000007010A01043890381C39A83911241FBE8F
:10021000CFEFD1E2DEBFCDBF00E00CBF13E0A0E026
:10022000B2E0E0EBF4E700E00BBF02C007900D92F4
:10023000AE32B107D9F729E0AEE2B3E001C01D92BA
:10024000A53FB207E1F711E0C6E0D1E000E006C04B
:1002500021970109802FFE010E94253AC230D10763
:1002600080E00807A9F70E94C52E0C94563AC8CE24
:10027000611102C00C94EA356130E1F362E0FACF1B
:10028000662319F061E00C94263660E0FCCF0E94F2
:10029000533621E0019709F020E0822F0895CF9294
:1002A000DF92EF92FF92CF93882351F16A017B0195
:1002B000CFEFC80F20E030E0A901CB01B6010E94CA
:1002C000CD2F87FF11C0C701B60190580E943E3064
:1002D0009B01AC016C2F70E090E080E0CF91FF902B
:1002E000EF90DF90CF90B2C0C701B6010E943930C5
:1002F0008C2FCF91FF90EF90DF90CF900C94B03483
:10030000CF91FF90EF90DF90CF9008950F931F93C0
:100310008B019C0183E036952795179507958A9563
:10032000D1F7025D1C4F462F477021E030E0F90104
:1003300002C0EE0FFF1F4A95E2F7AF01F8012081DE
:100340002423CB010196211102C090E080E01F918F
:100350000F9108950F931F938B019C0183E03695B5
:100360002795179507958A95D1F7677081E090E0FA
:1003700001C0880F6A95EAF7F801E25DFC4F208121
:10038000452B31F48095822380831F910F9108952E
:10039000822BFACF2F923F924F925F926F927F9271
:1003A0008F929F92AF92BF92CF92DF92EF92FF9285
:1003B0000F931F93CF93DF93D62EC72E782E692EDF
:1003C00049015A01280161E08D2D0E94EA35CD2DA9
:1003D000DC2D8E010F5F1F4FA8016D2D7C2D872D09
:1003E000962DB8DF20E030E0A901C201B7010E94DC
:1003F0006F31181664F4C201B7010E943E302B0120
:10040000C501B4010E943E30A201CE0123D0C80133
:10041000DF91CF911F910F91FF90EF90DF90CF90E0
:10042000BF90AF909F908F907F906F905F904F9014
:100430003F902F900895882341F08150682F70E0FD
:1004400090E080E050E040E085CF0895862FB9012C
:100450000C94B0349C01FC01EC51FF4FE491E1504D
:10046000E231E0F4F0E08827E75CFD4F8F4F0C9419
:10047000253A4B02520255026C0281024E0296024C
:10048000A202A602BD02D202E702FE0213034E023E
:1004900028033F03540384B5806884BD60E0822F45
:1004A0000C94263684B58062F8CF809180008C7FD2
:1004B00082608093800080918100807E8061682BC3
:1004C0006093810050938700409386008091800064
:1004D000806880938000E2CF809180008C7F826072
:1004E0008093800080918100807E8061682B609382
:1004F0008100509387004093860080918000806245
:10050000E8CF809180008C7F826080938000809112
:100510008100807E8061682B60938100509387000A
:1005200040938600809180008860D3CF8091B00096
:1005300080688093B0008091B100887F682B6093C1
:10054000B100ACCF8091B0008062F3CF8091900079
:100550008C7F82608093900080919100807E80618A
:10056000682B609391005093970040939600809180
:10057000900080688093900091CF809190008C7F54
:1005800082608093900080919100807E8061682BD2
:100590006093910050939700409396008091900053
:1005A0008062E8CF809190008C7F82608093900081
:1005B00080919100807E8061682B609391005093C0
:1005C000970040939600809190008860D3CF8091EF
:1005D000A0008C7F82608093A0008091A100807E2B
:1005E0008061682B6093A1005093A7004093A60000
:1005F0008091A00080688093A00050CF8091A000DF
:100600008C7F82608093A0008091A100807E8061B9
:10061000682B6093A1005093A7004093A60080919F
:10062000A0008062E8CF8091A0008C7F82608093E0
:10063000A0008091A100807E8061682B6093A10062
:100640005093A7004093A6008091A0008860D3CF6C
:10065000809120018C7F8260809320018091210114
:10066000807E8061682B6093210150932701409325
:100670002601809120018068809320010FCF809116
:1006800020018C7F82608093200180912101807EF7
:100690008061682B609321015093270140932601CC
:1006A000809120018062E8CF809120018C7F826060
:1006B0008093200180912101807E8061682B60936E
:1006C00021015093270140932601809120018860E9
:1006D000D3CF90E080E008950F931F93009709F423
:1006E00089C06115710509F485C000915C02109103
:1006F0005D0220915E0230915F020E3F1F4F2F4F2F
:100700003F4F09F068C04FEF5FEFBA0140935C02C2
:1007100050935D0260935E0270935F0240915C02B1
:1007200050915D0260915E0270915F02DC01129651
:10073000ED91FC9180819181A281B38180939B0492
:1007400090939C04A0939D04B0939E048481958112
:10075000A681B7818093970490939804A0939904FD
:10076000B0939A0480859185A285B3858093930484
:1007700090939404A0939504B093960484859585F2
:10078000A685B78580938F0490939004A0939104DD
:10079000B093920410928B0410928C0410928D04EA
:1007A00010928E040E94BE1183EE91E19093380363
:1007B0008093370390933A03809339030E94AD10DE
:1007C000009731F421E030E03093A00420939F049F
:1007D0001F910F91089500915C0210915D0220918C
:1007E0005E0230915F02DB010D931D932D933C93CC
:1007F000139794CF8FEF9FEFEBCF8F929F92AF9293
:10080000BF92CF92DF92EF92FF921F93CF93DF932D
:100810004B015C011091A20482E090E09093A0044F
:1008200080939F0481149104A104B10441F4809148
:10083000A204811104C08091A104C1E08111C0E033
:10084000C12CD12C76018091A204811106C0809127
:10085000A104811102C0CC23D9F083E090E09093F1
:10086000A00480939F04CC2381F1CCE9DFEF111128
:1008700002C00E944815CE01DF91CF911F91FF90D9
:10088000EF90DF90CF90BF90AF909F908F900895A2
:100890006AE070E080E090E00E94183480E1C80EC9
:1008A00087E2D81EE11CF11C8FEF88169806A80677
:1008B000B80631F0C1E08C149D04AE04BF0408F00A
:1008C000C0E080E00E94E110BECFD0E0C0E0CFCF1A
:1008D000CF92DF92EF92FF920F931F93CF93DF930C
:1008E0008F3F910511F008F051C020919F04309185
:1008F000A0042330310539F020919F043091A004E9
:100900002130310531F424E030E03093A00420930D
:100910009F046A017B01EC0182309105A8F011E08F
:10092000AE01C701B6010E94AC10AB01BC01CE0103
:100930001123F9F0DF91CF911F910F91FF90EF906C
:10094000DF90CF900C9471178C01000F111F095C80
:100950001C4FD8018D919C91892B09F30E947B1724
:100960000297E9F6D801ED91FC91CE011995182F67
:10097000D7CF0E94931790E080E0DF91CF911F9135
:100980000F91FF90EF90DF90CF9008958FEF9FEF42
:10099000F4CF80E00C94E110CF93DF9386E090E0F9
:1009A0009093A00480939F040E943A11EC01E7E326
:1009B000F3E084E0DF011D928A95E9F70E94E014DC
:1009C0001092A00410929F04CE01DF91CF91089560
:1009D0008091A104089580918A04089560935C0237
:1009E00070935D0280935E0290935F0290E080E0DE
:1009F0000895CF92DF92EF92FF928091CD098150BE
:100A00008230E0F080E08093CD098091CC09815064
:100A10008230B0F080E08093CC098091CB09815086
:100A2000823080F080E08093CB0980914704882356
:100A300059F0813069F08091480407C083E0E3CF2A
:100A400083E0E9CF83E0EFCF81E08093460402C0EA
:100A5000109246048091460490E0FC01EE0FFF1FC7
:100A6000EE0FFF1FE75BFB4F408151816281738175
:100A700040933E0450933F046093400470934104BC
:100A8000880F991F880F991FFC01EF5AFB4F808137
:100A90009181A281B3818093420490934304A093F7
:100AA0004404B09345048FEF809346048091BD09C0
:100AB0009091BE09A091BF09B091C00980936D09C2
:100AC00090936E09A0936F09B0937009C0900002D3
:100AD000D0900102E0900202F0900302A70196017B
:100AE0006091790970917A0980917B0990917C09D4
:100AF0000E94CD2F882341F0C0927909D0927A09C3
:100B0000E0927B09F0927C0983E0C1DB81112DC06A
:100B10002091040230910502409106025091070293
:100B20006091BD097091BE098091BF099091C00983
:100B30000E94562F6093BD097093BE098093BF0930
:100B40009093C00984E08093CD0984E08093CB0921
:100B50008091C809882339F1813049F19091C90900
:100B600081E0992309F180E01FC0209108023091B3
:100B7000090240910A0250910B026091BD097091E7
:100B8000BE098091BF099091C0090E94552F6093C2
:100B9000BD097093BE098093BF099093C00984E09A
:100BA0008093CC09D2CF81E08093C70902C0109214
:100BB000C7092091C70980916D0990916E09A09194
:100BC0006F09B09170092223A1F08093A909909335
:100BD000AA09A093AB09B093AC098091C70980938F
:100BE000C9098FEF8093C709FF90EF90DF90CF90F6
:100BF00008958093A5099093A609A093A709B0939F
:100C0000A809EBCF84509F4FFC018081918101970F
:100C1000A1F4F90180819181A281B381FB018083DC
:100C20009183A283B383F90184819581A681B781E1
:100C3000FA0180839183A283B3830895CF92DF92D8
:100C4000EF92FF926B017C019F7720E030E040E85B
:100C500059E50E94CD2F87FF2BC020E030E040E017
:100C60005FE3C701B6010E946F3187FD0EC020E02F
:100C700030E040E05FE3C701B6010E94562FFF90CD
:100C8000EF90DF90CF900C94A73020E030E040E070
:100C90005FEBC701B6010E946F31181684F420E0A3
:100CA00030E0A901C701B6010E9473316B017C01DC
:100CB000C701B601FF90EF90DF90CF90089520E03C
:100CC00030E040E05FE3C701B6010E94552FFF907E
:100CD000EF90DF90CF900C94BA2FE091ED03F0915C
:100CE000EE038091590990915A09A0915B09B09146
:100CF0005C0980839183A283B38308952F923F92EE
:100D00004F925F926F927F928F929F92AF92BF921B
:100D1000CF92DF92EF92FF920F931F93CF93DF93C7
:100D2000CDB7DEB76A970FB6F894DEBF0FBECDBF62
:100D3000A0905D04B0905E04009160041091610485
:100D400021E0A216B10409F078C080912A049091A4
:100D50002B04A0912C04B0912D04409032045090AB
:100D600033046090340470903504C0902E04D09009
:100D70002F04E0903004F09031048F3FEFEF9E0796
:100D8000AE07BE0799F5C701B6016F5F7F4F8F4F62
:100D90009F4F0E946A30A30192010E94733120E0AC
:100DA00030E040E85FE40E94733160937103709318
:100DB000720380937303909374038091D6098150DA
:100DC000823008F44FC080E08093D609F1E0AF167E
:100DD000B10409F0A9C08091C709882309F444C06F
:100DE000813009F445C08091C9093FC0BC01CD01E3
:100DF0006F5F7F4F8F4F9F4F0E946A30A301920118
:100E00000E94733169877A878B879C87C701B601F7
:100E10000E946A30A30192010E94733120E030E009
:100E200040E85FE40E9473319B01AC0169857A85DB
:100E30008B859C850E94562FB8CFA114B10409F070
:100E4000BCCFE091A103F091A2030190F081E02DCD
:100E500080819181A281B381F80180839183A283F3
:100E6000B383ABCF83E0B0CF81E08093C80902C0E9
:100E70001092C8098091C809882309F496C080910E
:100E8000A9099091AA09A091AB09B091AC098093EE
:100E9000510990935209A0935309B09354098FEFCD
:100EA0008093C8092091510930915209409153090A
:100EB00050915409609110027091110280911202B8
:100EC000909113020E9473316B017C01C09255090D
:100ED000D0925609E0925709F0925809C0924D09F4
:100EE000D0924E09E0924F09F092500920911402DD
:100EF000309115024091160250911702609118022C
:100F00007091190280911A0290911B020E94733114
:100F1000A70196010E94552F6093590970935A09B1
:100F200080935B0990935C09D8014D905D906D9022
:100F30007C908090AD099090AE091091AF0900911E
:100F4000B009F090B509E090B609D090B709C0900B
:100F5000B809A3019201B401812F902F0E946F3133
:100F60002F2D3E2D4D2D5C2D87FD28C0C301B201D4
:100F70000E94CD2F18160CF066C42F2D3E2D4D2D3E
:100F80005C2DB401812F902F0E94CD2F87FD1DC0B5
:100F90008091B9099091BA09A091BB09B091BC099F
:100FA00089879A87AB87BC8729C08091A5099091D2
:100FB000A609A091A709B091A80969CFB401812F12
:100FC000902F0E94CD2F87FF0AC02F2D3E2D4D2D33
:100FD0005C2DC301B2010E946F311816CCF28091D2
:100FE000B1099091B209A091B309B091B409898770
:100FF0009A87AB87BC87F82CE92C68012F2D3E2DF2
:101000004D2D5C2DC301B2010E94552F6B017C0157
:1010100029853A854B855C856091590970915A09FB
:1010200080915B0990915C090E94552FA701960160
:101030000E94D12F6B017C0191E0A916B104D1F47B
:101040002091590930915A0940915B0950915C09EE
:10105000609128027091290280912A0290912B02BE
:101060000E94733160935D0970935E0980935F09FC
:101070009093600920912002309121024091220238
:1010800050912302C701B6010E94733120915D097E
:1010900030915E0940915F09509160090E94562F7E
:1010A0006B017C012091D7093091D8094091D90971
:1010B0005091DA09609124027091250280912602F4
:1010C000909127020E9473319B01AC01C701B601C8
:1010D0000E94562F4B018C01C0902C02D0902D0203
:1010E000E0902E02F0902F029B01AC01C701B601E7
:1010F0000E94CD2F87FD12C0C0903002D0903102E7
:10110000E0903202F09033029401A801C701B601C9
:101110000E946F31181614F064017801AA94AB286C
:1011200089F48091590990915A09A0915B09B09175
:101130005C09BF778093610990936209A09363096A
:10114000B0936409E0916703F09168038081918115
:10115000019721F08091E2038823E9F020E030E05C
:10116000A901C701B6010E946F3118160CF06FC3B8
:1011700020E030E040E450E4609161097091620940
:1011800080916309909164090E946F3118160CF0E8
:101190005EC31092CA098091CA09813009F47DC3E7
:1011A000823009F4A4C3811123C024E532E0AE01EA
:1011B0004F5F5F4FBE016B5F7F4F81E693E022DDA3
:1011C000E0916703F091680380819181019721F09C
:1011D0008091E203882361F08091D609882309F485
:1011E00059C3833009F052C381E090E08093D6095F
:1011F00080915D0490915E04019709F040C06D817B
:101200007E818F8198851ADD4B015C0120E030E002
:1012100040E853E40E94CD2F6FEF87FF0EC020E01F
:1012200030E0A901C501B4010E946F3160E087FD83
:1012300004C0C501B4010E943E308EE121D869810D
:101240007A818B819C81FADC4B015C0120E030E0EB
:1012500040E853E40E94CD2F6FEF87FF0EC020E0DF
:1012600030E0A901C501B4010E946F3160E087FD43
:1012700004C0C501B4010E943E308FE101D865E091
:1012800070E080E090E042D88C019093A4098093B4
:10129000A309C701B6019F7720913402309135022E
:1012A00040913602509137020E9473316B017C01EC
:1012B00020E030E04FE753E40E94CD2F18160CF4E5
:1012C00040C320E030E0A901C701B6010E946F31A0
:1012D00087FD3EC3B701A601C8010E944F0180915E
:1012E0005D0490915E04019709F05AC06091380244
:1012F0007091390280913A0290913B0260936509A6
:1013000070936609809367099093680997DC6B0175
:101310007C0120E030E040E853E40E94CD2F6FEFE5
:1013200087FF0EC020E030E0A901C701B6010E948E
:101330006F3160E087FD04C0C701B6010E943E30F6
:1013400088E20E94400160913C0270913D028091D0
:101350003E0290913F026093690970936A098093FD
:101360006B0990936C096ADC6B017C0120E030E032
:1013700040E853E40E94CD2F6FEF87FF0EC020E0BE
:1013800030E0A901C701B6010E946F3160E087FD1E
:1013900004C0C701B6010E943E308BE00E944001AC
:1013A00080915D0490915E04019709F028C38091BB
:1013B000AD099091AE09A091AF09B091B0098987AC
:1013C0009A87AB87BC874090E3095090E40960900E
:1013D000E5097090E609E0916004F0916104C08035
:1013E000D180E280F380A3019201BC01CD010E9473
:1013F000CD2F8111B1C2C092AD09D092AE09E09259
:10140000AF09F092B009E1EBF9E0809159099091B0
:101410005A09A0915B09B0915C0980839183A283F2
:10142000B38360912E0470912F04809130049091C9
:1014300031040E946A3020E030E040E85FE40E941E
:1014400073316B017C0160912A0470912B048091AF
:101450002C0490912D040E946A309B01AC01C701BD
:10146000B6010E94562F20E030E0A9010E94562FBD
:101470000E943E30AB01BC0190E080E029DA80910F
:101480005D0490915E04019709F0B9C260913A043D
:1014900070913B0480913C0490913D040E946A301D
:1014A00020E030E040E85FE40E9473316B017C0192
:1014B000609136047091370480913804909139041A
:1014C0000E946A309B01AC01C701B6010E94562FF1
:1014D00020E030E0A9010E94562F0E943E30AB016F
:1014E000BC0181E090E0F4D9A0915D04B0915E046C
:1014F000BC8BAB8B119709F082C2E091A103F091F4
:10150000A2030190F081E02D4080518062807380C1
:101510008091710390917203A0917303B091740351
:101520008D8B9E8BAF8BB88FE0917503F091760316
:10153000C080D180E280F380E091A503F091A60302
:1015400000811181E0916903F0916A03208031806C
:10155000A281B381BA87A987848195819E878D876F
:10156000A681B781B88BAF87808591859A8B898B4F
:10157000E0916703F09168031182108284E0F80122
:10158000D10101900D928A95E1F7E0919F03F091CE
:10159000A003A985BA85B183A0839FDB20E030E05A
:1015A00040E05FE3C701B6010E9473314B015C016B
:1015B000E985FA8520813181428153810E9473310E
:1015C000D1012D913D914D915C910E94562FF801D2
:1015D0006083718382839383E091A103F091A203DE
:1015E000808191819A8F898FA5019401C301B201F5
:1015F0000E94562FA98DBA8D6D937D938D939C93E8
:101600001397E0919F03F091A0038D859E859183B0
:10161000808374DB62DBAD85BE852D913D914D915C
:101620005C91C501B4010E947331F10120813181C7
:10163000428153810E94562FD8016D937D938D93E3
:101640009C931397E0919F03F091A0038F85988955
:101650009183808353DB41DBAF85B8892D913D9128
:101660004D915C91C701B6010E947331F101208157
:101670003181428153810E94562FD8016D937D9311
:101680008D939C931397E091A103F091A203019095
:10169000F081E02D8D899E89AF89B88D80839183FB
:1016A000A283B383E0919F03F091A003A989BA8933
:1016B000B183A08323DB11DBED85FE856081718121
:1016C000828193819B01AC010E94562FA985BA8526
:1016D0002D913D914D915C910E94562F4B015C01E3
:1016E000EF85F88960817181828193819B01AC01D2
:1016F0000E94562F9B01AC01C501B4010E94562FD8
:10170000A989BA892D913D914D915C910E94562FE6
:101710004B015C0120E030E040EC50E4C701B60131
:101720000E94D12F9B01AC01C501B4010E9473310D
:10173000F10120813181428153810E94562FD801CD
:101740006D937D938D939C931397E0916703F09134
:1017500068038B899C899183808340912A045091EE
:101760002B0460912C0470912D044F5F5F4F6F4FDD
:101770007F4F40932A0450932B0460932C04709362
:101780002D04411551056105710599F480912E04D0
:1017900090912F04A0913004B09131040196A11DC5
:1017A000B11D80932E0490932F04A0933004B09326
:1017B00031048091710390917203A0917303B091F1
:1017C0007403E0916004F091610480839183A283AB
:1017D000B3838091360490913704A0913804B0917E
:1017E00039040196A11DB11D8093360490933704EE
:1017F000A0933804B0933904892B8A2B8B2B99F44E
:1018000080913A0490913B04A0913C04B0913D0436
:101810000196A11DB11D80933A0490933B04A093BF
:101820003C04B0933D0480914604882309F4BAC077
:10183000813009F4BBC081E090914804992309F4F8
:10184000B2C080E0B0C0C12CD12C7601F5CB20E035
:1018500030E0A901C701B6010E94CD2F87FF14C057
:1018600020E030E040E450E4609161097091620949
:1018700080916309909164090E946F31181624F4D5
:1018800081E08093CA0987CC82E0FBCF082E000C50
:10189000990BACCC82E090E0A9CC2CE432E0AE0114
:1018A0004F5F5F4FBE016B5F7F4F81E693E0AAD928
:1018B000E0916703F091680380819181019729F09D
:1018C0008091E203882309F493CC8091D509882381
:1018D00059F0833029F481E090E08093D50988CCD9
:1018E000082E000C990BF9CF82E090E0F6CF24E4AB
:1018F00032E0AE014F5F5F4FBE016B5F7F4F81E60D
:1019000093E080D9E0916703F09168038081918131
:10191000019729F08091E203882309F469CC809132
:10192000D409882359F0833029F481E090E0809332
:10193000D4095ECC082E000C990BF9CF82E090E020
:10194000F6CFC12CD12C5FE7E52E53E4F52EC2CCA7
:10195000C12CD12C7601BECC8090B5099090B609EF
:10196000A090B709B090B809A5019401C301B201D4
:101970000E94CD2F81110BC0C092B509D092B6093B
:10198000E092B709F092B809E9EBF9E03ECDA50184
:10199000940169857A858B859C850E94CD2F87FF70
:1019A000EBCF29CD81E08093470402C01092470419
:1019B00020914704822F90E0FC01EE0FFF1FEE0FF5
:1019C000FF1FE75BFB4F4083518362837383880F64
:1019D000991F880F991FFC01EF5AFB4F80912E042D
:1019E00090912F04A0913004B091310480839183B1
:1019F000A283B383209348048FEF809347046A96B1
:101A00000FB6F894DEBF0FBECDBFDF91CF911F910F
:101A10000F91FF90EF90DF90CF90BF90AF909F908D
:101A20008F907F906F905F904F903F902F90089590
:101A30004F925F926F927F92AF92BF92CF92DF925E
:101A4000EF92FF920F931F93CF93DF9384E090E088
:101A50004AD2E1E6F3E08DE091E0DF01EC011D9276
:101A60002197E9F7CDE5D4E0D783C68380E694E0FB
:101A70009093A2038093A10302E314E0158B048BDF
:101A80002DEE33E037AF26AF47EE53E05093A60379
:101A90004093A50322E234E03093A4032093A303F0
:101AA00024E234E03093A8032093A70329EE33E027
:101AB0003093AA032093A9032BEE33E03093AC03B9
:101AC0002093AB03F093CC03E093CB03F583E48343
:101AD00021E030E03983288328E034E064EF73E0CC
:101AE000D9016D937C9368EF73E070930B0460935E
:101AF0000A046CEF73E070930D0460930C0460E0D3
:101B000074E070930F0460930E0464E074E07093CB
:101B100011046093100467EDC62E69E0D62EEA0129
:101B2000D982C8823187208725E932E0338722872E
:101B300022E634E0DC012D933C9340E050E060E885
:101B40007FEB4093590450935A0460935B04709365
:101B50005C044FE652E163E87AE3E8014883598385
:101B60006A837B8342E154E08FE297ECA4E0B6EE17
:101B7000EA0188839983AA83BB8385E691E9ABE177
:101B8000BEEF8093160490931704A0931804B093AB
:101B900019048AED9EE3A7EEB4E980931A049093AA
:101BA0001B04A0931C04B0931D048EE19CEFA7EED0
:101BB000B5EB80931E0490931F04A0932004B09370
:101BC0002104A5E5B3E0B383A283EBE3F3E0119630
:101BD000FC93EE938AE992E09183808393838283DE
:101BE0009583848364ED79E0778366836CEC79E098
:101BF000718760876BEC79E0738762870DEC19E081
:101C00001587048777876687918B808B938B828B70
:101C1000958B848B85ED99E0978B868B86ED99E08B
:101C2000918F808F88E294E015969C938E93149701
:101C300013965C934E93129717963C932E93169798
:101C4000E1E5F9E080E2DF011D928A95E9F784E0A1
:101C5000E60119928A95E9F7C1E7D9E086E6FE0127
:101C600011928A95E9F710924D0910924E0910923F
:101C70004F0910925009DD24D394D092CE0970E020
:101C8000A72E72E0B72EF50180819181A281B381E8
:101C900088879987AA87BB87412C512C32014394AE
:101CA00049825A826B827C8260E083E00E94380124
:101CB000DD8262E082E00E94EA3543E050E069EFB5
:101CC00074E080E00E94D731CC24CA94C092CA0943
:101CD0001C8AD092D1094D8A5E8A6F8A788E61E023
:101CE0008EE10E943801D98E1C86D092D0094D8693
:101CF0005E866F86788A61E08FE10E943801D98A1A
:101D00001CA6D092CF094DA65EA66FA678AAE12C9C
:101D1000F12C8701A801970165E070E080E090E078
:101D20000E94CA019BAB8AABD9AA1CA2D092D3094C
:101D30004DA25EA26FA278A661E088E20E943801FF
:101D4000D9A61C8ED092D2094D8E5E8E6F8E78A24F
:101D500061E08BE00E943801D9A28091400290910D
:101D60004102A0914202B09143028093BD09909339
:101D7000BE09A093BF09B093C009C0924604C092A7
:101D8000470410924804F50184859585A685B7859A
:101D90008CAB9DABAEABBFABC092C709C092C809BC
:101DA0008091E3099091E409A091E509B091E609D9
:101DB0008CAF9DAFAEAFBFAF8093B5099093B6091E
:101DC000A093B709B093B809848D958DA68DB78D72
:101DD0008093D7099093D809A093D909B093DA09D1
:101DE000DF91CF911F910F91FF90EF90DF90CF90F7
:101DF000BF90AF907F906F905F904F9008958091CB
:101E00007109811103C081E0809371098091850976
:101E1000811103C081E08093850980917D09811142
:101E200003C081E080937D0980919D0981112EC0BE
:101E300081E080939D0980919E0990919F09A091D6
:101E4000A009B091A1090197A105B105F9F480910C
:101E5000A2098823D9F065E070E080E090E00E945C
:101E600086019093A4098093A30940E050E0BA0151
:101E70000E944F0165E070E080E090E00E948601E2
:101E80009093A4098093A3090E941B028091950955
:101E9000811103C081E08093950980918D098111A2
:101EA00003C081E080938D09089560E070E080E8D0
:101EB0009FE7089560E070E080E89FE7089560E0A4
:101EC00070E080E89FEF089560E070E080E89FEFA9
:101ED000089560E070E080EC9FEF089560E070E0AE
:101EE00080EC9FEF0895F5DF6093E7097093E809B0
:101EF0008093E9099093EA09F1DF6093DB0970931D
:101F0000DC098093DD099093DE09CFDF6093E3095C
:101F10007093E4098093E5099093E609CBDF609321
:101F2000DF097093E0098093E1099093E209C7DF2C
:101F30006093EB097093EC098093ED099093EE099F
:101F4000C3DF6093EF097093F0098093F1099093D8
:101F5000F20908954F925F926F927F928F929F92B3
:101F6000AF92BF92CF92DF92EF92FF920F931F93A7
:101F7000F89440907A0450907B0460907C047090B8
:101F80007D04C0906E04D0906F04E0907004F090D7
:101F900071044130510509F0A4C09B01AC01241922
:101FA00035094609570929013A0100917604109133
:101FB0007704209178043091790448015901840C08
:101FC000951CA61CB71C80169106A206B306A0F4A9
:101FD000009172041091730420917404309175047F
:101FE0000F5F1F4F2F4F3F4F0093720410937304E6
:101FF0002093740430937504809276049092770451
:10200000A0927804B0927904009172041091730444
:10201000209174043091750480927E0490927F0424
:10202000A0928004B09281040093820410938304F0
:10203000209384043093850460937A0470937B0426
:1020400080937C0490937D04A8EEB3E0A3019201F9
:102050000E942D3A6C0D7D1D8E1D9F1D60936E0498
:1020600070936F04809370049093710400915C02EC
:1020700010915D0220915E0230915F020F3F1F4F71
:102080002F4F3F4FF1F000915C0210915D022091C3
:102090005E0230915F020E3F1F4F2F4F3F4F89F07E
:1020A000C0905C02D0905D02E0905E02F0905F0212
:1020B00021E08C149D04AE04BF0408F420E02093BA
:1020C0008A0478941F910F91FF90EF90DF90CF904A
:1020D000BF90AF909F908F907F906F905F904F9048
:1020E00008954B015C0184189508A608B708A30160
:1020F0009201261B370B480B590B64157505860595
:102100009705D0F082169306A406B50640F420E0A9
:1021100030E0A90181149104A104B10491F4A8EE66
:10212000B3E00E942D3AA7019601261B370B480BFE
:10213000590BCA01B901C5CF82169306A406B5068C
:1021400070F7A8EEB3E0A50194010E942D3A6C0D42
:102150007D1D8E1D9F1DB5CFFDCECF93DF9300D08B
:102160001F92CDB7DEB71C821B821A821982109291
:102170008604109287041092880410928904BE018C
:102180006F5F7F4FCE0103960E94A32D69817A81F4
:102190008B819C810E949126009761F4BE016F5F44
:1021A0007F4FCE0103960E94AF2D69817A818B818A
:1021B0009C812FD50F900F900F900F90DF91CF91B2
:1021C0000895FF920F931F93CF93DF93082F60E042
:1021D00070E0CB010E941834FF24F3940E947A250A
:1021E000EC01892B89F010E0CE3F8FEFD80769F022
:1021F000002361F160E070E0CB010E94183481E0BF
:1022000090E0892B59F322C011E026D5EC01892BEF
:1022100021F0CE3F8FEFD80759F711111EC011E002
:10222000229609F410E00E942A25EC01892B21F066
:10223000CE3F8FEFD807E1F6111111C011E0CE3F6C
:102240008FEFD80709F410E001110BC0CE01DF9128
:10225000CF911F910F91FF90089511E0E4CF11E00D
:10226000F3CF60E070E0CB010E9418341F25812F6E
:1022700090E0C7CFCF93DF9380918A04882321F029
:1022800060E070E0CB014DD636D6D0E0C0E0892BBF
:1022900071F06AE070E080E090E00E94183481E024
:1022A00090DF29D62196C03D27E0D20781F728D6B6
:1022B0000E94E5261092A2041092A10410929B04A1
:1022C00010929C0410929D0410929E041092970408
:1022D000109298041092990410929A041092930408
:1022E00010929404109295041092960410928F0408
:1022F00010929004109291041092920410928B0408
:1023000010928C0410928D0410928E044EEF5FEFA9
:102310006FEF7FEF40935C0250935D0260935E022B
:1023200070935F0210928A04EEE7F4E028E0DF0188
:102330001D922A95E9F710927A0410927B0410926C
:102340007C0410927D04109276041092770410920F
:10235000780410927904109272041092730410920F
:1023600074041092750410926E0410926F0410920F
:10237000700410927104DF91CF9108951092AE0411
:102380001092AF041092B0041092B1041092AD04F8
:102390008091B6049091B7049093AC048093AB0401
:1023A0001092AA041092A9041092A5041092A604F7
:1023B0001092A7041092A8041092B3041092B204D1
:1023C00090E080E00895CF92DF92EF92FF920F931A
:1023D0001F93CF938C01019709F055C02091B6044B
:1023E0003091B7048091AB049091AC044091B60455
:1023F0005091B7045093AC044093AB0428173907AD
:1024000081F01092AA041092A9041092A5041092CF
:10241000A6041092A7041092A8041092B30410927C
:10242000B2048091B6049091B704019761F5809150
:10243000B2049091B304892B21F480916002811140
:1024400012C08091B2049091B3040197E1F480919D
:10245000A5049091A604A091A704B091A8040197A7
:10246000A105B10581F41092A5041092A604109262
:10247000A7041092A8041092600282E090E090936A
:10248000B3048093B2048091B6049091B70401978D
:1024900009F01CC18091CC049091CD048017910764
:1024A00009F014C18091C8049091C904A091CA0494
:1024B000B091CB04009709F409C12091C704211100
:1024C0000DC04091C8045091C9046091CA04709134
:1024D000CB04452B462B472B09F4F8C02091B204BE
:1024E0003091B3042230310509F0F0C02091A904E5
:1024F0002111ECC0FC01C080D180E280F38080918A
:10250000AD04882309F4D3C08091B9049091BA0432
:10251000892B09F4FEC02091B9043091BA0481E0FE
:102520002230310509F080E02091B9043091BA04DD
:10253000C1E02130310549F02091B9043091BA044D
:10254000C1E02230310509F0C0E0882309F456C00B
:102550002091C3043091C4044091C5045091C60435
:10256000C701B6010E946F3187FD14C02091C304DA
:102570003091C4044091C5045091C6046091AE04EA
:102580007091AF048091B0049091B1040E94CD2F5E
:1025900087FD22C02091C3043091C4044091C5043A
:1025A0005091C604C701B6010E946F31181634F568
:1025B0002091C3043091C4044091C5045091C604D5
:1025C0006091AE047091AF048091B0049091B10419
:1025D0000E94CD2F811112C08091BB049091BC0448
:1025E000A091BD04B091BE04892B8A2B8B2B19F4CA
:1025F00081E08093AA0481E08093A904CC2309F4AC
:1026000056C02091C3043091C4044091C504509138
:10261000C604C701B6010E94CD2F87FF14C02091C8
:10262000C3043091C4044091C5045091C604609124
:10263000AE047091AF048091B0049091B1040E94F7
:102640006F3187FF22C02091C3043091C4044091B0
:10265000C5045091C604C701B6010E94CD2F811157
:1026600026C02091C3043091C4044091C504509108
:10267000C6046091AE047091AF048091B004909153
:10268000B1040E946F31181694F48091BB049091AC
:10269000BC04A091BD04B091BE04892B8A2B8B2B66
:1026A00019F481E08093AA0481E08093A90481E079
:1026B0009091A904911180E08093AD04C092AE0482
:1026C000D092AF04E092B004F092B1040130110551
:1026D00009F067C18091B2049091B304892BD9F4B9
:1026E0001092B8041092A90480916002882379F0B6
:1026F00082E090E09093B3048093B2041092600261
:102700002091B6043091B70481E0232BE9F080E0FA
:102710001BC081E009CF109260028091B804882329
:1027200049F01092AA041092B3041092B2041092CD
:10273000B804EDCF8091B6049091B704892BE1F0F5
:102740008091A9041092A9042091B2043091B3049D
:102750002230310509F45EC088F42115310509F4F1
:1027600048C02130310509F4F3C01092AA04109238
:10277000A9041092B80438C081E0E6CF23303105B7
:1027800009F4B1C02430310581F74091A50450917E
:10279000A6046091A7047091A80441155105610534
:1027A000710561F041505109610971094093A50417
:1027B0005093A6046093A7047093A8044091A504C5
:1027C0005091A6046091A7047091A804452B462B54
:1027D000472BD9F42091B4043091B5042130310550
:1027E00009F046C01092AA041092B3041092B204E9
:1027F0000CC080916002882341F082E090E09093C9
:10280000B3048093B204109260021092A3048091EA
:10281000AA04CEC08823C9F38091BB049091BC0464
:10282000A091BD04B091BE04181619061A061B0625
:102830000CF07DC08091B6049091B704019709F027
:1028400076C08091BB049091BC04A091BD04B0916E
:10285000BE048093A5049093A604A093A704B0930C
:10286000A80483E090E09093B3048093B204CDCFAA
:102870004091BF045091C0046091C1047091C204A2
:10288000452B462B472BA9F01092AA048091BF0438
:102890009091C004A091C104B091C2048093A5049A
:1028A0009093A604A093A704B093A80481E090E0BD
:1028B000DACF882399F08091610290916202A09111
:1028C0006302B09164028093A5049093A604A09340
:1028D000A704B093A80484E090E0C5CF1092AA04A6
:1028E00082E090E0C0CF8091A5049091A604A091D1
:1028F000A704B091A8040097A105B10559F001976C
:10290000A109B1098093A5049093A604A093A704FC
:10291000B093A8048091A5049091A604A091A70467
:10292000B091A804892B8A2B8B2B09F06ECF809154
:10293000610290916202A0916302B0916402892BBE
:102940008A2B8B2B09F44ECF81E08093AA04B3CF5E
:102950004091A5045091A6046091A7047091A80429
:10296000411551056105710561F041505109610939
:1029700071094093A5045093A6046093A704709333
:10298000A8044091A5045091A6046091A7047091F9
:10299000A804452B462B472B09F037CF8111C7CF11
:1029A0009FCF8091A304882309F431CF8091A404A0
:1029B000CF911F910F91FF90EF90DF90CF900895EE
:1029C0001092AE041092AF041092B0041092B104B1
:1029D0001092AD041092B3041092B2041092AC04A1
:1029E0001092AB041092CD041092CC041092AA0461
:1029F0001092A9041092A5041092A6041092A704A4
:102A00001092A8041092A4041092A3041092C80477
:102A10001092C9041092CA041092CB041092C704F9
:102A20001092C3041092C4041092C5041092C604FC
:102A300088EE93E0A0E0B0E08093610290936202A0
:102A4000A0936302B09364021092BF041092C0047A
:102A50001092C1041092C2041092BB041092BC04E4
:102A60001092BD041092BE041092BA041092B904E0
:102A700081E0809360021092B8041092B704109223
:102A8000B6041092B5041092B40490E080E008956A
:102A90008091B6049091B704892B19F5809160025A
:102AA000882351F08091B804811106C081E08093A1
:102AB000A4048093A30408952091B8043091600287
:102AC00081E090E0332311F090E080E030E0822359
:102AD0009323892B21F01092A40481E0EACF109275
:102AE000A304089582E090E0FA01918380838FEF40
:102AF0009FEF0895CF93DF93EA01009711F00E94B2
:102B000005281982188290E080E0DF91CF91089526
:102B1000DB01009719F48FEF8C9308952EEF2C931F
:102B2000FC013F96EF30F10508F034C08827E456E9
:102B3000FA4E8F4F0C94253AC815C615C415C21508
:102B4000C015BC15BE15BA15B815B615B315AF1519
:102B5000AB15B115CA1580E311968C93089589E2DF
:102B6000FBCF82E2F9CF11961C92089583E2F4CF55
:102B700081E2F2CF81E1F0CF87E2EECF8AE2ECCFC3
:102B800080E1EACF84E2E8CF88E2E6CF86E2E4CFD4
:102B900081E3E2CF80E2E0CF8091DA049091DB0420
:102BA00008959093DB048093DA0408958091D9040A
:102BB00008959091D904892B8093D9040895982F72
:102BC00090958091D90489238093D90408958091A8
:102BD000D80408958091D6049091D7040895611582
:102BE000710559F0FB0130E020E070E060E024174F
:102BF000350719F06115710511F0CB010895A08119
:102C0000B181A817B90709F4BF012F5F3F4F36966E
:102C1000EECF8091DC0481111CC060D266D290930B
:102C2000CF048093CE040E9411200E942320909311
:102C3000D3048093D2040E9492240E9499249093FA
:102C4000D1048093D00481E08093DC0490E080E0A4
:102C5000089584EF9FEF08958F929F92AF92BF9255
:102C6000CF92DF92EF92FF920F931F93CF93DF9358
:102C700000D000D000D01F92CDB7DEB71A861986DB
:102C800018861F821E821D821C821B821A82198254
:102C90008091DC0407EF1FEF882309F49CC08E01AC
:102CA0000D5F1F4F9E012B5F3F4FAE01495F5F4F8E
:102CB000BE01675F7F4F90E080E00E9416268C0186
:102CC000009721F00596029708F0DBC029853A8528
:102CD0002115310509F402C1ED80FE804B815C8134
:102CE000B701640F751F8F8198858617970708F4C1
:102CF000F5C0E20EF31ED7019C91903C09F07FC015
:102D00004230510508F47BC011968C914091DA0451
:102D10005091DB04452B09F49CC0913F08F071C031
:102D20002CE1290F2D3008F48BC02DE2290F203122
:102D300008F489C0903C21F48150823008F483C0AB
:102D400088E3890F8B3008F481C098E8C92E95E19B
:102D5000D92EE2E7F5E16D817E81AE014F5F5F4FD5
:102D600089859A8519955C01C114D104A1F18980E6
:102D70009A808114910479F18B819C818815990541
:102D800008F487C010E000E04B815C8170E060E0F7
:102D9000C7010E944F3A01151105E9F449815A8192
:102DA00069857A858D819E81680F791FC501F6013D
:102DB0001995E980FA800D811E812F81388549851A
:102DC0005A856FEF7FEF81E090E00E94B1258C0182
:102DD000892B09F056C0C8012A960FB6F894DEBFB9
:102DE0000FBECDBFDF91CF911F910F91FF90EF905C
:102DF000DF90CF90BF90AF909F908F90089580E02C
:102E000085CF30E020E0220F331FF901E253FB4F62
:102E10000190F081E02D309709F497CF892F90E051
:102E20001995009709F491CFDC011296ED91FC9170
:102E300013971496CD90DC90309709F08CCF1FC07B
:102E400021E030E0E0CF22E030E0DDCF23E030E0F1
:102E5000DACFD12CC12CEAE7F5E19F3F09F07BCF17
:102E6000E091CE04F091CF04309721F4C90104EF32
:102E70001FEF0CC08FEF90E019950097A9F604EFB3
:102E80001FEF89859A85009709F4A5CF0E94052830
:102E9000A2CF0E94E0268C0189859A850E94052890
:102EA00070E060E0C4010E94792698878F830E94B9
:102EB000AE259E838D836F8178856115710559F0EC
:102EC000C8010E9491299A87898706EF1FEF892BF5
:102ED00009F058CF59CF08EF1FEF56CF08EF1FEF7B
:102EE000D0CF2091DC04222319F020E00C9428207C
:102EF00087EF9FEF08958091DA049091DB040895A5
:102F00000E949E240E94F823F5D0EEECF4E088E0C5
:102F1000DF011D928A95E9F71092DC0490E080E0D1
:102F200008950C94562221E040E050E0BA010C9440
:102F3000282086E090E0FA019183808390E080E091
:102F4000089547E050E06DE972E049CEDF92EF92DC
:102F5000FF920F931F93CF93DF938A01EC01C60F6B
:102F6000D71FE090E004F090E104D9800E94C826C9
:102F7000D816190678F082E090E0F80191838083FA
:102F80008EEF9FEFDF91CF911F910F91FF90EF9008
:102F9000DF900895EF2841F482E090E0F8019183FA
:102FA000808384EF9FEFEECF89818093DF0490E0F0
:102FB0000196F8019183808390E080E0E3CFCF9386
:102FC000DF93EA010E940723882321F00E94D5267F
:102FD0000E94082382E090E0998388838BEF9FEF23
:102FE000DF91CF910895CF93DF93EB0186E0FB0152
:102FF00011928A95E9F78FEF8883D8DD8983E7DD21
:103000008A83E8DD9D838C83DF91CF910895CF93F0
:10301000DF93EA010E940A23811109C082E090E057
:103020009983888385EF9FEFDF91CF91089590E09A
:1030300080E0B7DD81E090E09983888390E080E0D4
:10304000F3CF0F931F93CF93DF93EA018C01060F09
:10305000171F0E940A2381110BC082E090E0998320
:10306000888385EF9FEFDF91CF911F910F91089596
:10307000F8018181823038F082E090E09983888382
:103080008EEF9FEFF0CF81E090E08BDD88E090E065
:103090009983888390E080E0E6CFCF93DF93009719
:1030A000D1F4EB01FB01329686E0DF011D928A9597
:1030B000E9F78FEF888385E089831A820E94C8260A
:1030C0008B830E94C7269D838C8381E08E838F83B0
:1030D000DF91CF910895DF91CF911ACD81EA97E1E9
:1030E0009093DE048093DD0408958091DD04909137
:1030F000DE0408951092DE041092DD04089580919C
:10310000E0049091E1040895411105C06115710535
:103110008105910561F06093E0047093E104809370
:10312000E2049093E3044093E40481E0089580E096
:103130000895FF920F931F93CF93DF938A01EC01C1
:10314000C60FD71FF9800E94C826F816190668F026
:1031500082E090E0F801918380838EEF9FEFDF9112
:10316000CF911F910F91FF9008956C817D818E8189
:103170009F814B81C9DF811108C082E090E0F80196
:103180009183808384EF9FEFEACF89818093DF046E
:1031900090E00196F8019183808390E080E0DFCF9A
:1031A000CF93DF93EA01FC01E60FF71F648175817D
:1031B000868197814381A8DF811109C082E090E078
:1031C0009983888384EF9FEFDF91CF91089581E009
:1031D00090E09983888390E080E0F6CFE0EEF4E021
:1031E0004081518162817381480F511D611D711DA4
:1031F00040835183628373830895CF93C091DF042A
:103200004C2F50E06091E0047091E10401960E941F
:10321000463A8C2FE3DF1092DF04CF910895009798
:1032200099F48091E0049091E1042FEFFB01208359
:10323000892B59F02091DF0430E02F5F3F4F241796
:10324000350719F4CB01D9CF63CC0895009799F4D1
:103250008091E0049091E1042FEFFB012083892B02
:1032600059F02091DF0430E02F5F3F4F24173507DE
:1032700019F4CB01C2CF4CCC089523E1AC01249FBB
:10328000C001259F900D1124E091E904F091EA041A
:10329000E80FF91F238134812250310981E0223067
:1032A000310508F080E008950F931F93CF93DF93CB
:1032B0000091EB041091EC04D0E0C0E080E00C172A
:1032C0001D0749F491E0811190E0892FDF91CF91A2
:1032D0001F910F9108958111F5CFCE01CEDF219678
:1032E000EECFA091E904B091EA04109729F1209162
:1032F000EB043091EC0482179307F0F453E1589FEC
:103300009001599F300D1124A20FB31FED91FC9134
:103310001197309789F012968C91681768F48BE0BA
:10332000689FE00DF11D112480819181892B21F08E
:1033300081E09281491708F080E008959C0143E103
:10334000429FC001439F900D1124E091E904F09148
:10335000EA04E80FF91F8385823091F481E090E060
:103360006581768140916502509166026417750708
:1033700011F490E080E0892B19F081E0232B09F013
:1033800080E00895EF92FF920F931F93CF93DF9306
:10339000EA01FC01E60FF71F02811381E480F5804A
:1033A0004F2D6E2DC8019DDF81110DC082E090E090
:1033B000998388838EEF9FEFDF91CF911F910F91BB
:1033C000FF90EF900895C80158DF882339F082E01C
:1033D00090E09983888388EF9FEFEECF10936C0283
:1033E00000936B02E0926D02F0926E0281E090E039
:1033F0009983888390E080E0DFCFCF92DF92EF92D5
:10340000FF920F931F93CF93DF937A01EC01C60FC6
:10341000D71FC0906B02D0906C0200916D0210918A
:103420006E02412F602FC6015CDF811110C082E067
:1034300090E0F701918380838AEF9FEFDF91CF9136
:103440001F910F91FF90EF90DF90CF900895C601EC
:1034500014DF882341F082E090E0F70191838083BC
:1034600088EF9FEFEBCF4C815D816E817F819A81E8
:1034700089818F3F41F082E090E0F7019183808362
:103480008EEF9FEFDBCFE3E1EC9D9001ED9D300DE2
:103490001124E091E904F091EA04E20FF31F019096
:1034A000F081E02D2BE0029FE00DF11D1124019031
:1034B000F081E02D27E0129FE00DF11D11248083A3
:1034C00091838B81828343835483658376831F5FDB
:1034D00010936E0281E090E0F7019183808390E089
:1034E00080E0ACCFEF92FF920F931F93CF93DF93C7
:1034F0007A018C01060F171FC091E904D091EA04EC
:10350000209781F021E030E0F801828193814091A1
:10351000EB045091EC048417950710F030E020E0A4
:10352000232B71F482E090E0F701918380838EEF8A
:103530009FEFDF91CF911F910F91FF90EF90089532
:1035400043E1489F9001499F300D1124C20FD31FC2
:1035500094DE882341F082E090E0F701918380833C
:1035600088EF9FEFE6CFF8012481358120383105BF
:10357000C8F687818111D6CF4181842F90E08F7E5C
:10358000009741F082E090E0F7019183808386EF1D
:103590009FEFCFCF4F833E832D83268128871986C7
:1035A000223010F421E0288721E030E0F701318358
:1035B0002083BFCF88E090E0FA019183808390E080
:1035C00080E00895FB018FEF808381E181838FEF9D
:1035D0009FEF9383828380E890E0958384831682B3
:1035E00017820895FB018FEF808391E0918382839E
:1035F0009383848384E3858381E090E0978386834B
:103600000895DF92EF92FF920F931F93CF93DF9372
:10361000EA01FC01E60FF71F8181813071F082E041
:1036200090E0998388838FEF9FEFDF91CF911F9177
:103630000F91FF90EF90DF90089582819381D48065
:103640002581E680F7800091E9041091EA040115D4
:10365000110539F482E090E0998388838CEF9FEF25
:10366000E4CF4091EB045091EC048417950738F0B7
:1036700082E090E0998388838EEF9FEFD6CF892BED
:1036800039F082E090E09983888386EF9FEFCDCF79
:103690008D2D8D7FB1F72130A1F781E0D11006C0CB
:1036A00091E0E916F10431F080E004C0E2E0EE16AA
:1036B000F104D0F3882329F390E080E0DEDD882355
:1036C00039F082E090E09983888388EF9FEFADCF57
:1036D000F801D38681E08487F686E586108A17860E
:1036E00081E090E09983888390E080E09ECF4CE079
:1036F00050E067EC72E073CA8F929F92BF92CF92B4
:10370000DF92EF92FF920F931F93CF93DF93EA0123
:10371000FC01E60FF71F828193810481B580E0915F
:10372000E904F091EA04309791F482E090E0998303
:1037300088838CEF9FEFDF91CF911F910F91FF90C6
:10374000EF90DF90CF90BF909F908F900895209141
:10375000EB043091EC048217930738F082E090E09C
:10376000998388838EEF9FEFE6CF23E1289F600146
:10377000299FD00C1124EC0DFD1DE080F180E11497
:10378000F10499F28281081748F78BE0089F8001C5
:103790001124E00EF11EF70180819181892B29F619
:1037A000BB20E1F2F7E0BF9E40011124C4010E945A
:1037B000CC27F70191838083E091E904F091EA043A
:1037C000EC0DFD1D0190F081E02DE00FF11F8081D7
:1037D0009181009739F482E090E0998388838DEF9E
:1037E0009FEFA9CFA40170E060E00E944F3A809162
:1037F000E9049091EA04C80ED91EF60180819181F6
:10380000080F191FF801B28281E090E09983888344
:1038100090E080E090CFAF92BF92CF92DF92FF9284
:103820000F931F93CF93DF93EA01FC01E60FF71F7D
:1038300082819381F4800091E9041091EA040115DA
:10384000110581F482E090E0998388838CEF9FEFEB
:10385000DF91CF911F910F91FF90DF90CF90BF909C
:10386000AF9008952091EB043091EC0482179307F8
:1038700038F082E090E0998388838EEF9FEFE8CF65
:103880002FEF2F0D2C3FA8F723E1289F6001299FE0
:10389000D00C11240C0D1D1DF80180819181892B04
:1038A00089F6FBE0FF9E50011124C5010E94CC2740
:1038B000F80191838083E091E904F091EA04EC0D32
:1038C000FD1D80819181009739F482E090E0998319
:1038D00088838DEF9FEFBCCFA50170E060E00E9470
:1038E0004F3AE091E904F091EA04EC0DFD1DF282FB
:1038F00081E090E09983888390E080E0A9CFCF9227
:10390000DF92EF92FF920F931F93CF93DF93860F77
:10391000971FFC01028113818091E9049091EA04D0
:10392000892B81F082E090E0FA01918380838CEF13
:103930009FEFDF91CF911F910F91FF90EF90DF905C
:10394000CF900895C801B0E0A0E00197A109B109A6
:103950008F3F9F4FA105B10540F082E090E0FA0152
:10396000918380838EEF9FEFE4CF7A0183E1809F84
:103970006001819FD00C1124C6010E94CC27EC016C
:10398000009741F482E090E0F701918380838DEF0E
:103990009FEFCFCFA60170E060E00E944F3AD09336
:1039A000EA04C093E9041093EC040093EB0490E064
:1039B00080E02FEF3FEF41E061E070E0801791077A
:1039C00041F481E090E0F7019183808390E080E012
:1039D000B0CF3A8B298B1B864C877E876D87188AE0
:1039E0001F8601966396EACFCF92DF92EF92FF9205
:1039F0000F931F93CF93DF93EC01D12CC12C10E0D8
:103A000000E0F12CE12C6A816017110609F0CCF47A
:103A100083E0689FB0011124AE014F5E5F4FC70184
:103A20000E943128009721F02FEF3FEF3A8B298B2E
:103A3000DF91CF911F910F91FF90EF90DF90CF908A
:103A40000895E881F981EC0DFD1D438154818D8538
:103A50009E85489F9001499F300D589F300D11243D
:103A6000C90101960115110519F44F8144FD049611
:103A700061E070E00E947926E816F90608F47C01FE
:103A80000F5F1F4F8BE0C80ED11CBDCFF894209163
:103A9000E7043091E80481E02115310509F080E068
:103AA000232B09F0789408952F923F924F925F92C2
:103AB0006F927F928F929F92AF92BF92CF92DF923E
:103AC000EF92FF920F931F93CF93DF933C01660E0B
:103AD000771EF301828193814C01B12CA12CC091FE
:103AE000E904D091EA04209769F021E030E0609188
:103AF000EB047091EC048617970710F030E020E09B
:103B0000232BD1F482E090E0FA01918380838EEF41
:103B10009FEFDF91CF911F910F91FF90EF90DF907A
:103B2000CF90BF90AF909F908F907F906F905F905D
:103B30004F903F902F90089580926F029092700264
:103B4000A0927102B092720263E1689F9001699F36
:103B5000300D1124C20FD31FF3018181833040F057
:103B600082E090E0FA019183808386EF9FEFD1CFCE
:103B70002A012B813C81232BF1F4288139819F81FB
:103B800091FF2EC0232B09F46FC02091EE049A817F
:103B9000422F490F5527551FBA0141E050E06138C7
:103BA000710514F050E040E0452B09F45DC02A8710
:103BB000920F9093EE048150823008F481C066DF4A
:103BC000882309F4D8C0F3018181813009F48DC0C4
:103BD00008F47BC0823009F4C6C090E080E0ADC03C
:103BE000232B09F441C02091ED049A81E22FE90FC3
:103BF000FF27FF1F41E050E0ED3FF10514F050E0DA
:103C000040E0452B89F12A87920F9093ED04D3CFA2
:103C1000A081B181A20FB31F11966C91060F111DE7
:103C20000196295F3F4F8417950794F38D859E85F4
:103C3000089F1001099F300C189F300C1124C114EB
:103C4000D104D1F48F8184FF17C00E94C726F5E00C
:103C50002F0E311C21E08215930508F420E0A70106
:103C6000455F5F4F21110EC082E090E0F201918329
:103C7000808387EF9FEF4DCF0E94C7262FEF221A38
:103C8000320AE8CF88819981E80EF91EF701148382
:103C90000383FFEFCF1ADF0A7A018A818C151D0496
:103CA00009F00CF48CCFE881F981EE0DFF1D428103
:103CB00050E030E020E010E000E090E080E0B3CFA2
:103CC000F12CE12CD12CC12CE8CF81E090E09C8339
:103CD0008B83EADA882309F480CF81E090E00E94A8
:103CE000D11580E40E94DF1578CF89899A890196E1
:103CF00061F083E090E09C838B8382E090E00E94FF
:103D0000D11580E40E94D91568CF8D819E812091C4
:103D100065023091660282179307D1F460916902BF
:103D200070916A02AE014F5E5F4F80916702909181
:103D300068020E9450290097E1F2789422E030E076
:103D4000F20131832083892B99F08DEF9FEFE1CE33
:103D500089288A288B2869F6039758F6CE0144DE15
:103D6000188A1F86E8CF82E090E09C838B8335CF52
:103D700090E080E0CECE82E090E0F20191838083FB
:103D800085EF9FEFC6CE8F929F92AF92BF92CF9258
:103D9000DF92EF92FF920F931F93CF93DF93EA018D
:103DA0008C01060F171FF8018181833098F082E0A3
:103DB00090E09983888386EF9FEFDF91CF911F91E9
:103DC0000F91FF90EF90DF90CF90BF90AF909F90BA
:103DD0008F9008958091E9049091EA04892B61F015
:103DE00081E090E02091EB043091EC04232B11F45E
:103DF00090E080E0892B39F482E090E09983888319
:103E00008EEF9FEFDACF42DE882309F4E0C0F8019D
:103E10008181813009F496C0E8F0823099F42091D4
:103E2000EB043091EC04E091E904F091EA0490E0B5
:103E300080E041E050E02817390709F0BEC034DACD
:103E4000811117C0789481E090E09983888390E095
:103E500080E0B3CF2091EB043091EC04E091E904D1
:103E6000F091EA0490E080E041E050E02817390743
:103E700041F481E090E00E94D11580E40E94DF15BA
:103E8000E1CF63817481672B11F0548343830196E2
:103E90007396ECCFE091E904F091EA04E00FF11F92
:103EA0002381348122303105D9F4218932892F3F91
:103EB0003F4FB1F4258136814091650250916602F1
:103EC0002417350761F5AF014F5E5F4F60916902BE
:103ED00070916A0280916702909168020E94502955
:103EE000EFEFCE1ADE0AEE0AFE0A0D5E1F4F40917A
:103EF000EB045091EC0470E060E0C416D506E606D1
:103F0000F70644F5009731F27894892B09F49BCF9A
:103F100082E090E0998388838DEF9FEF4ECFC114AC
:103F2000D104E104F104E1F623303105C8F6CF01F4
:103F30005BDDE091E904F091EA04E00FF11F108AE3
:103F40001786CECF10E000E090E080E0C12CD12CAD
:103F50007601CDCF0097C1F610E000E0812C912CC6
:103F6000540183E0E82EF12C1AC0E091E904F091AD
:103F7000EA04E00FF11F83819481029749F4F482EF
:103F8000E38282E090E00E94D11580E40E94D9157E
:103F9000FFEF8F1A9F0AAF0ABF0A0D5E1F4F809175
:103FA000EB049091EC04B0E0A0E088169906AA0614
:103FB000BB06DCF290E080E0A7CF638174816230C1
:103FC000710511F4548343830196739634CF82E0D4
:103FD00090E09983888385EF9FEFEFCE0097B9F447
:103FE0008FEFFB01808320916F023091700243E1DB
:103FF000429FC001439F900D1124E091E904F0918C
:10400000EA04E80FF91F8285FB01818308950C946F
:10401000881588E090E0FA019183808390E080E049
:1040200008951092E8041092E704E9EEF4E086E0C7
:10403000DF011D928A95E9F787E79BE19093E604FB
:104040008093E50408958091E5049091E604089535
:104050002F923F924F925F926F927F928F929F9298
:10406000AF92BF92CF92DF92EF92FF920F931F9386
:10407000CF93DF93CDB7DEB760970FB6F894DEBF6E
:104080000FBECDBFF894E091E704F091E8043196BB
:10409000F093E804E093E7047894A091E904B091E8
:1040A000EA04BA83A983109709F4FAC1E091EB04FA
:1040B000F091EC04EF2B09F4F3C128874B875C8760
:1040C0006D877E879A878987B88BAF87312C212CA3
:1040D000F12C512C412C8091EB049091EC0428168A
:1040E000390610F4FF2029F1F8948091E7049091AB
:1040F000E80401979093E8048093E7047894C20160
:1041000060960FB6F894DEBF0FBECDBFDF91CF91A2
:104110001F910F91FF90EF90DF90CF90BF90AF90E5
:104120009F908F907F906F905F904F903F902F90D7
:104130000895B10190E080E088D4682EEF85F88979
:10414000878181FD3DC0838194810397C9F52581D5
:1041500036813C832B8389859A852817390781F519
:10416000C101ECD8782E8823A9F1AF85B8891F96B4
:104170008D919C915097019621E01D964D915C91F7
:104180008417950709F020E02F83B12CA12CEF852F
:10419000F88982818A151B0419F014F0FF20E9F0D8
:1041A000F885FF2309F46CC1AF85B88950961C923D
:1041B0001E921F97662021F0B10190E080E047D465
:1041C000FFEF2F1A3F0A2F8538892D5E3F4F388B1E
:1041D0002F8781CFB1E0BF83D8CFC0D49E838D839A
:1041E000E885EE23E9F0772009F43CC1AF85B88972
:1041F0001F968D919C91892B79F0BBE0BA9DC001EF
:10420000BB9D900D1124AF85B889ED91FC91E80F0D
:10421000F91F85819681F9D6BFEFAB1ABB0AB7CFDC
:1042200081E0772039F0EF85F88927853089232BC5
:1042300009F080E0F82EE12CA114B10439F4AF8527
:10424000B8891796EC90E4FAEE24E0F8BBE0BA9D4A
:104250006001BB9DD00C1124882309F424C1AF85D3
:10426000B889ED91FC911197EC0DFD1D43815481AE
:104270001D962D913C91429FC001439F900D529FEE
:10428000900D1124E1105DC001969087878361E055
:1042900070E0878190852DD5EF85F8892189328955
:1042A000008111810C0D1D1D2F3F320709F44BC0F9
:1042B000BC01C9010E949129D80116969C938E9346
:1042C0001597AF85B889ED91FC911197EC0DFD1D07
:1042D000058116810115110509F4CDC0ED81FE811E
:1042E0000E0F1F1F1A968C918A0DD8018C93E11026
:1042F0002FC00F5F1F4FAF85B889ED91FC91EC0D7A
:10430000FD1D12870187AF85B889ED91FC91EC0DF9
:10431000FD1D85819681892B09F4A4C080916502D9
:10432000909166022B813C812817390709F465C0FA
:10433000772011F001851285912C812C1A82198227
:104340004AC00596A2CF28D6F80196838583B9CFB7
:104350008B859C85AD85BE85F80181839283A3837F
:10436000B4830B5F1F4FC7CFE080F180E80CF91CCE
:10437000D70113966D917C9114978C918F3F09F41E
:1043800073C0E1E0F0E002C0EE0FFF1F8A95E2F794
:10439000CF01092E000CAA0BBB0BFB014081518100
:1043A0006281738184239523A623B72321E0892B7F
:1043B0008A2B8B2B09F420E0D8012C93D70111967E
:1043C0008C91080F111DE981FA813196FA83E983F6
:1043D000F7E08F0E911CAF85B889ED91FC91EC0D43
:1043E000FD1D828129813A818217130611F00CF09C
:1043F000BBCF772011F0128701873F81332391F1E2
:10440000AF85B889ED91FC91EC0DFD1D61E070E088
:10441000878190856ED4AF85B889ED91FC91EC0DC4
:10442000FD1DE780F08445815681E1E0F0E06620E3
:1044300011F0F0E0E0E00D811E819C01B1018827C0
:1044400099278E1B9F0B8DD32C01892B59F0EF855B
:10445000F88980819181C80ED91ED60115968D915B
:104460009C91D3D5F12CD8CEF701418150E0C80101
:104470000E94463AA3CF86EF482E55245A94CCCEBC
:10448000EF85F889878590890196908B87872585A8
:1044900036858217930709F08DCE108A17868ACE4B
:1044A000512C412C21CE10E000E02DCF2F923F92D5
:1044B0004F925F926F927F928F929F92AF92BF9234
:1044C000CF92DF92EF92FF920F931F93CF93DF93E0
:1044D0008091E9049091EA0410E000E0892BA9F0B2
:1044E000D5DA0AEF1FEF882381F02090EB0430909B
:1044F000EC04C091E904D091EA04D12CC12C10E065
:1045000000E02C143D04A9F47894C801DF91CF9108
:104510001F910F91FF90EF90DF90CF90BF90AF90E1
:104520009F908F907F906F905F904F903F902F90D3
:104530000895C6010E949E19882309F18B819C81F0
:104540000397E9F48F859889892BC9F0B60190E02B
:1045500080E07BD221E030E0882311F030E020E0E1
:1045600044245524421A530AB12CA12C912C812C9D
:104570008A818815190409F038F4188A1F864FEFCC
:10458000C41AD40A6396BDCFE881F981EA0DFB1DF8
:1045900085819681892BA1F161E070E0878190850A
:1045A000A8D33C01DBD28C01E881F981EA0DFB1D27
:1045B0008185928525813681200F311FAC01421BF8
:1045C000530B9A0147815085421B530B70E060E00A
:1045D0000E944F3AE881F981EA0DFB1DE780F084E3
:1045E000458156819301B601C201BBD28C01892B52
:1045F00039F0E881F981EA0DFB1D8581968105D5A9
:104600005FEF851A950A8BE0A80EB11CB1CF3ECAA8
:10461000789408952F923F924F925F926F927F927B
:104620009F92AF92BF92CF92DF92EF92FF920F9341
:104630001F93CF93DF9300D000D0CDB7DEB70091AA
:10464000E9041091EA04992493940115110509F4E1
:104650003EC0A090EB04B090EC0418DA982E8823AA
:10466000B1F11092EA041092E9041092EC04109255
:10467000EB041092ED041092EE048FEF9FEFDC013B
:1046800080936F0290937002A0937102B0937202B4
:1046900078947FD31E830D83C12CD12C7601C50164
:1046A000B0E0A0E089839A83AB83BC8322242A9460
:1046B000322C89819A81AB81BC81C816D906EA0661
:1046C000FB06F4F0C801A1D480E40E94DF15892D17
:1046D00026960FB6F894DEBF0FBECDBFDF91CF9107
:1046E0001F910F91FF90EF90DF90CF90BF90AF9010
:1046F0009F907F906F905F904F903F902F90089584
:10470000AD81BE8115968D919C9116972091650281
:104710003091660282179307D1F451968D919C9146
:10472000EED5ED81FE8180819181B12CA12C412CAF
:10473000512C3201892B89F5BFEFCB1ADB0AEB0A2A
:10474000FB0AED81FE817396FE83ED83B2CFC11427
:10475000D104E104F10429F7039718F7ED81FE81F4
:10476000818992898F3F980709F029D5AD81BE8153
:1047700052963C922E925197D4CF8A0D9B1DDC010C
:104780008D919C91009709F040D4BFEF4B1A5B0AC2
:104790006B0A7B0AEBE0AE0EB11CAD81BE818D9140
:1047A0009C91119712964C9150E070E060E0441695
:1047B0005506660677060CF328D4BECFCF93DF9359
:1047C000EA0128DF811109C082E090E099838883A3
:1047D00085EF9FEFDF91CF91089581E090E00E94F7
:1047E000D11581E090E09983888390E080E0F2CF5A
:1047F00011DF1092E6041092E504089542E050E0C3
:104800006FE073E00C94EF15FF920F931F93CF931B
:10481000DF938A01EC01C60FD71FF980B9D2089740
:10482000F816190671F068F082E090E0F8019183C3
:1048300080838EEF9FEFDF91CF911F910F91FF90BB
:1048400008956C817D818E819F814B810E948418A7
:10485000811108C082E090E0F8019183808384EFA9
:104860009FEFE9CFF9800E947F184F2D50E0BE01E5
:10487000685F7F4F0E94463A89810E94EE1881E06E
:1048800090E0F8019183808390E080E0D4CFDF92C4
:10489000EF92FF920F931F93CF93DF938A01EC0166
:1048A000C60FD71F0E947F187C01D98071D2DD20EE
:1048B00059F0029721E030E0D816190619F010F0EF
:1048C00030E020E0232B79F482E090E0F80191833E
:1048D00080838EEF9FEFDF91CF911F910F91FF901B
:1048E000EF90DF900895EF2841F482E090E0F80126
:1048F0009183808384EF9FEFEECFF9800E947F1831
:104900004F2D50E0BE016E5F7F4F0E94463A898175
:104910000E94EE1881E090E0F8019183808390E09E
:1049200080E0D9CF8EEF93E29093F0048093EF0470
:1049300008958091EF049091F00408950895FC018A
:1049400011821082938382830895DB011D921C9251
:10495000DC011296ED91FC9113977183608313969D
:104960007C936E9312970895FC0180819181DB0105
:104970008D939C93A081B181109741F08D919C9172
:1049800091838083892B11F4F383E2830895FC01E2
:1049900080819181DB018D939C93892B11F473832A
:1049A0006283718360830895FC0111821082938376
:1049B00082830895CF93DF931F921F92CDB7DEB706
:1049C0001A821982F894BE016F5F7F4F86EF94E0E0
:1049D000CBDF89819A81009709F017D389819A8169
:1049E000892B89F7BE016F5F7F4F8AEF94E0BCDFB0
:1049F00089819A81009709F008D389819A81892B4E
:104A000089F778940F900F90DF91CF910895CF930D
:104A1000DF931F921F92CDB7DEB71A821982F894E6
:104A2000BE016F5F7F4F82EF94E09EDF89819A81A4
:104A3000009709F0EAD289819A81892B89F77894C5
:104A40000F900F90DF91CF91089581E0089590E04D
:104A500080E00895EF92FF920F931F93CF93DF931F
:104A60001F921F92CDB7DEB71A8219828091F1048E
:104A700007EF1FEF8823A1F1F894BE016F5F7F4F0E
:104A80008AEF94E071DF789489819A81EE24E3942F
:104A9000F12C892B51F4F894BE016F5F7F4F86EFA4
:104AA00094E062DF7894F12CE12C89819A810EEFF9
:104AB0001FEF0097A9F0FC014281538164E070E090
:104AC00076D68C01892B61F0F89469817A81C701CF
:104AD000880F991F880F991F8A509B4F58DF789431
:104AE000C8010F900F90DF91CF911F910F91FF9010
:104AF000EF9008950F931F93CF93DF9300D01F92F1
:104B0000CDB7DEB71C821B821A8219828091F10414
:104B100007EF1FEF8823C1F0AE014D5F5F4F64E0E8
:104B200070E0CE010196B6D68C01892B69F4E9813B
:104B3000FA818B819C8193838283F89469817A8145
:104B400082EF94E002DF7894C8010F900F900F90ED
:104B50000F90DF91CF911F910F910895BBD70496CD
:104B600008958F929F92AF92BF92CF92DF92EF9271
:104B7000FF920F931F93CF93DF931F921F92CDB796
:104B8000DEB71A821982BC016F5F7F4F63307105F7
:104B900098F0AA24AA94BA2CC5010F900F90DF9127
:104BA000CF911F910F91FF90EF90DF90CF90BF902A
:104BB000AF909F908F9008954115510551F3480192
:104BC00059018A016C01CADF8815990511F7E114B2
:104BD000F104F9F28E0D9F1DA816B906D0F280914E
:104BE000F1048823F1F0F894B5016450710997013C
:104BF000AE014F5F5F4FC8010496E1D65C01892B7F
:104C000071F489819A81F80193838283C601880FA8
:104C1000991F880F991FB8018A509B4F96DE789490
:104C2000BBCF87EFA82EBB24BA94B6CFAF92BF926A
:104C3000CF92DF92EF92FF920F931F93CF93DF9368
:104C40001F921F92CDB7DEB71A821982892B09F005
:104C500047C06115710509F443C04115510509F4B8
:104C60003FC02115310509F43BC001151105C1F103
:104C70008091F1048823B9F179016A015B01F8940C
:104C8000BE016F5F7F4F82EF94E06EDE7894898182
:104C90009A81009759F1DC0112966D917C91A801DF
:104CA0000496A6D68C01E981FA81D501ED93FC9397
:104CB000828193810496F601918380834FDFD7012F
:104CC0008D939C93C8010F900F90DF91CF911F910E
:104CD0000F91FF90EF90DF90CF90BF90AF9008952D
:104CE0000FEF1FEFEFCF07EF1FEFECCF0EEF1FEF30
:104CF000E9CFCF93DF93EC01672B71F4F4D68C17D7
:104D00009D0760F0E7D62496C80FD91FE6D68C0F12
:104D10009D1FDF91CF910895E3D6F1CF90E080E021
:104D2000F8CF0F931F93CF93DF932091F1042111BC
:104D30002BC08B01EC0186EF94E001DE8AEF94E05A
:104D4000FEDD82EF94E0FBDD97D00097C1F4CBD677
:104D500070E060E0CEDF43E752E062E070E081D1D6
:104D6000009769F48091730290917402CED6B801D5
:104D7000CE0103D5009719F421E02093F104DF91CF
:104D8000CF911F910F91089584EF9FEFF8CFA8C6A0
:104D9000AAC6CF93DF93AAD6EC01892B11F40ADEC1
:104DA00036DECE01DF91CF910895CF93DF939ED66B
:104DB000EC01892B09F4FEDDCE01DF91CF9108953E
:104DC00080917302909174020895CF93DF93809144
:104DD000F104D0E0C0E08823D1F09CD6EC01892B0F
:104DE000B1F4E8DD14DE8091730290917402E7D192
:104DF000E8D2EC01892B59F486EF94E0D5DD8AEFF7
:104E000094E0D2DD82EF94E0CFDD1092F104CE0188
:104E1000DF91CF910895EF92FF920F931F93CF935D
:104E2000DF93EC017A018B010F5F1F4F0E9DA001F4
:104E30000F9D500D1E9D500D112470E060E00E94EA
:104E40004F3A90E080E0F0E0E0E02FEFE816F9065E
:104E500039F4DF91CF911F910F91FF90EF9008955A
:104E60001A8219822883309711F0D283C183019668
:104E7000FE01C00FD11FEACFCF92DF92EF92FF92D7
:104E80000F931F93CF93DF930BE116E00C7F43E06A
:104E900050E065E772E08BE792E01CD485E7E82EEE
:104EA00082E0F82E9BE7C92E92E0D92EC2E9D6E027
:104EB000D7014D915D917D01F601619171916F0175
:104EC000198308835D834C835B834A837F836E836E
:104ED0009B012F5F3F4F249FC001259F900D349F62
:104EE000900D1124998788870115110511F0C801CB
:104EF00092DF88859985080F191F2A96FBE7EF1620
:104F0000F2E0FF06A9F6E0E0F5E088E191E0DF01DC
:104F10009C011D9221503040E1F71092FF04109245
:104F2000FE041092B1061092B0061092B5061092CF
:104F3000B4061092B3061092B2061092B706109201
:104F4000B6061092B9061092B8061092BB061092DF
:104F5000BA061092BF061092BE061092BD061092BD
:104F6000BC061092C1061092C0061092C3061092A1
:104F7000C20610928F0610928E0610929106109221
:104F8000900690E080E0DF91CF911F910F91FF900C
:104F9000EF90DF90CF9008950097F1F0F894ABE791
:104FA000B2E0E2E9F6E030E020E04D915D91481793
:104FB0005907A8F0428153814115510581F08AE0DB
:104FC000829FF001839FF00D1124EE56F94F8081EE
:104FD0009181009759F4789490E080E008952F5FD4
:104FE0003F4F3A962330310501F7F5CFDC0111969A
:104FF0006D917C9171836083415051095383428349
:10500000FC012193CF0178940895009749F1DC01C8
:105010008E91853041F4E0919006F09191063097A1
:10502000F9F0CD0119948530D8F4282F30E0F894A8
:105030008FEF8C938AE0829FF001839FF00D112403
:10504000EE56F94F8081918112969C938E93119721
:10505000B183A08382819381019693838283789424
:105060000895CF92DF92EF92FF920F931F93CF9309
:10507000DF939C0183E095E08C7F4115510509F495
:105080009BC02115310509F497C06115710509F41C
:1050900093C07A01AB01B9016D5F7F4F6C7F9B01BB
:1050A0002F5F3F4F249F8001259F100D349F100DCF
:1050B0001124F8942091B0063091B106232B59F4B5
:1050C0002091B8063091B9062115310569F12017F4
:1050D000310708F058C02091BA063091BB06232B47
:1050E00091F42091B8063091B906820F931F209158
:1050F000C2063091C3062115310509F441C02017BD
:10510000310708F056C07894CFEFDFEF86EF9FEFBE
:10511000F701D183C083DF91CF911F910F91FF9051
:10512000EF90DF90CF900895C3E0D0E0C090FE04F0
:10513000D090FF0425E131E02C193D0920173107FB
:1051400010F32AE02C9FF0012D9FF00D1124EE5654
:10515000F94F9183808355834483538342837783BC
:10516000668311870087009709F055DE0C0D1D1D21
:105170001093FF040093FE04789490E080E0C8CF81
:10518000C4E0D0E0D3CFC3E0D0E02AE02C9FF00110
:105190002D9FF00D1124EE56F94F91838083558396
:1051A00044835383428377836683009729F333DEF6
:1051B000E3CFC4E0D0E0E9CF8FEF9FEFACCF9C010D
:1051C0000397029708F069C0F89484E09AE0482FAA
:1051D00050E0241735070CF44DC091E08AE0829F1F
:1051E000F001839FF00D1124EE56F94F11821082C9
:1051F0001582148213821282178216829923B1F1CA
:105200008091B0069091B106892BA9F42091B8063F
:105210003091B9062115310571F08091FE0490910D
:10522000FF04821B930B9093FF048093FE04109263
:10523000B9061092B8068091BA069091BB06892BE8
:10524000A9F42091C2063091C3062115310571F0F1
:105250008091FE049091FF04821B930B9093FF04B6
:105260008093FE041092C3061092C206789490E0D8
:1052700080E00895949FF001959FF00D1124EE5663
:10528000F94F40815181452B31F440855185452BA3
:1052900011F481509CCF90E0A1CF8FEF9FEF089544
:1052A0004115510549F1009739F16115710521F159
:1052B000F89420918E0630918F06232BB9F420911B
:1052C000900630919106232B89F490938F0680935A
:1052D0008E067093910660939006789425E030E0F6
:1052E00090E080E0FA0131832083089578942FEFD5
:1052F0003FEF86EF9FEFF6CF8FEF9FEF0895059773
:1053000069F4F89410928F0610928E06109291060E
:1053100010929006789490E080E008958FEF9FEFD0
:1053200008956115710519F4F0E0E0E011C08530D1
:10533000910581F4E0918E06F0918F063097A1F3EC
:10534000CB0101961995009779F3FC0185E08193D3
:10535000CF0108959C01235031092230310520F7F7
:105360002AE0289FD001299FB00D1124AE56B94FD5
:105370002D913C911197232BB9F216962D913C91CA
:1053800017972617370780F2F89412962D913C91C3
:1053900013972115310529F0ED91FC911197309764
:1053A00011F47894C1CF4181528111965C934E9350
:1053B0002150310913963C932E9312978193789440
:1053C000C7CFE8E1F6E086E7DF011D928A95E9F7AD
:1053D000E0E0F5E088E191E0DF019C011D922150C1
:1053E0003040E1F71092FF041092FE04E2E9F6E08B
:1053F00082E3DF011D928A95E9F7EEE8F6E084E0AA
:10540000DF011D928A95E9F790E080E00895CF933F
:10541000DF93C0918102D0918202CF3FDC0759F423
:1054200023D4909382028093810297FF09C0D09386
:105430008202C093810284EF9FEFDF91CF910895A4
:1054400090E080E0FACF8230910528F48093C40682
:1054500090E080E008958FEF9FEF08954F925F9264
:105460006F927F92AF92BF92CF92DF92EF92FF92B4
:105470000F931F93CF93DF931F921F92CDB7DEB789
:105480001A821982009709F479C06115710509F42F
:1054900075C0209181023091820207EF1FEF2F3FEC
:1054A0003F4F09F445C06B015C01412C512C320186
:1054B000F12CE12C10E000E09E012F5F3F4FA60190
:1054C0004E195F09B5016E0D7F1D8091810290918B
:1054D00082022ED4892B09F04BC089819A810097D2
:1054E00041F4E114F10429F42091C406222309F4C3
:1054F00042C0E80EF91EEC14FD04D0F480E8481612
:1055000084E858068EE16806710420F560E070E0DA
:10551000CB010E9418342AE0420E511C611C711C00
:105520000A3F4FEF140721F0043F8FEF1807A1F453
:10553000C8010F900F90DF91CF911F910F91FF90B5
:10554000EF90DF90CF90BF90AF907F906F905F9083
:105550004F90089501EF1FEF81E090E0013F2FEFA2
:10556000120711F090E080E0892B09F4A5CFE0CF7D
:1055700004EF1FEFDDCF0AEF1FEFDACF0FEF1FEFC2
:10558000D7CF4F925F926F927F92AF92BF92CF929E
:10559000DF92EF92FF920F931F93CF93DF931F92AF
:1055A0001F92CDB7DEB71A821982009709F479C02D
:1055B0006115710509F475C0209181023091820254
:1055C00007EF1FEF2F3F3F4F09F445C06B015C0110
:1055D000412C512C3201F12CE12C10E000E09E0115
:1055E0002F5F3F4FA6014E195F09B5016E0D7F1D5C
:1055F00080918102909182024ED3892B09F04BC099
:1056000089819A81009741F4E114F10429F42091F1
:10561000C406222309F442C0E80EF91EEC14FD046E
:10562000D0F480E8481686E9580688E968067104CF
:1056300020F560E070E0CB010E9418342AE0420EB1
:10564000511C611C711C0E3F4FEF140721F0043FE9
:105650008FEF1807A1F4C8010F900F90DF91CF9141
:105660001F910F91FF90EF90DF90CF90BF90AF9080
:105670007F906F905F904F90089502EF1FEF81E051
:1056800090E0023F2FEF120711F090E080E0892BAD
:1056900009F4A5CFE0CF04EF1FEFDDCF0EEF1FEF32
:1056A000DACF0FEF1FEFD7CF809181029091820266
:1056B0008F3F980749F0D0D2892B49F48FEF9FEFA5
:1056C000909382028093810290E080E0089584EFBD
:1056D0009FEF0895CF92DF92EF92FF920F931F9367
:1056E000CF93DF9321E04115510509F020E04150AF
:1056F000510921112CC0DC01FB01D12CC12C21E06E
:1057000022C03FEFC31AD30A7D010D911D91E7011D
:10571000EA80FB80E016F106A8F420813181E28066
:10572000F380F182E08233832283ED90FC90119725
:105730009D0122503109E901F982E88211961C93FA
:105740000E9320E03296C416D506D8F2D2CFDF9160
:10575000CF911F910F91FF90EF90DF90CF90089520
:10576000FC01680F791F90E080E0E617F70709F465
:1057700008952191820F911DF8CF2091C506211126
:1057800013C045DE009791F41092CB061092CA0622
:105790001092C9061092C8061092C7061092C6064B
:1057A00021E02093C506089584EF9FEF0895AF92FE
:1057B000BF92CF92DF92EF92FF920F931F93CF93FE
:1057C000DF93009709F460C04630510508F45CC0CF
:1057D0002091C506C7EFDFEF222309F449C08C01F1
:1057E000060F171FF801C080D180C114D10409F43D
:1057F0004EC096012A5F3F4F4217530708F447C037
:105800007C018091CA069091CB0693838283B60176
:105810006C5F7F4F5801A60EB71EC801A1DFF501CE
:105820009183808364E070E0C80118DEEC01892B6D
:10583000F9F481E090E007DEB601C80104960EDEBF
:10584000EC01892B91F462E070E0C50107DEEC0108
:10585000892B59F4C701D9DB8091CA069091CB06F8
:1058600001969093CB068093CA0690E080E0EBDD32
:10587000CE01DF91CF911F910F91FF90EF90DF90BC
:10588000CF90BF90AF900895CFEFDFEFF1CFC9EF8A
:10589000DFEFEECF6F927F928F929F92AF92BF9287
:1058A000CF92DF92EF92FF920F931F93CF93DF93EC
:1058B00000D01F92CDB7DEB7009709F47AC041152A
:1058C000510509F476C02091C50607EF1FEF22238A
:1058D00009F44DC03A017B015C0164E070E0CE0147
:1058E00001964FDE8C01892B09F041C009811A8194
:1058F0000115110509F45AC0480186E0880E911C73
:10590000B701680D791D809183029091840209DDB1
:105910006C01009709F450C0A70170E060E00E949C
:105920004F3A89819A81AB81BC81EC0CFD1CF70157
:1059300081939193A193B1937F0181E090E083DD06
:10594000B801C7011EDE892B31F562E070E0C701A6
:10595000800F911F16DE8C01892BE9F490E080E026
:1059600072DDF501D182C082F30191828082C8018B
:105970000F900F900F900F90DF91CF911F910F918B
:10598000FF90EF90DF90CF90BF90AF909F908F905F
:105990007F906F90089590E080E055DDF5011182D1
:1059A0001082F30111821082C6012FDB09EF1FEF75
:1059B000DECF0FEF1FEFDBCF06EF1FEFD8CF009743
:1059C000A1F04115510589F02115310571F0F9015A
:1059D00036966E177F0748F0DC012D933C93DA0171
:1059E000ED93FC9390E080E008958FEF9FEF089592
:1059F000AF92BF92CF92DF92EF92FF920F931F93DD
:105A0000CF93DF93009709F45FC04115510509F466
:105A10005BC06530710508F457C02091C506C7EF1B
:105A2000DFEF222391F1DC01CD90DC9011971296EB
:105A3000ED91FC9196012A5F3F4FC9EFDFEF2617EA
:105A4000370719F5C091C606D091C706209749F5CA
:105A500021E030E03093C7062093C6067A018C011E
:105A6000F093C906E093C8065601B4E0AB0EB11C32
:105A7000B50176DE0A0D1B1DF801208131818217E8
:105A8000930729F5D701CD92DC92CE01DF91CF911A
:105A90001F910F91FF90EF90DF90CF90BF90AF904C
:105AA00008952091C8063091C9062F5F3F4FCCEF73
:105AB000DFEFE217F30790F2CBEFDFEF2E173F0790
:105AC00068F2D0E0C0E0CACFCFEFDFEFDECFC3EFA8
:105AD000DFEFDBCF84E090E0089582E090E008956E
