:1000000005C100000C9406320C9431320C945C3221
:100010000C9487320C94B2320C94DD320C94083379
:100020000C94333324C1000022C1000020C1000021
:100030001EC100001CC100001AC1000018C1000050
:1000400016C1000014C1000012C1000010C1000060
:100050000EC100000CC100000AC100000C945E3308
:1000600006C100000C945A370C94903700C1000070
:10007000FEC00000FCC00000FAC00000F8C0000094
:10008000F6C00000F4C00000F2C00000F0C00000A4
:100090000C94E6370C941C38EAC00000E8C000005D
:1000A000E6C00000E4C00000E2C00000E0C00000C4
:1000B000DEC00000DCC00000DAC00000D8C00000D4
:1000C000D6C00000D4C000000C94882D0C94723867
:1000D0000C94A838CCC000000C94FE380C94343931
:1000E000C6C0000000000A0B02090C0D0E08070331
:1000F00004010000000000000000000000000000FB
:1001000000000000000000000000000000000000EF
:1001100012111000000000000000000000000000AC
:100120000000000000000000000001021020200874
:100130000810204010204080020102010804020142
:1001400001020408102040808040201008040201B1
:10015000800402018040201008040201080402010A
:100160000102040810204080010204081020408091
:1001700005050505070508080808020202020A0A23
:100180000808040404040101010101010101030341
:10019000030303030303040707070C0C0C0C0C0CEC
:1001A0000C0C0202020206060606060606060B0BE9
:1001B0000B0B0B0B0B0B000020002300260029006B
:1001C0002C002F003200000100000301060109018C
:1001D00000002200250028002B002E0031003400F2
:1001E00002010000050108010B01000021002400AC
:1001F00027002A002D003000330001010000040117
:1002000007010A01B9374538D1385D3911241FBEBD
:10021000CFEFD1E2DEBFCDBF00E00CBF13E0A0E026
:10022000B2E0EAE1F4E700E00BBF02C007900D92F4
:10023000AA32B107D9F729E0AAE2B3E001C01D92C2
:10024000AC3CB207E1F711E0C6E0D1E000E006C047
:1002500021970109802FFE010E94DA39C230D107AF
:1002600080E00807A9F70E947A2E0C940B3AC8CEBA
:10027000611102C00C949F356130E1F362E0FACF66
:10028000662319F061E00C94DB3560E0FCCF0E943E
:10029000083621E0019709F020E0822F0895CF92DF
:1002A000DF92EF92FF92CF93882351F16A017B0195
:1002B000CFEFC80F20E030E0A901CB01B6010E94CA
:1002C000822F87FF11C0C701B60190580E94F32FFB
:1002D0009B01AC016C2F70E090E080E0CF91FF902B
:1002E000EF90DF90CF90B2C0C701B6010E94EE2F11
:1002F0008C2FCF91FF90EF90DF90CF900C946534CE
:10030000CF91FF90EF90DF90CF9008950F931F93C0
:100310008B019C0183E036952795179507958A9563
:10032000D1F7065D1C4F462F477021E030E0F90100
:1003300002C0EE0FFF1F4A95E2F7AF01F8012081DE
:100340002423CB010196211102C090E080E01F918F
:100350000F9108950F931F938B019C0183E03695B5
:100360002795179507958A95D1F7677081E090E0FA
:1003700001C0880F6A95EAF7F801E65DFC4F20811D
:10038000452B31F48095822380831F910F9108952E
:10039000822BFACF2F923F924F925F926F927F9271
:1003A0008F929F92AF92BF92CF92DF92EF92FF9285
:1003B0000F931F93CF93DF93D62EC72E782E692EDF
:1003C00049015A01280161E08D2D0E949F35CD2DF4
:1003D000DC2D8E010F5F1F4FA8016D2D7C2D872D09
:1003E000962DB8DF20E030E0A901C201B7010E94DC
:1003F0002431181664F4C201B7010E94F32F2B01B7
:10040000C501B4010E94F32FA201CE0123D0C8017F
:10041000DF91CF911F910F91FF90EF90DF90CF90E0
:10042000BF90AF909F908F907F906F905F904F9014
:100430003F902F900895882341F08150682F70E0FD
:1004400090E080E050E040E085CF0895862FB9012C
:100450000C9465349C01FC01EC51FF4FE491E15098
:10046000E231E0F4F0E08827E75CFD4F8F4F0C9419
:10047000DA394B02520255026C0281024E02960298
:10048000A202A602BD02D202E702FE0213034E023E
:1004900028033F03540384B5806884BD60E0822F45
:1004A0000C94DB3584B58062F8CF809180008C7F1E
:1004B00082608093800080918100807E8061682BC3
:1004C0006093810050938700409386008091800064
:1004D000806880938000E2CF809180008C7F826072
:1004E0008093800080918100807E8061682B609382
:1004F0008100509387004093860080918000806245
:10050000E8CF809180008C7F826080938000809112
:100510008100807E8061682B60938100509387000A
:1005200040938600809180008860D3CF8091B00096
:1005300080688093B0008091B100887F682B6093C1
:10054000B100ACCF8091B0008062F3CF8091900079
:100550008C7F82608093900080919100807E80618A
:10056000682B609391005093970040939600809180
:10057000900080688093900091CF809190008C7F54
:1005800082608093900080919100807E8061682BD2
:100590006093910050939700409396008091900053
:1005A0008062E8CF809190008C7F82608093900081
:1005B00080919100807E8061682B609391005093C0
:1005C000970040939600809190008860D3CF8091EF
:1005D000A0008C7F82608093A0008091A100807E2B
:1005E0008061682B6093A1005093A7004093A60000
:1005F0008091A00080688093A00050CF8091A000DF
:100600008C7F82608093A0008091A100807E8061B9
:10061000682B6093A1005093A7004093A60080919F
:10062000A0008062E8CF8091A0008C7F82608093E0
:10063000A0008091A100807E8061682B6093A10062
:100640005093A7004093A6008091A0008860D3CF6C
:10065000809120018C7F8260809320018091210114
:10066000807E8061682B6093210150932701409325
:100670002601809120018068809320010FCF809116
:1006800020018C7F82608093200180912101807EF7
:100690008061682B609321015093270140932601CC
:1006A000809120018062E8CF809120018C7F826060
:1006B0008093200180912101807E8061682B60936E
:1006C00021015093270140932601809120018860E9
:1006D000D3CF90E080E008950F931F93009709F423
:1006E00089C06115710509F485C000915802109107
:1006F000590220915A0230915B020E3F1F4F2F4F3B
:100700003F4F09F068C04FEF5FEFBA0140935802C6
:100710005093590260935A0270935B0240915802C1
:100720005091590260915A0270915B02DC0112965D
:10073000ED91FC9180819181A281B3818093950498
:1007400090939604A0939704B09398048481958124
:10075000A681B7818093910490939204A09393040F
:10076000B093940480859185A285B38580938D0490
:1007700090938E04A0938F04B09390048485958504
:10078000A685B7858093890490938A04A0938B04EF
:10079000B0938C0410928504109286041092870402
:1007A000109288040E94731188E991E190933403B8
:1007B0008093330390933603809335030E94621035
:1007C000009731F421E030E030939A0420939904AB
:1007D0001F910F9108950091580210915902209194
:1007E0005A0230915B02DB010D931D932D933C93D4
:1007F000139794CF8FEF9FEFEBCF8F929F92AF9293
:10080000BF92CF92DF92EF92FF921F93CF93DF932D
:100810004B015C0110919C0482E090E090939A045B
:100820008093990481149104A104B10441F480914E
:100830009C04811104C080919B04C1E08111C0E03F
:10084000C12CD12C760180919C04811106C080912D
:100850009B04811102C0CC23D9F083E090E09093F7
:100860009A0480939904CC2381F1CCE9DFEF111134
:1008700002C00E94FD14CE01DF91CF911F91FF9025
:10088000EF90DF90CF90BF90AF909F908F900895A2
:100890006AE070E080E090E00E94CD3380E1C80E15
:1008A00087E2D81EE11CF11C8FEF88169806A80677
:1008B000B80631F0C1E08C149D04AE04BF0408F00A
:1008C000C0E080E00E949610BECFD0E0C0E0CFCF65
:1008D000CF92DF92EF92FF920F931F93CF93DF930C
:1008E0008F3F910511F008F051C02091990430918B
:1008F0009A042330310539F02091990430919A04FB
:100900002130310531F424E030E030939A04209313
:1009100099046A017B01EC0182309105A8F011E095
:10092000AE01C701B6010E946110AB01BC01CE014E
:100930001123F9F0DF91CF911F910F91FF90EF906C
:10094000DF90CF900C9426178C01000F111F0D5CC7
:100950001C4FD8018D919C91892B09F30E9430176F
:100960000297E9F6D801ED91FC91CE011995182F67
:10097000D7CF0E94481790E080E0DF91CF911F9180
:100980000F91FF90EF90DF90CF9008958FEF9FEF42
:10099000F4CF80E00C949610CF93DF9386E090E044
:1009A00090939A04809399040E94EF10EC01E3E382
:1009B000F3E084E0DF011D928A95E9F70E94951427
:1009C00010929A0410929904CE01DF91CF9108956C
:1009D00080919B0408958091840408956093580247
:1009E0007093590280935A0290935B0290E080E0EA
:1009F0000895CF92DF92EF92FF928091A5098150E6
:100A00008230E0F080E08093A5098091A4098150B4
:100A10008230B0F080E08093A4098091A3098150D6
:100A2000823080F080E08093A30980914104882384
:100A300059F0813069F08091420407C083E0E3CF30
:100A400083E0E9CF83E0EFCF81E08093400402C0F0
:100A5000109240048091400490E0FC01EE0FFF1FD3
:100A6000EE0FFF1FED5BFB4F40815181628173816F
:100A7000409338045093390460933A0470933B04D4
:100A8000880F991F880F991FFC01E55BFB4F808140
:100A90009181A281B38180933C0490933D04A09303
:100AA0003E04B0933F048FEF8093400480919709F8
:100AB00090919809A0919909B0919A0980934F0952
:100AC00090935009A0935109B0935209C09000022D
:100AD000D0900102E0900202F0900302A70196017B
:100AE00060915B0970915C0980915D0990915E094C
:100AF0000E94822F882341F0C0925B09D0925C094A
:100B0000E0925D09F0925E0983E0C1DB81112DC0A6
:100B10002091040230910502409106025091070293
:100B200060919709709198098091990990919A091B
:100B30000E940B2F609397097093980980939909ED
:100B400090939A0984E08093A50984E08093A30997
:100B50008091A009882339F1813049F19091A10950
:100B600081E0992309F180E01FC0209108023091B3
:100B7000090240910A0250910B026091970970910D
:100B800098098091990990919A090E940A2F60937F
:100B90009709709398098093990990939A0984E032
:100BA0008093A409D2CF81E080939F0902C0109264
:100BB0009F0920919F0980914F0990915009A09120
:100BC0005109B09152092223A1F080938309909397
:100BD0008409A0938509B093860980919F09809329
:100BE000A1098FEF80939F09FF90EF90DF90CF9046
:100BF000089580937F0990938009A0938109B09311
:100C00008209EBCF84509F4FFC0180819181019735
:100C1000A1F4F90180819181A281B381FB018083DC
:100C20009183A283B383F90184819581A681B781E1
:100C3000FA0180839183A283B3830895CF92DF92D8
:100C4000EF92FF926B017C019F7720E030E040E85B
:100C500059E50E94822F87FF2BC020E030E040E062
:100C60005FE3C701B6010E94243187FD0EC020E07A
:100C700030E040E05FE3C701B6010E940B2FFF9018
:100C8000EF90DF90CF900C945C3020E030E040E0BB
:100C90005FEBC701B6010E942431181684F420E0EE
:100CA00030E0A901C701B6010E9428316B017C0127
:100CB000C701B601FF90EF90DF90CF90089520E03C
:100CC00030E040E05FE3C701B6010E940A2FFF90C9
:100CD000EF90DF90CF900C946F2FE091E703F091AD
:100CE000E80380913F0990914009A0914109B0919A
:100CF000420980839183A283B38308952F923F9208
:100D00004F925F926F927F928F929F92AF92BF921B
:100D1000CF92DF92EF92FF920F931F93CF93DF93C7
:100D2000CDB7DEB76A970FB6F894DEBF0FBECDBF62
:100D3000A0905704B090580400915A0410915B049D
:100D400021E0A216B10409F078C0809124049091AA
:100D50002504A0912604B091270440902C045090C3
:100D60002D0460902E0470902F04C0902804D09021
:100D70002904E0902A04F0902B048F3FEFEF9E07A8
:100D8000AE07BE0799F5C701B6016F5F7F4F8F4F62
:100D90009F4F0E941F30A30192010E94283120E042
:100DA00030E040E85FE40E94283160936B03709369
:100DB0006C0380936D0390936E038091AD09815015
:100DC000823008F44FC080E08093AD09F1E0AF16A7
:100DD000B10409F0A9C080919F09882309F444C097
:100DE000813009F445C08091A1093FC0BC01CD010B
:100DF0006F5F7F4F8F4F9F4F0E941F30A301920163
:100E00000E94283169877A878B879C87C701B60142
:100E10000E941F30A30192010E94283120E030E09F
:100E200040E85FE40E9428319B01AC0169857A8526
:100E30008B859C850E940B2FB8CFA114B10409F0BB
:100E4000BCCFE0919B03F0919C030190F081E02DD9
:100E500080819181A281B381F80180839183A283F3
:100E6000B383ABCF83E0B0CF81E08093A00902C011
:100E70001092A0098091A009882309F496C080915E
:100E8000830990918409A0918509B0918609809386
:100E9000370990933809A0933909B0933A098FEF35
:100EA0008093A00920913709309138094091390980
:100EB00050913A09609110027091110280911202D2
:100EC000909113020E9428316B017C01C0923B0972
:100ED000D0923C09E0923D09F0923E09C09233095C
:100EE000D0923409E0923509F0923609209114022B
:100EF000309115024091160250911702609118022C
:100F00007091190280911A0290911B020E9428315F
:100F1000A70196010E940A2F60933F097093400930
:100F20008093410990934209D8014D905D906D9056
:100F30007C90809087099090880910918909009190
:100F40008A09F0908F09E0909009D0909109C090A3
:100F50009209A3019201B401812F902F0E942431A4
:100F60002F2D3E2D4D2D5C2D87FD28C0C301B201D4
:100F70000E94822F18160CF038C42F2D3E2D4D2DB7
:100F80005C2DB401812F902F0E94822F87FD1DC000
:100F90008091930990919409A0919509B091960937
:100FA00089879A87AB87BC8729C080917F099091F8
:100FB0008009A0918109B091820969CFB401812F84
:100FC000902F0E94822F87FF0AC02F2D3E2D4D2D7E
:100FD0005C2DC301B2010E9424311816CCF280911D
:100FE0008B0990918C09A0918D09B0918E09898708
:100FF0009A87AB87BC87F82CE92C68012F2D3E2DF2
:101000004D2D5C2DC301B2010E940A2F6B017C01A2
:1010100029853A854B855C8560913F09709140092F
:1010200080914109909142090E940A2FA7019601DF
:101030000E94862F6B017C0191E0A916B104D1F4C6
:1010400020913F0930914009409141095091420956
:10105000609128027091290280912A0290912B02BE
:101060000E94283160934309709344098093450995
:101070009093460920912002309121024091220252
:1010800050912302C701B6010E94283120914309E3
:101090003091440940914509509146090E940B2F17
:1010A0006B017C012091AE093091AF094091B009EC
:1010B0005091B1096091240270912502809126021D
:1010C000909127020E9428319B01AC01C701B60113
:1010D0000E940B2F4B018C01C0902C02D0902D024E
:1010E000E0902E02F0902F029B01AC01C701B601E7
:1010F0000E94822F87FD12C0C0903002D090310232
:10110000E0903202F09033029401A801C701B601C9
:101110000E942431181614F064017801AA94AB28B7
:1011200089F480913F0990914009A0914109B091C3
:101130004209BF778093470990934809A0934909D2
:10114000B0934A09E0916103F0916203808191813B
:10115000019721F08091DC038823E9F020E030E062
:10116000A901C701B6010E94243118160CF041C331
:1011700020E030E040E450E4609147097091480974
:101180008091490990914A090E94243118160CF067
:1011900030C31092A2098091A209813009F44FC393
:1011A000823009F476C3811123C020E532E0AE011C
:1011B0004F5F5F4FBE016B5F7F4F8BE593E022DD9A
:1011C000E0916103F091620380819181019721F0A8
:1011D0008091DC03882361F08091AD09882309F4B4
:1011E0002BC3833009F024C381E090E08093AD09E4
:1011F0008091570490915804019709F040C06D8187
:101200007E818F8198851ADD4B015C0120E030E002
:1012100040E853E40E94822F6FEF87FF0EC020E06A
:1012200030E0A901C501B4010E94243160E087FDCE
:1012300004C0C501B4010E94F32F8EE121D8698159
:101240007A818B819C81FADC4B015C0120E030E0EB
:1012500040E853E40E94822F6FEF87FF0EC020E02A
:1012600030E0A901C501B4010E94243160E087FD8E
:1012700004C0C501B4010E94F32F8FE101D865E0DD
:1012800070E080E090E042D88C0190937E098093DA
:101290007D09C701B6019F77209134023091350254
:1012A00040913602509137020E9428316B017C0137
:1012B00020E030E04FE753E40E94822F18160CF430
:1012C00012C320E030E0A901C701B6010E94243119
:1012D00087FD10C3B701A601C8010E944F0180918C
:1012E000570490915804019769F560913802709104
:1012F000390280913A0290913B0260934B097093BE
:101300004C0980934D0990934E0998DC6B017C0148
:1013100020E030E040E853E40E94822F6FEF87FF27
:101320000EC020E030E0A901C701B6010E942431BF
:1013300060E087FD04C0C701B6010E94F32F88E278
:101340000E9440018091570490915804019709F040
:1013500028C38091870990918809A0918909B0914B
:101360008A0989879A87AB87BC874090BA095090D1
:10137000BB096090BC097090BD09E0915A04F091DE
:101380005B04C080D180E280F380A3019201BC01A4
:10139000CD010E94822F8111B1C2C0928709D092E3
:1013A0008809E0928909F0928A09EBE8F9E08091D6
:1013B0003F0990914009A0914109B0914209808371
:1013C0009183A283B3836091280470912904809152
:1013D0002A0490912B040E941F3020E030E040E866
:1013E0005FE40E9428316B017C01609124047091BC
:1013F000250480912604909127040E941F309B01B0
:10140000AC01C701B6010E940B2F20E030E0A9011A
:101410000E940B2F0E94F32FAB01BC0190E080E0F3
:1014200057DA8091570490915804019709F0B9C296
:1014300060913404709135048091360490913704A2
:101440000E941F3020E030E040E85FE40E94283135
:101450006B017C0160913004709131048091320401
:10146000909133040E941F309B01AC01C701B6016B
:101470000E940B2F20E030E0A9010E940B2F0E9458
:10148000F32FAB01BC0181E090E022DAA091570478
:10149000B0915804BC8BAB8B119709F082C2E091DC
:1014A0009B03F0919C030190F081E02D40805180DE
:1014B0006280738080916B0390916C03A0916D03A7
:1014C000B0916E038D8B9E8BAF8BB88FE0916F03C5
:1014D000F0917003C080D180E280F380E0919F039F
:1014E000F091A00300811181E0916303F091640306
:1014F00020803180A281B381BA87A98784819581B8
:101500009E878D87A681B781B88BAF8780859185AF
:101510009A8B898BE0916103F091620311821082B2
:1015200084E0F801D10101900D928A95E1F7E091F4
:101530009903F0919A03A985BA85B183A083CDDB85
:1015400020E030E040E05FE3C701B6010E942831AF
:101550004B015C01E985FA8520813181428153810B
:101560000E942831D1012D913D914D915C910E94B5
:101570000B2FF8016083718382839383E0919B0337
:10158000F0919C03808191819A8F898FA5019401AC
:10159000C301B2010E940B2FA98DBA8D6D937D936B
:1015A0008D939C931397E0919903F0919A038D8505
:1015B0009E8591838083A2DB90DBAD85BE852D91D6
:1015C0003D914D915C91C501B4010E942831F1011A
:1015D00020813181428153810E940B2FD8016D936C
:1015E0007D938D939C931397E0919903F0919A03C7
:1015F0008F8598899183808381DB6FDBAF85B88984
:101600002D913D914D915C91C701B6010E94283109
:10161000F10120813181428153810E940B2FD80139
:101620006D937D938D939C931397E0919B03F09121
:101630009C030190F081E02D8D899E89AF89B88D42
:1016400080839183A283B383E0919903F0919A03FD
:10165000A989BA89B183A08351DB3FDBED85FE8583
:1016600060817181828193819B01AC010E940B2F6B
:10167000A985BA852D913D914D915C910E940B2FCA
:101680004B015C01EF85F8896081718182819381D2
:101690009B01AC010E940B2F9B01AC01C501B40161
:1016A0000E940B2FA989BA892D913D914D915C9192
:1016B0000E940B2F4B015C0120E030E040EC50E435
:1016C000C701B6010E94862F9B01AC01C501B40180
:1016D0000E942831F10120813181428153810E9491
:1016E0000B2FD8016D937D938D939C931397E0916D
:1016F0006103F09162038B899C899183808340917F
:1017000024045091250460912604709127044F5FB2
:101710005F4F6F4F7F4F4093240450932504609395
:10172000260470932704411551056105710599F44C
:101730008091280490912904A0912A04B0912B044F
:101740000196A11DB11D8093280490932904A093B4
:101750002A04B0932B0480916B0390916C03A091A9
:101760006D03B0916E03E0915A04F0915B048083A5
:101770009183A283B3838091300490913104A0912E
:101780003204B09133040196A11DB11D8093300441
:1017900090933104A0933204B0933304892B8A2BA5
:1017A0008B2B99F48091340490913504A0913604E8
:1017B000B09137040196A11DB11D8093340490931C
:1017C0003504A0933604B0933704809140048823F5
:1017D00009F4BAC0813009F4BBC081E090914204A1
:1017E000992309F4B2C080E0B0C0C12CD12C76019D
:1017F00023CC20E030E0A901C701B6010E94822F6E
:1018000087FF14C020E030E040E450E460914709D5
:10181000709148098091490990914A090E942431A8
:10182000181624F481E08093A209B5CC82E0FBCFA6
:10183000082E000C990BDACC82E090E0D7CC28E49B
:1018400032E0AE014F5F5F4FBE016B5F7F4F8BE5B4
:1018500093E0D8D9E0916103F09162038081918196
:10186000019729F08091DC03882309F4C1CC809191
:10187000AC09882359F0833029F481E090E080930B
:10188000AC09B6CC082E000C990BF9CF82E090E0A1
:10189000F6CF20E432E0AE014F5F5F4FBE016B5FD9
:1018A0007F4F8BE593E0AED9E0916103F091620345
:1018B00080819181019729F08091DC03882309F4CC
:1018C00097CC8091AB09882359F0833029F481E0CB
:1018D00090E08093AB098CCC082E000C990BF9CFCB
:1018E00082E090E0F6CFC12CD12C5FE7E52E53E4E7
:1018F000F52EF0CCC12CD12C7601ECCC80908F0948
:1019000090909009A0909109B0909209A50194013E
:10191000C301B2010E94822F81110BC0C0928F09B6
:10192000D0929009E0929109F0929209E3E9F9E0EE
:101930003ECDA501940169857A858B859C850E94A1
:10194000822F87FFEBCF29CD81E08093410402C035
:101950001092410420914104822F90E0FC01EE0F8F
:10196000FF1FEE0FFF1FED5BFB4F40835183628330
:101970007383880F991F880F991FFC01E55BFB4F4C
:101980008091280490912904A0912A04B0912B04FD
:1019900080839183A283B383209342048FEF80934B
:1019A00041046A960FB6F894DEBF0FBECDBFDF913B
:1019B000CF911F910F91FF90EF90DF90CF90BF904C
:1019C000AF909F908F907F906F905F904F903F90DF
:1019D0002F9008954F925F926F927F92AF92BF9235
:1019E000CF92DF92EF92FF920F931F93CF93DF93EB
:1019F00084E090E02DD2EBE5F3E08DE091E0DF01B3
:101A0000EC011D922197E9F7C7E5D4E0D783C6839F
:101A10008AE594E090939C0380939B030CE214E08E
:101A2000158B048B27EE33E037AF26AF41EE53E042
:101A30005093A00340939F032CE134E030939E0326
:101A400020939D032EE134E03093A2032093A10361
:101A500023EE33E03093A4032093A30325EE33E079
:101A60003093A6032093A503F093C603E093C50328
:101A7000F583E48321E030E03983288322E034E0F9
:101A80006EEE73E0D9016D937C9362EF73E0709317
:101A900005046093040466EF73E070930704609399
:101AA00006046AEF73E070930904609308046EEF14
:101AB00073E070930B0460930A046EEAC62E69E02B
:101AC000D62EEA01D982C8823187208721E932E007
:101AD000338722872CE534E0DC012D933C9340E0F2
:101AE00050E060E87FEB40935304509354046093BC
:101AF0005504709356044FE652E163E87AE3E80137
:101B0000488359836A837B834CE054E088E091EA00
:101B1000AFE6BBEFEA0188839983AA83BB838DE597
:101B200094E4A5EAB2EE8093100490931104A0937C
:101B30001204B093130486EA9CEDA8E0B2EC809303
:101B4000140490931504A0931604B093170482E133
:101B50009CE0A9E2B1ED8093180490931904A0933E
:101B60001A04B0931B04AFE4B3E0B383A283E7E3AA
:101B7000F3E01196FC93EE9386E992E091838083E3
:101B8000938382836BEA79E07583648364EA79E006
:101B90007783668363EA79E07187608705EA19E0F5
:101BA000138702877587648797878687918B808BD9
:101BB000938B828B8CEA99E0958B848B8DEA99E0EC
:101BC000978B868B82E294E015969C938E93149764
:101BD00013965C934E93129717963C932E931697F9
:101BE000E7E3F9E08CE1DF011D928A95E9F784E0F3
:101BF000E60119928A95E9F7C3E5D9E08BE5FE0184
:101C000011928A95E9F710923309109234091092D3
:101C1000350910923609DD24D394D092A60970E0DC
:101C2000A72E72E0B72EF50180819181A281B38148
:101C300088879987AA87BB87412C512C320143940E
:101C400049825A826B827C8260E083E00E94380184
:101C5000DD8262E082E00E949F3543E050E069EF60
:101C600074E080E00E948C31CC24CA94C092A20916
:101C70001C8AD092A9094D8A5E8A6F8A788E61E0AB
:101C80008EE10E943801D98E1C86D092A8094D861B
:101C90005E866F86788A61E08FE10E943801D98A7A
:101CA0001CA2D092A7094DA25EA26FA278A6E12C39
:101CB000F12C8701A801970165E070E080E090E0D9
:101CC0000E94CA019BA78AA7D9A61C8ED092AA09F6
:101CD0004D8E5E8E6F8E78A261E088E20E943801A0
:101CE000D9A2F50184AD95ADA6ADB7AD80939709A6
:101CF00090939809A0939909B0939A09C0924004CF
:101D0000C09241041092420484859585A685B785CA
:101D10008CA79DA7AEA7BFA7C0929F09C092A0099C
:101D20008091BA099091BB09A091BC09B091BD09FD
:101D30008CAB9DABAEABBFAB8CAF9DAFAEAFBFAF0F
:101D4000848D958DA68DB78D8093AE099093AF0944
:101D5000A093B009B093B109DF91CF911F910F917A
:101D6000FF90EF90DF90CF90BF90AF907F906F90FB
:101D70005F904F90089580915309811103C081E0D5
:101D80008093530980916709811103C081E080939A
:101D9000670980915F09811103C081E080935F0929
:101DA0008091770981112EC081E08093770980911D
:101DB000780990917909A0917A09B0917B090197EE
:101DC000A105B105F9F480917C098823D9F065E07B
:101DD00070E080E090E00E94860190937E098093FD
:101DE0007D0940E050E0BA010E944F0165E070E0DB
:101DF00080E090E00E94860190937E0980937D09A7
:101E00000E941B0280916F09811103C081E08093C1
:101E10006F09089560E070E080E89FE7089560E052
:101E200070E080E89FE7089560E070E080E89FEF51
:101E3000089560E070E080E89FEF089560E070E052
:101E400080EC9FEF089560E070E080EC9FEF0895D4
:101E5000F5DF6093BE097093BF098093C00990932A
:101E6000C109F1DF6093B2097093B3098093B4099B
:101E70009093B509CFDF6093BA097093BB09809343
:101E8000BC099093BD09CBDF6093B6097093B70985
:101E90008093B8099093B909C7DF6093C209709322
:101EA000C3098093C4099093C509C3DF6093C60931
:101EB0007093C7098093C8099093C90908954F92F8
:101EC0005F926F927F928F929F92AF92BF92CF92CA
:101ED000DF92EF92FF920F931F93F8944090740457
:101EE000509075046090760470907704C0906804F8
:101EF000D0906904E0906A04F0906B044130510581
:101F000009F0A4C09B01AC01241935094609570901
:101F100029013A010091700410917104209172041A
:101F20003091730448015901840C951CA61CB71C00
:101F300080169106A206B306A0F400916C041091DD
:101F40006D0420916E0430916F040F5F1F4F2F4F6F
:101F50003F4F00936C0410936D0420936E043093F4
:101F60006F048092700490927104A0927204B092F7
:101F7000730400916C0410916D0420916E043091F3
:101F80006F048092780490927904A0927A04B092BF
:101F90007B0400937C0410937D0420937E04309393
:101FA0007F04609374047093750480937604909317
:101FB0007704A8EEB3E0A30192010E94E2396C0D10
:101FC0007D1D8E1D9F1D609368047093690480932E
:101FD0006A0490936B040091580210915902209169
:101FE0005A0230915B020F3F1F4F2F4F3F4FF1F0CE
:101FF000009158021091590220915A0230915B02CF
:102000000E3F1F4F2F4F3F4F89F0C0905802D09086
:102010005902E0905A02F0905B0221E08C149D047A
:10202000AE04BF0408F420E02093840478941F9148
:102030000F91FF90EF90DF90CF90BF90AF909F9067
:102040008F907F906F905F904F9008954B015C014F
:1020500084189508A608B708A3019201261B370B20
:10206000480B590B6415750586059705D0F0821647
:102070009306A406B50640F420E030E0A9018114DF
:102080009104A104B10491F4A8EEB3E00E94E239F6
:10209000A7019601261B370B480B590BCA01B90142
:1020A000C5CF82169306A406B50670F7A8EEB3E076
:1020B000A50194010E94E2396C0D7D1D8E1D9F1DAE
:1020C000B5CFFDCECF93DF9300D01F92CDB7DEB753
:1020D0001C821B821A821982109280041092810441
:1020E0001092820410928304BE016F5F7F4FCE0175
:1020F00003960E94582D69817A818B819C810E9470
:102100004626009761F4BE016F5F7F4FCE010396B4
:102110000E94642D69817A818B819C812FD50F90DB
:102120000F900F900F90DF91CF910895FF920F9332
:102130001F93CF93DF93082F60E070E0CB010E94E4
:10214000CD33FF24F3940E942F25EC01892B89F0D5
:1021500010E0CE3F8FEFD80769F0002361F160E017
:1021600070E0CB010E94CD3381E090E0892B59F3E0
:1021700022C011E026D5EC01892B21F0CE3F8FEF54
:10218000D80759F711111EC011E0229609F410E08A
:102190000E94DF24EC01892B21F0CE3F8FEFD8077E
:1021A000E1F6111111C011E0CE3F8FEFD80709F40D
:1021B00010E001110BC0CE01DF91CF911F910F9163
:1021C000FF90089511E0E4CF11E0F3CF60E070E0FC
:1021D000CB010E94CD331F25812F90E0C7CFCF9335
:1021E000DF9380918404882321F060E070E0CB01CC
:1021F0004DD636D6D0E0C0E0892B71F06AE070E0B1
:1022000080E090E00E94CD3381E090DF29D62196D6
:10221000C03D27E0D20781F728D60E949A26109267
:102220009C0410929B0410929504109296041092B4
:1022300097041092980410929104109292041092B4
:1022400093041092940410928D0410928E041092B4
:102250008F04109290041092890410928A041092B4
:102260008B0410928C0410928504109286041092B4
:102270008704109288044EEF5FEF6FEF7FEF40937B
:1022800058025093590260935A0270935B02109265
:102290008404E8E7F4E028E0DF011D922A95E9F7DD
:1022A00010927404109275041092760410927704C0
:1022B00010927004109271041092720410927304C0
:1022C00010926C0410926D0410926E0410926F04C0
:1022D000109268041092690410926A0410926B04C0
:1022E000DF91CF9108951092A8041092A904109242
:1022F000AA041092AB041092A7048091B0049091AC
:10230000B1049093A6048093A5041092A4041092A3
:10231000A30410929F041092A0041092A1041092A2
:10232000A2041092AD041092AC0490E080E00895F5
:10233000CF92DF92EF92FF920F931F93CF938C0176
:10234000019709F055C02091B0043091B1048091FB
:10235000A5049091A6044091B0045091B10450930B
:10236000A6044093A5042817390781F01092A4040D
:102370001092A30410929F041092A0041092A10442
:102380001092A2041092AD041092AC048091B0049B
:102390009091B104019761F58091AC049091AD04E6
:1023A000892B21F480915C02811112C08091AC04D0
:1023B0009091AD040197E1F480919F049091A00465
:1023C000A091A104B091A2040197A105B10581F4E7
:1023D00010929F041092A0041092A1041092A204E3
:1023E00010925C0282E090E09093AD048093AC0484
:1023F0008091B0049091B104019709F01CC18091C3
:10240000C6049091C7048017910709F014C1809108
:10241000C2049091C304A091C404B091C504009774
:1024200009F409C12091C10421110DC04091C204D9
:102430005091C3046091C4047091C504452B462B90
:10244000472B09F4F8C02091AC043091AD04223040
:10245000310509F0F0C02091A3042111ECC0FC016A
:10246000C080D180E280F3808091A704882309F4A2
:10247000D3C08091B3049091B404892B09F4FEC0B9
:102480002091B3043091B40481E02230310509F089
:1024900080E02091B3043091B404C1E021303105D3
:1024A00049F02091B3043091B404C1E022303105E9
:1024B00009F0C0E0882309F456C02091BD04309192
:1024C000BE044091BF045091C004C701B6010E94F0
:1024D000243187FD14C02091BD043091BE04409189
:1024E000BF045091C0046091A8047091A904809128
:1024F000AA049091AB040E94822F87FD22C02091F4
:10250000BD043091BE044091BF045091C004C70186
:10251000B6010E942431181634F52091BD04309183
:10252000BE044091BF045091C0046091A804709112
:10253000A9048091AA049091AB040E94822F81117A
:1025400012C08091B5049091B604A091B704B091E7
:10255000B804892B8A2B8B2B19F481E08093A40477
:1025600081E08093A304CC2309F456C02091BD04DC
:102570003091BE044091BF045091C004C701B60120
:102580000E94822F87FF14C02091BD043091BE04A9
:102590004091BF045091C0046091A8047091A904B7
:1025A0008091AA049091AB040E94243187FF22C03D
:1025B0002091BD043091BE044091BF045091C004ED
:1025C000C701B6010E94822F811126C02091BD044F
:1025D0003091BE044091BF045091C0046091A804A2
:1025E0007091A9048091AA049091AB040E942431B7
:1025F000181694F48091B5049091B604A091B70494
:10260000B091B804892B8A2B8B2B19F481E080932D
:10261000A40481E08093A30481E09091A30491112C
:1026200080E08093A704C092A804D092A904E0920D
:10263000AA04F092AB040130110509F067C1809142
:10264000AC049091AD04892BD9F41092B20410928D
:10265000A30480915C02882379F082E090E090935B
:10266000AD048093AC0410925C022091B0043091D0
:10267000B10481E0232BE9F080E01BC081E009CFA9
:1026800010925C028091B204882349F01092A40455
:102690001092AD041092AC041092B204EDCF809170
:1026A000B0049091B104892BE1F08091A3041092C1
:1026B000A3042091AC043091AD042230310509F41B
:1026C0005EC088F42115310509F448C02130310578
:1026D00009F4F3C01092A4041092A3041092B2045F
:1026E00038C081E0E6CF2330310509F4B1C0243091
:1026F000310581F740919F045091A0046091A1049D
:102700007091A204411551056105710561F04150B8
:1027100051096109710940939F045093A00460938B
:10272000A1047093A20440919F045091A004609171
:10273000A1047091A204452B462B472BD9F420917C
:10274000AE043091AF042130310509F046C010923B
:10275000A4041092AD041092AC040CC080915C02F1
:10276000882341F082E090E09093AD048093AC0424
:1027700010925C0210929D048091A404CEC0882324
:10278000C9F38091B5049091B604A091B704B091BB
:10279000B804181619061A061B060CF07DC08091A5
:1027A000B0049091B104019709F076C08091B5040E
:1027B0009091B604A091B704B091B80480939F049F
:1027C0009093A004A093A104B093A20483E090E0AE
:1027D0009093AD048093AC04CDCF4091B904509157
:1027E000BA046091BB047091BC04452B462B472B67
:1027F000A9F01092A4048091B9049091BA04A09118
:10280000BB04B091BC0480939F049093A004A09358
:10281000A104B093A20481E090E0DACF882399F07C
:1028200080915D0290915E02A0915F02B091600282
:1028300080939F049093A004A093A104B093A2045A
:1028400084E090E0C5CF1092A40482E090E0C0CF75
:1028500080919F049091A004A091A104B091A20442
:102860000097A105B10559F00197A109B10980931D
:102870009F049093A004A093A104B093A20480911C
:102880009F049091A004A091A104B091A204892B6F
:102890008A2B8B2B09F06ECF80915D0290915E02A6
:1028A000A0915F02B0916002892B8A2B8B2B09F4D7
:1028B0004ECF81E08093A404B3CF40919F04509108
:1028C000A0046091A1047091A20441155105610515
:1028D000710561F0415051096109710940939F04EC
:1028E0005093A0046093A1047093A20440919F04AC
:1028F0005091A0046091A1047091A204452B462B35
:10290000472B09F037CF8111C7CF9FCF80919D040E
:10291000882309F431CF80919E04CF911F910F91AC
:10292000FF90EF90DF90CF9008951092A80410923E
:10293000A9041092AA041092AB041092A70410925A
:10294000AD041092AC041092A6041092A50410924B
:10295000C7041092C6041092A4041092A30410920B
:102960009F041092A0041092A1041092A20410924D
:102970009E0410929D041092C2041092C3041092FF
:10298000C4041092C5041092C1041092BD041092A8
:10299000BE041092BF041092C00488EE93E0A0E041
:1029A000B0E080935D0290935E02A0935F02B093CB
:1029B00060021092B9041092BA041092BB041092F3
:1029C000BC041092B5041092B6041092B704109291
:1029D000B8041092B4041092B30481E080935C02B6
:1029E0001092B2041092B1041092B0041092AF048D
:1029F0001092AE0490E080E008958091B004909130
:102A0000B104892B19F580915C02882351F08091E3
:102A1000B204811106C081E080939E0480939D04DE
:102A200008952091B20430915C0281E090E033235C
:102A300011F090E080E030E082239323892B21F095
:102A400010929E0481E0EACF10929D04089582E0E6
:102A500090E0FA01918380838FEF9FEF0895CF93E9
:102A6000DF93EA01009711F00E94BA2719821882B9
:102A700090E080E0DF91CF910895DB01009719F499
:102A80008FEF8C9308952EEF2C93FC013F96EF303F
:102A9000F10508F034C08827EF5AFA4E8F4F0C9496
:102AA000DA397D157B15791577157515711573153F
:102AB0006F156D156B1568156415601566157F1516
:102AC00080E311968C93089589E2FBCF82E2F9CFDF
:102AD00011961C92089583E2F4CF81E2F2CF81E156
:102AE000F0CF87E2EECF8AE2ECCF80E1EACF84E25A
:102AF000E8CF88E2E6CF86E2E4CF81E3E2CF80E26E
:102B0000E0CF8091D4049091D50408959093D5049A
:102B10008093D40408958091D30408959091D304B0
:102B2000892B8093D3040895982F90958091D30496
:102B300089238093D30408958091D20408958091CD
:102B4000D0049091D10408956115710559F0FB01ED
:102B500030E020E070E060E02417350719F06115DF
:102B6000710511F0CB010895A081B181A817B907B3
:102B700009F4BF012F5F3F4F3696EECF8091D60408
:102B800081111CC060D266D29093C9048093C8049E
:102B90000E94C61F0E94D81F9093CD048093CC043E
:102BA0000E9447240E944E249093CB048093CA0431
:102BB00081E08093D60490E080E0089584EF9FEF59
:102BC00008958F929F92AF92BF92CF92DF92EF9231
:102BD000FF920F931F93CF93DF9300D000D000D0CC
:102BE0001F92CDB7DEB71A86198618861F821E82FD
:102BF0001D821C821B821A8219828091D60407EFE3
:102C00001FEF882309F49CC08E010D5F1F4F9E01AA
:102C10002B5F3F4FAE01495F5F4FBE01675F7F4F44
:102C200090E080E00E94CB258C01009721F0059672
:102C3000029708F0DBC029853A852115310509F492
:102C400002C1ED80FE804B815C81B701640F751F6E
:102C50008F8198858617970708F4F5C0E20EF31E5A
:102C6000D7019C91903C09F07FC04230510508F497
:102C70007BC011968C914091D4045091D504452B82
:102C800009F49CC0913F08F071C02CE1290F2D3050
:102C900008F48BC02DE2290F203108F489C0903C44
:102CA00021F48150823008F483C088E3890F8B308F
:102CB00008F481C09DE3C92E95E1D92EE7E2F5E144
:102CC0006D817E81AE014F5F5F4F89859A85199531
:102CD0005C01C114D104A1F189809A80811491040E
:102CE00079F18B819C818815990508F487C010E0E3
:102CF00000E04B815C8170E060E0C7010E94043A13
:102D000001151105E9F449815A8169857A858D811A
:102D10009E81680F791FC501F6011995E980FA8037
:102D20000D811E812F81388549855A856FEF7FEF90
:102D300081E090E00E9466258C01892B09F056C045
:102D4000C8012A960FB6F894DEBF0FBECDBFDF9143
:102D5000CF911F910F91FF90EF90DF90CF90BF9098
:102D6000AF909F908F90089580E085CF30E020E075
:102D7000220F331FF901E853FB4F0190F081E02D42
:102D8000309709F497CF892F90E01995009709F4AF
:102D900091CFDC011296ED91FC9113971496CD9092
:102DA000DC90309709F08CCF1FC021E030E0E0CFFD
:102DB00022E030E0DDCF23E030E0DACFD12CC12CAF
:102DC000EFE2F5E19F3F09F07BCFE091C804F0917D
:102DD000C904309721F4C90104EF1FEF0CC08FEF35
:102DE00090E019950097A9F604EF1FEF89859A8561
:102DF000009709F4A5CF0E94BA27A2CF0E9495267A
:102E00008C0189859A850E94BA2770E060E0C40130
:102E10000E942E2698878F830E9463259E838D8330
:102E20006F8178856115710559F0C8010E944629A6
:102E30009A87898706EF1FEF892B09F058CF59CF62
:102E400008EF1FEF56CF08EF1FEFD0CF2091D60429
:102E5000222319F020E00C94DD1F87EF9FEF0895E7
:102E60008091D4049091D50408950E9453240E9427
:102E7000AD23F5D0E8ECF4E088E0DF011D928A95FF
:102E8000E9F71092D60490E080E008950C940B22AC
:102E900021E040E050E0BA010C94DD1F86E090E0B4
:102EA000FA019183808390E080E0089547E050E04C
:102EB00069E972E049CEDF92EF92FF920F931F9380
:102EC000CF93DF938A01EC01C60FD71FE090DA049D
:102ED000F090DB04D9800E947D26D816190678F080
:102EE00082E090E0F801918380838EEF9FEFDF9185
:102EF000CF911F910F91FF90EF90DF900895EF28F1
:102F000041F482E090E0F8019183808384EF9FEFA9
:102F1000EECF89818093D90490E00196F8019183E6
:102F2000808390E080E0E3CFCF93DF93EA010E94BB
:102F3000BC22882321F00E948A260E94BD2282E0C2
:102F400090E0998388838BEF9FEFDF91CF91089575
:102F5000CF93DF93EB0186E0FB0111928A95E9F7AD
:102F60008FEF8883D8DD8983E7DD8A83E8DD9D8361
:102F70008C83DF91CF910895CF93DF93EA010E9474
:102F8000BF22811109C082E090E09983888385EF98
:102F90009FEFDF91CF91089590E080E0B7DD81E071
:102FA00090E09983888390E080E0F3CF0F931F93A4
:102FB000CF93DF93EA018C01060F171F0E94BF22F7
:102FC00081110BC082E090E09983888385EF9FEFA9
:102FD000DF91CF911F910F910895F8018181823087
:102FE00038F082E090E0998388838EEF9FEFF0CFF6
:102FF00081E090E08BDD88E090E09983888390E029
:1030000080E0E6CFCF93DF930097D1F4EB01FB0193
:10301000329686E0DF011D928A95E9F78FEF88836B
:1030200085E089831A820E947D268B830E947C26FC
:103030009D838C8381E08E838F83DF91CF91089570
:10304000DF91CF911ACD86E597E19093D8048093D4
:10305000D70408958091D7049091D80408951092D0
:10306000D8041092D70408958091DA049091DB047B
:103070000895411105C0611571058105910561F043
:103080006093DA047093DB048093DC049093DD0496
:103090004093DE0481E0089580E00895FF920F934D
:1030A0001F93CF93DF938A01EC01C60FD71FF980DE
:1030B0000E947D26F816190668F082E090E0F8017B
:1030C000918380838EEF9FEFDF91CF911F910F91BE
:1030D000FF9008956C817D818E819F814B81C9DF36
:1030E000811108C082E090E0F8019183808384EF31
:1030F0009FEFEACF89818093D90490E00196F8018F
:103100009183808390E080E0DFCFCF93DF93EA016B
:10311000FC01E60FF71F64817581868197814381E9
:10312000A8DF811109C082E090E09983888384EF51
:103130009FEFDF91CF91089581E090E0998388839C
:1031400090E080E0F6CFEAEDF4E0408151816281C9
:103150007381480F511D611D711D4083518362832E
:1031600073830895CF93C091D9044C2F50E06091A0
:10317000DA047091DB0401960E94FB398C2FE3DFA7
:103180001092D904CF910895009799F48091DA04B0
:103190009091DB042FEFFB012083892B59F02091C4
:1031A000D90430E02F5F3F4F2417350719F4CB01C6
:1031B000D9CF63CC0895009799F48091DA04909167
:1031C000DB042FEFFB012083892B59F02091D904D8
:1031D00030E02F5F3F4F2417350719F4CB01C2CFE2
:1031E0004CCC089523E1AC01249FC001259F900D94
:1031F0001124E091E304F091E404E80FF91F238126
:1032000034812250310981E02230310508F080E01C
:1032100008950F931F93CF93DF930091E5041091CE
:10322000E604D0E0C0E080E00C171D0749F491E00F
:10323000811190E0892FDF91CF911F910F91089517
:103240008111F5CFCE01CEDF2196EECFA091E30420
:10325000B091E404109729F12091E5043091E6043F
:1032600082179307F0F453E1589F9001599F300D56
:103270001124A20FB31FED91FC911197309789F0A3
:1032800012968C91681768F48BE0689FE00DF11D31
:10329000112480819181892B21F081E0928149174D
:1032A00008F080E008959C0143E1429FC001439FE4
:1032B000900D1124E091E304F091E404E80FF91F6C
:1032C0008385823091F481E090E065817681409140
:1032D0006102509162026417750711F490E080E07A
:1032E000892B19F081E0232B09F080E00895EF92FB
:1032F000FF920F931F93CF93DF93EA01FC01E60F38
:10330000F71F02811381E480F5804F2D6E2DC801D7
:103310009DDF81110DC082E090E0998388838EEF5C
:103320009FEFDF91CF911F910F91FF90EF90089544
:10333000C80158DF882339F082E090E099838883C0
:1033400088EF9FEFEECF1093680200936702E09240
:103350006902F0926A0281E090E09983888390E0AC
:1033600080E0DFCFCF92DF92EF92FF920F931F9317
:10337000CF93DF937A01EC01C60FD71FC09067028D
:10338000D09068020091690210916A02412F602F6B
:10339000C6015CDF811110C082E090E0F7019183EB
:1033A00080838AEF9FEFDF91CF911F910F91FF9064
:1033B000EF90DF90CF900895C60114DF882341F08D
:1033C00082E090E0F7019183808388EF9FEFEBCF5D
:1033D0004C815D816E817F819A8189818F3F41F02F
:1033E00082E090E0F701918380838EEF9FEFDBCF47
:1033F000E3E1EC9D9001ED9D300D1124E091E3049B
:10340000F091E404E20FF31F0190F081E02D2BE036
:10341000029FE00DF11D11240190F081E02D27E0C5
:10342000129FE00DF11D1124808391838B81828393
:1034300043835483658376831F5F10936A0281E020
:1034400090E0F7019183808390E080E0ACCFEF9231
:10345000FF920F931F93CF93DF937A018C01060F96
:10346000171FC091E304D091E404209781F021E07C
:1034700030E0F801828193814091E5045091E604A7
:103480008417950710F030E020E0232B71F482E0E0
:1034900090E0F701918380838EEF9FEFDF91CF91D2
:1034A0001F910F91FF90EF90089543E1489F900185
:1034B000499F300D1124C20FD31F94DE882341F0A1
:1034C00082E090E0F7019183808388EF9FEFE6CF61
:1034D000F8012481358120383105C8F687818111B2
:1034E000D6CF4181842F90E08F7E009741F082E01B
:1034F00090E0F7019183808386EF9FEFCFCF4F83DA
:103500003E832D83268128871986223010F421E0FE
:10351000288721E030E0F70131832083BFCF88E0A6
:1035200090E0FA019183808390E080E00895FB01B0
:103530008FEF808381E181838FEF9FEF938382837D
:1035400080E890E095838483168217820895FB01BA
:103550008FEF808391E0918382839383848384E3DC
:10356000858381E090E0978386830895DF92EF92D0
:10357000FF920F931F93CF93DF93EA01FC01E60FB5
:10358000F71F8181813071F082E090E09983888318
:103590008FEF9FEFDF91CF911F910F91FF90EF90F1
:1035A000DF90089582819381D4802581E680F78021
:1035B0000091E3041091E4040115110539F482E04F
:1035C00090E0998388838CEF9FEFE4CF4091E504EE
:1035D0005091E6048417950738F082E090E09983D3
:1035E00088838EEF9FEFD6CF892B39F082E090E071
:1035F0009983888386EF9FEFCDCF8D2D8D7FB1F797
:103600002130A1F781E0D11006C091E0E916F10464
:1036100031F080E004C0E2E0EE16F104D0F388233C
:1036200029F390E080E0DEDD882339F082E090E04D
:103630009983888388EF9FEFADCFF801D38681E02F
:103640008487F686E586108A178681E090E0998364
:10365000888390E080E09ECF4CE050E063EC72E025
:1036600073CA8F929F92BF92CF92DF92EF92FF9296
:103670000F931F93CF93DF93EA01FC01E60FF71F2F
:10368000828193810481B580E091E304F091E404A8
:10369000309791F482E090E0998388838CEF9FEFDC
:1036A000DF91CF911F910F91FF90EF90DF90CF901E
:1036B000BF909F908F9008952091E5043091E6048B
:1036C0008217930738F082E090E0998388838EEF29
:1036D0009FEFE6CF23E1289F6001299FD00C1124A2
:1036E000EC0DFD1DE080F180E114F10499F282817E
:1036F000081748F78BE0089F80011124E00EF11EA7
:10370000F70180819181892B29F6BB20E1F2F7E056
:10371000BF9E40011124C4010E948127F7019183BB
:103720008083E091E304F091E404EC0DFD1D019031
:10373000F081E02DE00FF11F80819181009739F435
:1037400082E090E0998388838DEF9FEFA9CFA40159
:1037500070E060E00E94043A8091E3049091E404F8
:10376000C80ED91EF60180819181080F191FF8013A
:10377000B28281E090E09983888390E080E090CFEE
:10378000AF92BF92CF92DF92FF920F931F93CF938E
:10379000DF93EA01FC01E60FF71F82819381F48039
:1037A0000091E3041091E4040115110581F482E015
:1037B00090E0998388838CEF9FEFDF91CF911F91E9
:1037C0000F91FF90DF90CF90BF90AF900895209120
:1037D000E5043091E6048217930738F082E090E028
:1037E000998388838EEF9FEFE8CF2FEF2F0D2C3F2B
:1037F000A8F723E1289F6001299FD00C11240C0D0C
:103800001D1DF80180819181892B89F6FBE0FF9EC7
:1038100050011124C5010E948127F8019183808302
:10382000E091E304F091E404EC0DFD1D80819181B1
:10383000009739F482E090E0998388838DEF9FEFC1
:10384000BCCFA50170E060E00E94043AE091E3047F
:10385000F091E404EC0DFD1DF28281E090E099838B
:10386000888390E080E0A9CFCF92DF92EF92FF9221
:103870000F931F93CF93DF93860F971FFC01028155
:1038800013818091E3049091E404892B81F082E01C
:1038900090E0FA01918380838CEF9FEFDF91CF91CD
:1038A0001F910F91FF90EF90DF90CF900895C80186
:1038B000B0E0A0E00197A109B1098F3F9F4FA1059A
:1038C000B10540F082E090E0FA01918380838EEFB1
:1038D0009FEFE4CF7A0183E1809F6001819FD00C4C
:1038E0001124C6010E948127EC01009741F482E077
:1038F00090E0F701918380838DEF9FEFCFCFA601FA
:1039000070E060E00E94043AD093E404C093E304C2
:103910001093E6040093E50490E080E02FEF3FEF82
:1039200041E061E070E08017910741F481E090E0B0
:10393000F7019183808390E080E0B0CF3A8B298BB0
:103940001B864C877E876D87188A1F860196639633
:10395000EACFCF92DF92EF92FF920F931F93CF9314
:10396000DF93EC01D12CC12C10E000E0F12CE12C14
:103970006A816017110609F0CCF483E0689FB001FA
:103980001124AE014F5E5F4FC7010E94E6270097EA
:1039900021F02FEF3FEF3A8B298BDF91CF911F91D1
:1039A0000F91FF90EF90DF90CF900895E881F9811B
:1039B000EC0DFD1D438154818D859E85489F9001AE
:1039C000499F300D589F300D1124C90101960115F2
:1039D000110519F44F8144FD049661E070E00E94E6
:1039E0002E26E816F90608F47C010F5F1F4F8BE0C6
:1039F000C80ED11CBDCFF8942091E1043091E204AF
:103A000081E02115310509F080E0232B09F078943D
:103A100008952F923F924F925F926F927F928F9272
:103A20009F92AF92BF92CF92DF92EF92FF920F934D
:103A30001F93CF93DF933C01660E771EF3018281C3
:103A400093814C01B12CA12CC091E304D091E404EA
:103A5000209769F021E030E06091E5047091E60480
:103A60008617970710F030E020E0232BD1F482E096
:103A700090E0FA01918380838EEF9FEFDF91CF91E9
:103A80001F910F91FF90EF90DF90CF90BF90AF907C
:103A90009F908F907F906F905F904F903F902F906E
:103AA000089580926B0290926C02A0926D02B09287
:103AB0006E0263E1689F9001699F300D1124C20F6F
:103AC000D31FF3018181833040F082E090E0FA015E
:103AD0009183808386EF9FEFD1CF2A012B813C8198
:103AE000232BF1F4288139819F8191FF2EC0232B54
:103AF00009F46FC02091E8049A81422F490F55279D
:103B0000551FBA0141E050E06138710514F050E0F2
:103B100040E0452B09F45DC02A87920F9093E8049A
:103B20008150823008F481C066DF882309F4D8C050
:103B3000F3018181813009F48DC008F47BC08230AB
:103B400009F4C6C090E080E0ADC0232B09F441C069
:103B50002091E7049A81E22FE90FFF27FF1F41E040
:103B600050E0ED3FF10514F050E040E0452B89F1C5
:103B70002A87920F9093E704D3CFA081B181A20F3F
:103B8000B31F11966C91060F111D0196295F3F4FCF
:103B90008417950794F38D859E85089F1001099FD2
:103BA000300C189F300C1124C114D104D1F48F8132
:103BB00084FF17C00E947C26F5E02F0E311C21E007
:103BC0008215930508F420E0A701455F5F4F21119E
:103BD0000EC082E090E0F2019183808387EF9FEF37
:103BE0004DCF0E947C262FEF221A320AE8CF88811F
:103BF0009981E80EF91EF70114830383FFEFCF1AB2
:103C0000DF0A7A018A818C151D0409F00CF48CCF2F
:103C1000E881F981EE0DFF1D428150E030E020E0A7
:103C200010E000E090E080E0B3CFF12CE12CD12C4B
:103C3000C12CE8CF81E090E09C838B83EADA882373
:103C400009F480CF81E090E00E94861580E40E9414
:103C5000941578CF89899A89019661F083E090E084
:103C60009C838B8382E090E00E94861580E40E9412
:103C70008E1568CF8D819E81209161023091620204
:103C800082179307D1F46091650270916602AE01CC
:103C90004F5E5F4F80916302909164020E940529FC
:103CA0000097E1F2789422E030E0F2013183208342
:103CB000892B99F08DEF9FEFE1CE89288A288B28F8
:103CC00069F6039758F6CE0144DE188A1F86E8CFBE
:103CD00082E090E09C838B8335CF90E080E0CECE75
:103CE00082E090E0F2019183808385EF9FEFC6CE62
:103CF0008F929F92AF92BF92CF92DF92EF92FF92FC
:103D00000F931F93CF93DF93EA018C01060F171FC8
:103D1000F8018181833098F082E090E09983888374
:103D200086EF9FEFDF91CF911F910F91FF90EF9062
:103D3000DF90CF90BF90AF909F908F90089580912B
:103D4000E3049091E404892B61F081E090E02091FC
:103D5000E5043091E604232B11F490E080E0892BF8
:103D600039F482E090E0998388838EEF9FEFDACF79
:103D700042DE882309F4E0C0F8018181813009F432
:103D800096C0E8F0823099F42091E5043091E60481
:103D9000E091E304F091E40490E080E041E050E041
:103DA0002817390709F0BEC034DA811117C078949A
:103DB00081E090E09983888390E080E0B3CF209108
:103DC000E5043091E604E091E304F091E40490E02E
:103DD00080E041E050E02817390741F481E090E0AD
:103DE0000E94861580E40E949415E1CF638174815E
:103DF000672B11F05483438301967396ECCFE091C7
:103E0000E304F091E404E00FF11F238134812230B8
:103E10003105D9F4218932892F3F3F4FB1F42581F3
:103E2000368140916102509162022417350761F595
:103E3000AF014F5E5F4F60916502709166028091A5
:103E40006302909164020E940529EFEFCE1ADE0A08
:103E5000EE0AFE0A0D5E1F4F4091E5045091E60404
:103E600070E060E0C416D506E606F70644F5009754
:103E700031F27894892B09F49BCF82E090E099830A
:103E800088838DEF9FEF4ECFC114D104E104F1047C
:103E9000E1F623303105C8F6CF015BDDE091E304A4
:103EA000F091E404E00FF11F108A1786CECF10E0E6
:103EB00000E090E080E0C12CD12C7601CDCF0097BE
:103EC000C1F610E000E0812C912C540183E0E82E33
:103ED000F12C1AC0E091E304F091E404E00FF11F2B
:103EE00083819481029749F4F482E38282E090E036
:103EF0000E94861580E40E948E15FFEF8F1A9F0A9C
:103F0000AF0ABF0A0D5E1F4F8091E5049091E60451
:103F1000B0E0A0E088169906AA06BB06DCF290E0A5
:103F200080E0A7CF638174816230710511F45483FE
:103F300043830196739634CF82E090E0998388831F
:103F400085EF9FEFEFCE0097B9F48FEFFB018083F1
:103F500020916B0230916C0243E1429FC001439F6C
:103F6000900D1124E091E304F091E404E80FF91FAF
:103F70008285FB01818308950C943D1588E090E0D3
:103F8000FA019183808390E080E008951092E2042A
:103F90001092E104E3EEF4E086E0DF011D928A95E1
:103FA000E9F78CE29BE19093E0048093DF040895AD
:103FB0008091DF049091E00408952F923F924F92F8
:103FC0005F926F927F928F929F92AF92BF92CF92A9
:103FD000DF92EF92FF920F931F93CF93DF93CDB7B2
:103FE000DEB760970FB6F894DEBF0FBECDBFF89472
:103FF000E091E104F091E2043196F093E204E09361
:10400000E1047894A091E304B091E404BA83A98315
:10401000109709F4FAC1E091E504F091E604EF2B62
:1040200009F4F3C128874B875C876D877E879A8761
:104030008987B88BAF87312C212CF12C512C412C46
:104040008091E5049091E6042816390610F4FF20CB
:1040500029F1F8948091E1049091E2040197909302
:10406000E2048093E1047894C20160960FB6F8945C
:10407000DEBF0FBECDBFDF91CF911F910F91FF909B
:10408000EF90DF90CF90BF90AF909F908F907F90F8
:104090006F905F904F903F902F900895B10190E006
:1040A00080E088D4682EEF85F889878181FD3DC046
:1040B000838194810397C9F5258136813C832B83C5
:1040C00089859A852817390781F5C101ECD8782EA2
:1040D0008823A9F1AF85B8891F968D919C9150973F
:1040E000019621E01D964D915C918417950709F08A
:1040F00020E02F83B12CA12CEF85F88982818A15CD
:104100001B0419F014F0FF20E9F0F885FF2309F4EF
:104110006CC1AF85B88950961C921E921F9766207D
:1041200021F0B10190E080E047D4FFEF2F1A3F0A61
:104130002F8538892D5E3F4F388B2F8781CFB1E097
:10414000BF83D8CFC0D49E838D83E885EE23E9F06A
:10415000772009F43CC1AF85B8891F968D919C9159
:10416000892B79F0BBE0BA9DC001BB9D900D112455
:10417000AF85B889ED91FC91E80FF91F8581968193
:10418000F9D6BFEFAB1ABB0AB7CF81E0772039F081
:10419000EF85F88927853089232B09F080E0F82EF8
:1041A000E12CA114B10439F4AF85B8891796EC90CD
:1041B000E4FAEE24E0F8BBE0BA9D6001BB9DD00CB0
:1041C0001124882309F424C1AF85B889ED91FC91AD
:1041D0001197EC0DFD1D438154811D962D913C914D
:1041E000429FC001439F900D529F900D1124E110FA
:1041F0005DC001969087878361E070E0878190853C
:104200002DD5EF85F88921893289008111810C0D26
:104210001D1D2F3F320709F44BC0BC01C9010E948C
:104220004629D80116969C938E931597AF85B88929
:10423000ED91FC911197EC0DFD1D05811681011585
:10424000110509F4CDC0ED81FE810E0F1F1F1A96D6
:104250008C918A0DD8018C93E1102FC00F5F1F4FF6
:10426000AF85B889ED91FC91EC0DFD1D128701879A
:10427000AF85B889ED91FC91EC0DFD1D858196818E
:10428000892B09F4A4C080916102909162022B8174
:104290003C812817390709F465C0772011F00185A2
:1042A0001285912C812C1A8219824AC00596A2CFC0
:1042B00028D6F80196838583B9CF8B859C85AD85FB
:1042C000BE85F80181839283A383B4830B5F1F4F64
:1042D000C7CFE080F180E80CF91CD70113966D91EF
:1042E0007C9114978C918F3F09F473C0E1E0F0E06A
:1042F00002C0EE0FFF1F8A95E2F7CF01092E000CD6
:10430000AA0BBB0BFB014081518162817381842325
:104310009523A623B72321E0892B8A2B8B2B09F425
:1043200020E0D8012C93D70111968C91080F111D14
:10433000E981FA813196FA83E983F7E08F0E911CC7
:10434000AF85B889ED91FC91EC0DFD1D828129812D
:104350003A818217130611F00CF0BBCF772011F0D1
:10436000128701873F81332391F1AF85B889ED91A1
:10437000FC91EC0DFD1D61E070E0878190856ED4AD
:10438000AF85B889ED91FC91EC0DFD1DE780F084BF
:1043900045815681E1E0F0E0662011F0F0E0E0E0D8
:1043A0000D811E819C01B101882799278E1B9F0BCF
:1043B0008DD32C01892B59F0EF85F889808191816B
:1043C000C80ED91ED60115968D919C91D3D5F12C8E
:1043D000D8CEF701418150E0C8010E94FB39A3CF3C
:1043E00086EF482E55245A94CCCEEF85F8898785E0
:1043F00090890196908B878725853685821793074C
:1044000009F08DCE108A17868ACE512C412C21CEF0
:1044100010E000E02DCF2F923F924F925F926F926B
:104420007F928F929F92AF92BF92CF92DF92EF9244
:10443000FF920F931F93CF93DF938091E3049091AA
:10444000E40410E000E0892BA9F0D5DA0AEF1FEFB1
:10445000882381F02090E5043090E604C091E304C5
:10446000D091E404D12CC12C10E000E02C143D04C8
:10447000A9F47894C801DF91CF911F910F91FF901B
:10448000EF90DF90CF90BF90AF909F908F907F90F4
:104490006F905F904F903F902F900895C6010E94BB
:1044A0005319882309F18B819C810397E9F48F8547
:1044B0009889892BC9F0B60190E080E07BD221E099
:1044C00030E0882311F030E020E044245524421AE3
:1044D000530AB12CA12C912C812C8A8188151904A6
:1044E00009F038F4188A1F864FEFC41AD40A63966D
:1044F000BDCFE881F981EA0DFB1D85819681892B6D
:10450000A1F161E070E087819085A8D33C01DBD206
:104510008C01E881F981EA0DFB1D81859285258159
:104520003681200F311FAC01421B530B9A0147818A
:104530005085421B530B70E060E00E94043AE88112
:10454000F981EA0DFB1DE780F084458156819301D6
:10455000B601C201BBD28C01892B39F0E881F98107
:10456000EA0DFB1D8581968105D55FEF851A950AB9
:104570008BE0A80EB11CB1CF3ECA789408952F925B
:104580003F924F925F926F927F929F92AF92BF92B3
:10459000CF92DF92EF92FF920F931F93CF93DF930F
:1045A00000D000D0CDB7DEB70091E3041091E40451
:1045B000992493940115110509F43EC0A090E504D7
:1045C000B090E60418DA982E8823B1F11092E40432
:1045D0001092E3041092E6041092E5041092E704AE
:1045E0001092E8048FEF9FEFDC0180936B029093B1
:1045F0006C02A0936D02B0936E0278947FD31E83F9
:104600000D83C12CD12C7601C501B0E0A0E08983D7
:104610009A83AB83BC8322242A94322C89819A8189
:10462000AB81BC81C816D906EA06FB06F4F0C801C6
:10463000A1D480E40E949415892D26960FB6F89493
:10464000DEBF0FBECDBFDF91CF911F910F91FF90C5
:10465000EF90DF90CF90BF90AF909F907F906F9042
:104660005F904F903F902F900895AD81BE81159639
:104670008D919C9116972091610230916202821770
:104680009307D1F451968D919C91EED5ED81FE81E9
:1046900080819181B12CA12C412C512C3201892B8C
:1046A00089F5BFEFCB1ADB0AEB0AFB0AED81FE812D
:1046B0007396FE83ED83B2CFC114D104E104F104FB
:1046C00029F7039718F7ED81FE81818992898F3F41
:1046D000980709F029D5AD81BE8152963C922E9261
:1046E0005197D4CF8A0D9B1DDC018D919C91009731
:1046F00009F040D4BFEF4B1A5B0A6B0A7B0AEBE070
:10470000AE0EB11CAD81BE818D919C911197129618
:104710004C9150E070E060E044165506660677065E
:104720000CF328D4BECFCF93DF93EA0128DF8111A9
:1047300009C082E090E09983888385EF9FEFDF9145
:10474000CF91089581E090E00E94861581E090E08D
:104750009983888390E080E0F2CF11DF1092E0042B
:104760001092DF04089542E050E06BE073E00C9497
:10477000A415FF920F931F93CF93DF938A01EC014F
:10478000C60FD71FF980B9D20897F816190671F02D
:1047900068F082E090E0F801918380838EEF9FEFD4
:1047A000DF91CF911F910F91FF9008956C817D81D2
:1047B0008E819F814B810E943918811108C082E04F
:1047C00090E0F8019183808384EF9FEFE9CFF98037
:1047D0000E9434184F2D50E0BE01685F7F4F0E9449
:1047E000FB3989810E94A31881E090E0F801918350
:1047F000808390E080E0D4CFDF92EF92FF920F931E
:104800001F93CF93DF938A01EC01C60FD71F0E943D
:1048100034187C01D98071D2DD2059F0029721E053
:1048200030E0D816190619F010F030E020E0232B04
:1048300079F482E090E0F801918380838EEF9FEF1E
:10484000DF91CF911F910F91FF90EF90DF9008952E
:10485000EF2841F482E090E0F8019183808384EFB7
:104860009FEFEECFF9800E9434184F2D50E0BE012B
:104870006E5F7F4F0E94FB3989810E94A31881E0FF
:1048800090E0F8019183808390E080E0D9CF83EBC2
:1048900093E29093EA048093E90408958091E904F7
:1048A0009091EA0408950895FC0111821082938387
:1048B00082830895DB011D921C92DC011296ED911A
:1048C000FC9113977183608313967C936E93129778
:1048D0000895FC0180819181DB018D939C93A081DF
:1048E000B181109741F08D919C9191838083892BA8
:1048F00011F4F383E2830895FC0180819181DB014F
:104900008D939C93892B11F47383628371836083ED
:104910000895FC0111821082938382830895CF93BE
:10492000DF931F921F92CDB7DEB71A821982F894D7
:10493000BE016F5F7F4F80EF94E0CBDF89819A816A
:10494000009709F017D389819A81892B89F7BE01D5
:104950006F5F7F4F84EF94E0BCDF89819A8100977D
:1049600009F008D389819A81892B89F778940F906F
:104970000F90DF91CF910895CF93DF931F921F92F5
:10498000CDB7DEB71A821982F894BE016F5F7F4FF0
:104990008CEE94E09EDF89819A81009709F0EAD23B
:1049A00089819A81892B89F778940F900F90DF91F4
:1049B000CF91089581E0089590E080E00895EF920E
:1049C000FF920F931F93CF93DF931F921F92CDB748
:1049D000DEB71A8219828091EB0407EF1FEF88235C
:1049E000A1F1F894BE016F5F7F4F84EF94E071DF17
:1049F000789489819A81EE24E394F12C892B51F4E7
:104A0000F894BE016F5F7F4F80EF94E062DF78948F
:104A1000F12CE12C89819A810EEF1FEF0097A9F00C
:104A2000FC014281538164E070E076D68C01892BD1
:104A300061F0F89469817A81C701880F991F880F06
:104A4000991F80519B4F58DF7894C8010F900F90A9
:104A5000DF91CF911F910F91FF90EF9008950F93E9
:104A60001F93CF93DF9300D01F92CDB7DEB71C8288
:104A70001B821A8219828091EB0407EF1FEF8823B3
:104A8000C1F0AE014D5F5F4F64E070E0CE01019672
:104A9000B6D68C01892B69F4E981FA818B819C81DE
:104AA00093838283F89469817A818CEE94E002DFAB
:104AB0007894C8010F900F900F900F90DF91CF91D5
:104AC0001F910F910895BBD7049608958F929F92DE
:104AD000AF92BF92CF92DF92EF92FF920F931F930C
:104AE000CF93DF931F921F92CDB7DEB71A82198240
:104AF000BC016F5F7F4F6330710598F0AA24AA94C0
:104B0000BA2CC5010F900F90DF91CF911F910F919B
:104B1000FF90EF90DF90CF90BF90AF909F908F90DD
:104B200008954115510551F3480159018A016C015D
:104B3000CADF8815990511F7E114F104F9F28E0D19
:104B40009F1DA816B906D0F28091EB048823F1F0DE
:104B5000F894B501645071099701AE014F5F5F4F42
:104B6000C8010496E1D65C01892B71F489819A8190
:104B7000F80193838283C601880F991F880F991FBC
:104B8000B80180519B4F96DE7894BBCF87EFA82E5B
:104B9000BB24BA94B6CFAF92BF92CF92DF92EF927E
:104BA000FF920F931F93CF93DF931F921F92CDB766
:104BB000DEB71A821982892B09F047C06115710589
:104BC00009F443C04115510509F43FC021153105D1
:104BD00009F43BC001151105C1F18091EB04882354
:104BE000B9F179016A015B01F894BE016F5F7F4FF3
:104BF0008CEE94E06EDE789489819A81009759F169
:104C0000DC0112966D917C91A8010496A6D68C01C8
:104C1000E981FA81D501ED93FC9382819381049619
:104C2000F601918380834FDFD7018D939C93C80158
:104C30000F900F90DF91CF911F910F91FF90EF9008
:104C4000DF90CF90BF90AF9008950FEF1FEFEFCFA1
:104C500007EF1FEFECCF0EEF1FEFE9CFCF93DF93FE
:104C6000EC01672B71F4F4D68C179D0760F0E7D642
:104C70002496C80FD91FE6D68C0F9D1FDF91CF91C8
:104C80000895E3D6F1CF90E080E0F8CF0F931F9323
:104C9000CF93DF932091EB0421112BC08B01EC010A
:104CA00080EF94E001DE84EF94E0FEDD8CEE94E092
:104CB000FBDD97D00097C1F4CBD670E060E0CEDF8B
:104CC0004FE652E062E070E081D1009769F4809194
:104CD0006F0290917002CED6B801CE0103D5009735
:104CE00019F421E02093EB04DF91CF911F910F91F4
:104CF000089584EF9FEFF8CFA8C6AAC6CF93DF939D
:104D0000AAD6EC01892B11F40ADE36DECE01DF9142
:104D1000CF910895CF93DF939ED6EC01892B09F4B0
:104D2000FEDDCE01DF91CF91089580916F029091C9
:104D300070020895CF93DF938091EB04D0E0C0E040
:104D40008823D1F09CD6EC01892BB1F4E8DD14DE88
:104D500080916F0290917002E7D1E8D2EC01892B2B
:104D600059F480EF94E0D5DD84EF94E0D2DD8CEE51
:104D700094E0CFDD1092EB04CE01DF91CF91089546
:104D8000EF92FF920F931F93CF93DF93EC017A0181
:104D90008B010F5F1F4F0E9DA0010F9D500D1E9D9B
:104DA000500D112470E060E00E94043A90E080E031
:104DB000F0E0E0E02FEFE816F90639F4DF91CF914B
:104DC0001F910F91FF90EF9008951A821982288306
:104DD000309711F0D283C1830196FE01C00FD11F1D
:104DE000EACFCF92DF92EF92FF920F931F93CF9370
:104DF000DF9309E016E00C7F43E050E061E772E0EA
:104E000087E792E01CD481E7E82E82E0F82E97E74E
:104E1000C92E92E0D92EC8E7D6E0D7014D915D9119
:104E20007D01F601619171916F01198308835D83A2
:104E30004C835B834A837F836E839B012F5F3F4F4D
:104E4000249FC001259F900D349F900D11249987B8
:104E500088870115110511F0C80192DF88859985B1
:104E6000080F191F2A96F7E7EF16F2E0FF06A9F6DA
:104E7000EAEFF4E08CE091E0DF019C011D9221500B
:104E80003040E1F71092F9041092F804109297065E
:104E90001092960610929B0610929A06109299060E
:104EA0001092980610929D0610929C0610929F06F2
:104EB00010929E061092A1061092A0061092A506CE
:104EC0001092A4061092A3061092A2061092A706B2
:104ED0001092A6061092A9061092A80610927506C6
:104EE00010927406109277061092760690E080E099
:104EF000DF91CF911F910F91FF90EF90DF90CF90B6
:104F000008950097F1F0F894A7E7B2E0E8E7F6E03B
:104F100030E020E04D915D9148175907A8F042819B
:104F200053814115510581F08AE0829FF001839FF2
:104F3000F00D1124E858F94F80819181009759F4C0
:104F4000789490E080E008952F5F3F4F3A962330A9
:104F5000310501F7F5CFDC0111966D917C917183DC
:104F600060834150510953834283FC012193CF0157
:104F700078940895009749F1DC018E91853041F4D1
:104F8000E0917606F09177063097F9F0CD0119940B
:104F90008530D8F4282F30E0F8948FEF8C938AE096
:104FA000829FF001839FF00D1124E858F94F808112
:104FB000918112969C938E931197B183A0838281E5
:104FC000938101969383828378940895CF92DF92A0
:104FD000EF92FF920F931F93CF93DF939C018DEF7E
:104FE00094E08C7F4115510509F49BC021153105D2
:104FF00009F497C06115710509F493C07A01AB01FA
:10500000B9016D5F7F4F6C7F9B012F5F3F4F249FE6
:105010008001259F100D349F100D1124F8942091CC
:10502000960630919706232B59F420919E063091D5
:105030009F062115310569F12017310708F058C086
:105040002091A0063091A106232B91F420919E0679
:1050500030919F06820F931F2091A8063091A906D8
:105060002115310509F441C02017310708F056C059
:105070007894CFEFDFEF86EF9FEFF701D183C08306
:10508000DF91CF911F910F91FF90EF90DF90CF9024
:105090000895C3E0D0E0C090F804D090F90429E06E
:1050A00031E02C193D092017310710F32AE02C9F1D
:1050B000F0012D9FF00D1124E858F94F9183808362
:1050C00055834483538342837783668311870087A4
:1050D000009709F055DE0C0D1D1D1093F904009387
:1050E000F804789490E080E0C8CFC4E0D0E0D3CF5B
:1050F000C3E0D0E02AE02C9FF0012D9FF00D112499
:10510000E858F94F918380835583448353834283C6
:1051100077836683009729F333DEE3CFC4E0D0E0E2
:10512000E9CF8FEF9FEFACCF9C010397029708F078
:1051300069C0F89484E09AE0482F50E024173507BE
:105140000CF44DC091E08AE0829FF001839FF00D46
:105150001124E858F94F11821082158214821382AB
:105160001282178216829923B1F18091960690914E
:105170009706892BA9F420919E0630919F06211550
:10518000310571F08091F8049091F904821B930B22
:105190009093F9048093F80410929F0610929E0653
:1051A0008091A0069091A106892BA9F42091A806D0
:1051B0003091A9062115310571F08091F804909184
:1051C000F904821B930B9093F9048093F8041092D6
:1051D000A9061092A806789490E080E00895949F24
:1051E000F001959FF00D1124E858F94F408151814D
:1051F000452B31F440855185452B11F481509CCFCE
:1052000090E0A1CF8FEF9FEF08954115510549F12F
:10521000009739F16115710521F1F8942091740618
:1052200030917506232BB9F42091760630917706DC
:10523000232B89F4909375068093740670937706F8
:1052400060937606789425E030E090E080E0FA0103
:1052500031832083089578942FEF3FEF86EF9FEFFF
:10526000F6CF8FEF9FEF0895059769F4F8941092A9
:10527000750610927406109277061092760678944E
:1052800090E080E008958FEF9FEF0895611571051C
:1052900019F4F0E0E0E011C08530910581F4E0916F
:1052A0007406F09175063097A1F3CB01019619951C
:1052B000009779F3FC0185E08193CF0108959C016B
:1052C000235031092230310520F72AE0289FD001F0
:1052D000299FB00D1124A858B94F2D913C911197D9
:1052E000232BB9F216962D913C9117972617370765
:1052F00080F2F89412962D913C9113972115310567
:1053000029F0ED91FC911197309711F47894C1CF69
:105310004181528111965C934E932150310913962D
:105320003C932E93129781937894C7CFE6E0F6E0F2
:105330008EE6DF011D928A95E9F7EAEFF4E08CE052
:1053400091E0DF019C011D9221503040E1F7109265
:10535000F9041092F804E8E7F6E082E3DF011D9219
:105360008A95E9F7E4E7F6E084E0DF011D928A958B
:10537000E9F790E080E00895CF93DF93C0917D023C
:10538000D0917E02CF3FDC0759F423D490937E0264
:1053900080937D0297FF09C0D0937E02C0937D0267
:1053A00084EF9FEFDF91CF91089590E080E0FACFF6
:1053B0008230910528F48093AA0690E080E0089559
:1053C0008FEF9FEF08954F925F926F927F92AF920F
:1053D000BF92CF92DF92EF92FF920F931F93CF93E2
:1053E000DF931F921F92CDB7DEB71A821982009702
:1053F00009F479C06115710509F475C020917D0229
:1054000030917E0207EF1FEF2F3F3F4F09F445C059
:105410006B015C01412C512C3201F12CE12C10E08C
:1054200000E09E012F5F3F4FA6014E195F09B501B5
:105430006E0D7F1D80917D0290917E022ED4892B6E
:1054400009F04BC089819A81009741F4E114F1047D
:1054500029F42091AA06222309F442C0E80EF91E7D
:10546000EC14FD04D0F480E8481684E858068EE178
:105470006806710420F560E070E0CB010E94CD3336
:105480002AE0420E511C611C711C0A3F4FEF1407A9
:1054900021F0043F8FEF1807A1F4C8010F900F907F
:1054A000DF91CF911F910F91FF90EF90DF90CF9000
:1054B000BF90AF907F906F905F904F90089501EFF5
:1054C0001FEF81E090E0013F2FEF120711F090E015
:1054D00080E0892B09F4A5CFE0CF04EF1FEFDDCFEB
:1054E0000AEF1FEFDACF0FEF1FEFD7CF4F925F9288
:1054F0006F927F92AF92BF92CF92DF92EF92FF9224
:105500000F931F93CF93DF931F921F92CDB7DEB7F8
:105510001A821982009709F479C06115710509F49E
:1055200075C020917D0230917E0207EF1FEF2F3F63
:105530003F4F09F445C06B015C01412C512C3201F5
:10554000F12CE12C10E000E09E012F5F3F4FA601FF
:105550004E195F09B5016E0D7F1D80917D029091FE
:105560007E024ED3892B09F04BC089819A81009726
:1055700041F4E114F10429F42091AA06222309F44C
:1055800042C0E80EF91EEC14FD04D0F480E8481681
:1055900086E9580688E96806710420F560E070E045
:1055A000CB010E94CD332AE0420E511C611C711CBC
:1055B0000E3F4FEF140721F0043F8FEF1807A1F4BF
:1055C000C8010F900F90DF91CF911F910F91FF9025
:1055D000EF90DF90CF90BF90AF907F906F905F90F3
:1055E0004F90089502EF1FEF81E090E0023F2FEF10
:1055F000120711F090E080E0892B09F4A5CFE0CFED
:1056000004EF1FEFDDCF0EEF1FEFDACF0FEF1FEF2D
:10561000D7CF80917D0290917E028F3F980749F00D
:10562000D0D2892B49F48FEF9FEF90937E02809325
:105630007D0290E080E0089584EF9FEF0895CF927F
:10564000DF92EF92FF920F931F93CF93DF9321E0AE
:105650004115510509F020E04150510921112CC09C
:10566000DC01FB01D12CC12C21E022C03FEFC31A89
:10567000D30A7D010D911D91E701EA80FB80E016C0
:10568000F106A8F420813181E280F380F182E0828A
:1056900033832283ED90FC9011979D0122503109B4
:1056A000E901F982E88211961C930E9320E032966C
:1056B000C416D506D8F2D2CFDF91CF911F910F91AA
:1056C000FF90EF90DF90CF900895FC01680F791F55
:1056D00090E080E0E617F70709F408952191820F22
:1056E000911DF8CF2091AB06211113C045DE009724
:1056F00091F41092B1061092B0061092AF0610927B
:10570000AE061092AD061092AC0621E02093AB06D7
:10571000089584EF9FEF0895AF92BF92CF92DF92EA
:10572000EF92FF920F931F93CF93DF93009709F4AB
:1057300060C04630510508F45CC02091AB06C7EF4D
:10574000DFEF222309F449C08C01060F171FF8016F
:10575000C080D180C114D10409F44EC096012A5FE3
:105760003F4F4217530708F447C07C018091B006B1
:105770009091B10693838283B6016C5F7F4F58018D
:10578000A60EB71EC801A1DFF5019183808364E0F6
:1057900070E0C80118DEEC01892BF9F481E090E09B
:1057A00007DEB601C80104960EDEEC01892B91F4E8
:1057B00062E070E0C50107DEEC01892B59F4C701F6
:1057C000D9DB8091B0069091B10601969093B10615
:1057D0008093B00690E080E0EBDDCE01DF91CF91C9
:1057E0001F910F91FF90EF90DF90CF90BF90AF90FF
:1057F0000895CFEFDFEFF1CFC9EFDFEFEECF6F927C
:105800007F928F929F92AF92BF92CF92DF92EF9250
:10581000FF920F931F93CF93DF9300D01F92CDB7CA
:10582000DEB7009709F47AC04115510509F476C036
:105830002091AB0607EF1FEF222309F44DC03A0178
:105840007B015C0164E070E0CE0101964FDE8C01CB
:10585000892B09F041C009811A810115110509F44C
:105860005AC0480186E0880E911CB701680D791D69
:1058700080917F029091800209DD6C01009709F40C
:1058800050C0A70170E060E00E94043A89819A81CB
:10589000AB81BC81EC0CFD1CF70181939193A1932A
:1058A000B1937F0181E090E083DDB801C7011EDE86
:1058B000892B31F562E070E0C701800F911F16DE81
:1058C0008C01892BE9F490E080E072DDF501D18252
:1058D000C082F30191828082C8010F900F900F90D7
:1058E0000F90DF91CF911F910F91FF90EF90DF907C
:1058F000CF90BF90AF909F908F907F906F900895C2
:1059000090E080E055DDF50111821082F3011182F3
:105910001082C6012FDB09EF1FEFDECF0FEF1FEF65
:10592000DBCF06EF1FEFD8CF0097A1F0411551054F
:1059300089F02115310571F0F90136966E177F0750
:1059400048F0DC012D933C93DA01ED93FC9390E059
:1059500080E008958FEF9FEF0895AF92BF92CF92AE
:10596000DF92EF92FF920F931F93CF93DF930097F5
:1059700009F45FC04115510509F45BC0653071053C
:1059800008F457C02091AB06C7EFDFEF222391F157
:10599000DC01CD90DC9011971296ED91FC9196016F
:1059A0002A5F3F4FC9EFDFEF2617370719F5C09180
:1059B000AC06D091AD06209749F521E030E0309358
:1059C000AD062093AC067A018C01F093AF06E0930C
:1059D000AE065601B4E0AB0EB11CB50176DE0A0D81
:1059E0001B1DF801208131818217930729F5D7010A
:1059F000CD92DC92CE01DF91CF911F910F91FF905C
:105A0000EF90DF90CF90BF90AF9008952091AE06B9
:105A10003091AF062F5F3F4FCCEFDFEFE217F30778
:105A200090F2CBEFDFEF2E173F0768F2D0E0C0E037
:105A3000CACFCFEFDFEFDECFC3EFDFEFDBCF84E006
:105A400090E0089582E090E008958CEF9FEF089534
:105A500080E290E008951092B1061092B006109284
:105A6000AF061092AE061092AD061092AC0690E012
:105A700080E008959093800280937F020895809142
:105A8000AB06882391F0C5DD009789F41092B1062A
:105A90001092B0061092AF061092AE061092AD06AC
:105AA0001092AC061092AB06089590E080E0089545
:105AB000009749F06115710531F0FC0111821082E7
:105AC000FB01118210820895F3CF26E030E040E818
:105AD00055E260E070E090E080E000C08130910528
