:10000000F8C0000026C1000024C1000022C1000089
:1000100020C100001EC100001CC100001AC1000068
:1000200018C1000016C1000014C1000012C1000078
:1000300010C100000EC100000CC100000AC1000088
:1000400008C1000006C1000004C1000002C1000098
:1000500000C10000FEC00000FCC00000CFC50000D1
:10006000F8C000000C94280E0C94580EF2C000004A
:10007000F0C00000EEC00000ECC00000EAC00000CC
:10008000E8C00000E6C00000E4C00000E2C00000DC
:100090000C94CF0E0C94FF0EDCC00000DAC0000000
:1000A000D8C00000D6C00000D4C00000D2C00000FC
:1000B000D0C00000CEC00000CCC00000CAC000000C
:1000C000C8C00000C6C00000C4C000000C94760F79
:1000D0000C94A60FBEC000000C941D100C944D1083
:1000E000B8C0000000002100240027002A002D00D5
:1000F0003000330001010000040107010A01000083
:100100002200250028002B002E00310034000201BF
:100110000000050108010B01050505050705080894
:100120000808020202020A0A080804040404010181
:100130000101010101010303030303030303040796
:1001400007070C0C0C0C0C0C0C0C0202020206062D
:100150000606060606060B0B0B0B0B0B0B0B010220
:1001600010202008081020401020408002010201C9
:100170000804020101020408102040808040201081
:1001800008040201800402018040201008040201DA
:100190000804020101020408102040800102040842
:1001A0001020408000000A0B02090C0D0E08070306
:1001B000040100000000000000000000000000003A
:1001C000000000000000000000000000000000002F
:1001D00012111000000000000000000000000000EC
:1001E00000000000000000000000C30E6A0F1110A4
:1001F000BA1011241FBECFEFD1E2DEBFCDBF00E0A9
:100200000CBF12E0A0E0B2E0EAE9F2E200E00BBFCE
:1002100002C007900D92A233B107D9F724E0A2E300
:10022000B2E001C01D92AD3CB207E1F710E0C9EFAA
:10023000D0E000E006C021970109802FFE010E9456
:100240003811C53FD10780E00807A9F7A4D20C9464
:100250004B11D6CECF93DF931F921F92CDB7DEB74F
:1002600089836A838A81882321F460E0898175D635
:100270000AC08A81813021F461E089816ED603C091
:1002800062E089816AD600000F900F90DF91CF91D4
:100290000895CF93DF931F921F92CDB7DEB7898366
:1002A0006A838A81882321F061E08981F5D703C0C0
:1002B00060E08981F1D700000F900F90DF91CF911E
:1002C0000895CF93DF9300D000D01F921F92CDB737
:1002D000DEB76D837E838F8398878D819E81AF810A
:1002E000B885BF7720E030E040E859E5BC01CD019A
:1002F00026D388230CF04FC020E030E040E05FE3DD
:100300006D817E818F81988512D48823ACF020E0A6
:1003100030E040E05FE36D817E818F81988598D2E7
:10032000DC01CB01BC01CD013AD3DC01CB018983D7
:100330009A83AB83BC8337C020E030E040E05FEBC2
:100340006D817E818F819885F2D318167CF420E030
:1003500030E0A9016D817E818F819885ECD3DC012D
:10036000CB0189839A83AB83BC831DC020E030E03E
:1003700040E05FE36D817E818F81988568D2DC01EA
:10038000CB01BC01CD01C8D2DC01CB0189839A83AA
:10039000AB83BC8308C08D819E81AF81B885898382
:1003A0009A83AB83BC8389819A81AB81BC81BC0178
:1003B000CD0128960FB6F894DEBF0FBECDBFDF91FA
:1003C000CF910895CF93DF9300D01F921F92CDB7A6
:1003D000DEB78091340290913502A0913602B0913F
:1003E0003702BC01CD016DDFDC01CB018A839B8329
:1003F000AC83BD8320E030E040E853E46A817B8138
:100400008C819D819CD28823ACF420E030E0A9014E
:100410006A817B818C819D818AD388234CF06A819B
:100420007B818C819D818FD2DC01CB01898304C0CB
:10043000198202C08FEF8983698188E22ADF000078
:100440000F900F900F900F900F90DF91CF91089524
:10045000CF93DF93CDB7DEB782E392E0FC01118248
:10046000108249E050E060E070E082EC94E00E948D
:1004700044111092C20481E08093CA0481E090E0AC
:10048000A0E0B0E08093C3049093C404A093C5049B
:10049000B093C60461E088E2DDDE81E08093C704AA
:1004A0000000DF91CF910895CF93DF93CDB7DEB7F2
:1004B0008091C204882319F481E08093C204000073
:1004C000DF91CF910895CF93DF93CDB7DEB726E0CC
:1004D00030E040E855E260E070E080E090E004D079
:1004E0000000DF91CF910895CF93DF9300D000D02B
:1004F00000D01F92CDB7DEB79C838B834D835E8384
:100500006F8378873A8729871092390210923802D0
:1005100089859A859A8389838B819C818130910515
:1005200059F1823091051CF4892B49F082C0823048
:10053000910509F43EC0039709F457C07AC0809131
:1005400038029091390281709927892B09F06AC08D
:1005500080913802909139028160909339028093A2
:10056000380229818D819E81AF81B885AC01BD01A2
:100570008EE492E09FD75DC080913802909139025D
:1005800082709927892B09F04FC080913802909191
:1005900039028260909339028093380229818D81DB
:1005A0009E81AF81B885AC01BD018BEE92E082D710
:1005B00040C0809138029091390284709927892B2C
:1005C000A9F58091380290913902846090933902A4
:1005D0008093380229818D819E81AF81B885AC01DD
:1005E000BD0188E893E066D724C0809138029091DD
:1005F000390288709927892BD9F48091380290911B
:1006000039028860909339028093380229818D8164
:100610009E81AF81B885AC01BD0185E294E04AD7E7
:10062000000007C0000005C0000003C0000001C0BA
:1006300000002A960FB6F894DEBF0FBECDBFDF9143
:10064000CF910895CF93DF93CDB7DEB70000DF9150
:10065000CF910895EF92FF920F931F93CF93DF9363
:1006600000D01F921F92CDB7DEB7198238D3DC01BC
:10067000CB0180933E0290933F02A0934002B0933F
:10068000410220913E0230913F0240914002509140
:10069000410280913A0290913B02A0913C02B091BC
:1006A0003D0279018A01E81AF90A0A0B1B0BD801ED
:1006B000C70180349D40A340B10508F43CC080913F
:1006C0003E0290913F02A0914002B091410280937E
:1006D0003A0290933B02A0933C02B0933D023AD081
:1006E000FED2DC01CB018A839B83AC83BD838091E6
:1006F0003A0290913B02A0913C02B0913D022A81C6
:100700003B814C815D8179018A01E81AF90A0A0B63
:100710001B0BD801C70180349D40A340B10538F0C0
:1007200081E090E0909343028093420204C01092D3
:1007300043021092420281E0898389810F900F90D9
:100740000F900F900F90DF91CF911F910F91FF901D
:10075000EF900895CF93DF93CDB7DEB78091440239
:1007600091E0980F90934402882361F081E090E03B
:10077000909343028093420280914402815080937F
:10078000440206C01FDE80914402815080934402DF
:10079000DF91CF910895CF93DF9300D000D01F92C7
:1007A0001F92CDB7DEB78DEC9CECACE4BEE3898341
:1007B0009A83AB83BC831D821E821F82188610928F
:1007C000CC041092CB04E9D27EDE8091000290919D
:1007D0000102FC01118210823BDEF89433DF80912C
:1007E000000290910102FC018081918121E0892B1E
:1007F00009F020E0822F8093CB04789417C0809179
:10080000000290910102FC018081918121E0892BFD
:1008100009F420E0822F8093CC049091CC0481E0F5
:10082000992309F080E08093CB0414DF8091CB04FE
:10083000882329F739DEF89480E090E028960FB6F7
:10084000F894DEBF0FBECDBFDF91CF910895505811
:10085000BB27AA270ED01AC10BD130F010D120F03F
:1008600031F49F3F11F41EF400C10EF4E095E7FB54
:10087000CDC0E92F1CD180F3BA1762077307840734
:10088000950718F071F49EF54BC10EF4E0950B2E10
:10089000BA2FA02D0B01B90190010C01CA01A001D2
:1008A0001124FF27591B99F0593F50F4503E68F12D
:1008B0001A16F040A22F232F342F4427585FF3CF6E
:1008C000469537952795A795F0405395C9F77EF43F
:1008D0001F16BA0B620B730B840BBAF09150A1F088
:1008E000FF0FBB1F661F771F881FC2F70EC0BA0F0E
:1008F000621F731F841F48F4879577956795B79596
:10090000F7959E3F08F0B3CF9395880F08F099278D
:10091000EE0F979587950895ECD080F09F3740F4BF
:1009200091110EF4FEC060E070E080E89FE308954E
:1009300026F01B16611D711D811D6EC088C042D03E
:1009400008F481E00895BBD088F09F5790F0B92F4C
:100950009927B751A0F0D1F0660F771F881F991F14
:100960001AF0BA95C9F712C0B13081F0D9D0B1E010
:100970000895D6C0672F782F8827B85F39F0B93F20
:10098000CCF3869577956795B395D9F73EF4909516
:100990008095709561957F4F8F4F9F4F0895A9D097
:1009A00080F09F3740F491110EF0BBC060E070E022
:1009B00080E89FEB089526F41B16611D711D811DB3
:1009C0002BC045C0990F0008550FAA0BE0E8FEEFB9
:1009D00016161706E807F907C0F012161306E40703
:1009E000F50798F0621B730B840B950B39F40A26FC
:1009F00061F0232B242B252B21F408950A2609F4DA
:100A0000A140A6958FEF811D811D089597F99F67DD
:100A100080E870E060E00895882371F4772321F086
:100A20009850872B762F07C0662311F499270DC0A5
:100A30009051862B70E060E02AF09A95660F771F40
:100A4000881FDAF7880F9695879597F908959F3F45
:100A500031F0915020F4879577956795B795880F79
:100A6000911D9695879597F908959FEF80EC0895CD
:100A700000240A941616170618060906089500247D
:100A80000A9412161306140605060895092E0394F7
:100A9000000C11F4882352F0BB0F40F4BF2B11F46B
:100AA00060FF04C06F5F7F4F8F4F9F4F089557FDCA
:100AB0009058440F551F59F05F3F71F04795880FCC
:100AC00097FB991F61F09F3F79F087950895121663
:100AD00013061406551FF2CF4695F1DF08C016160F
:100AE00017061806991FF1CF8695710561050894C0
:100AF0000895E5DFA0F0BEE7B91788F4BB279F385B
:100B000060F41616B11D672F782F8827985FF7CFEE
:100B1000869577956795B11D93959639C8F3089595
:100B2000E894BB2766277727CB0197F908954ADF1A
:100B300008F48FEF08950BD0A9CF9ADF28F09FDF3C
:100B400018F0952309F062CF90CF1124EACFAFDFE0
:100B5000A0F3959FD1F3950F50E0551F629FF001D0
:100B6000729FBB27F00DB11D639FAA27F00DB11D29
:100B7000AA1F649F6627B00DA11D661F829F2227B2
:100B8000B00DA11D621F739FB00DA11D621F839F39
:100B9000A00D611D221F749F3327A00D611D231F0F
:100BA000849F600D211D822F762F6A2F11249F575D
:100BB00050408AF0E1F088234AF0EE0FFF1FBB1F80
:100BC000661F771F881F91505040A9F79E3F51051F
:100BD00070F01CCFA6CF5F3FECF3983EDCF3869518
:100BE00077956795B795F795E7959F5FC1F7FE2BCA
:100BF000880F911D9695879597F908951F920F92EA
:100C00000FB60F9211248F939F93AF93BF93CF93FF
:100C1000DF93CDB7DEB72597DEBFCDBF8091490208
:100C200090914A02A0914B02B0914C0289839A8321
:100C3000AB83BC8380914D028D8389819A81AB8186
:100C4000BC810196A11DB11D89839A83AB83BC83AE
:100C50008D818D5F8D838D818D3770F08D818D5766
:100C60008D8389819A81AB81BC810196A11DB11DC3
:100C700089839A83AB83BC838D8180934D02898164
:100C80009A81AB81BC818093490290934A02A093E0
:100C90004B02B0934C028091450290914602A09184
:100CA0004702B09148020196A11DB11D80934502F3
:100CB00090934602A0934702B093480200000F9021
:100CC0000F900F900F900F90DF91CF91BF91AF9148
:100CD0009F918F910F900FBE0F901F901895CF93FB
:100CE000DF9300D000D0CDB7DEB78FE590E0FC01F8
:100CF00080818D83F8948091450290914602A09165
:100D00004702B091480289839A83AB83BC8386E40F
:100D100090E0FC0180818E8385E390E0FC0180817E
:100D2000882F90E081709927892B71F08E818F3FF9
:100D300059F089819A81AB81BC810196A11DB11DB9
:100D400089839A83AB83BC838FE590E02D81FC017E
:100D5000208389819A81AB81BC812227382F492F3A
:100D60005A2F8E81882F90E0A0E0B0E0820F931F71
:100D7000A41FB51F880F991FAA1FBB1F880F991F9B
:100D8000AA1FBB1FBC01CD0126960FB6F894DEBF8B
:100D90000FBECDBFDF91CF910895CF93DF93CDB735
:100DA000DEB7789484E490E0FC01208184E490E054
:100DB0002260FC01208384E490E0FC01208184E433
:100DC00090E02160FC01208385E490E0FC0120811B
:100DD00085E490E02260FC01208385E490E0FC0142
:100DE000208185E490E02160FC0120838EE690E084
:100DF000FC0120818EE690E02160FC01208381E8E7
:100E000090E0FC01108281E890E0FC01208181E803
:100E100090E02260FC01208381E890E0FC012081C9
:100E200081E890E02160FC01208380E890E0FC01F3
:100E3000208180E890E02160FC01208381EB90E03C
:100E4000FC01208181EB90E02460FC01208380EB99
:100E500090E0FC01208180EB90E02160FC01208388
:100E600081E990E0FC01208181E990E02260FC01B1
:100E7000208381E990E0FC01208181E990E02160FC
:100E8000FC01208380E990E0FC01208180E990E072
:100E90002160FC01208381EA90E0FC01208181EA4D
:100EA00090E02260FC01208381EA90E0FC01208137
:100EB00081EA90E02160FC01208380EA90E0FC015F
:100EC000208180EA90E02160FC01208381E291E0B2
:100ED000FC01208181E291E02260FC01208381E21B
:100EE00091E0FC01208181E291E02160FC012083FE
:100EF00080E291E0FC01208180E291E02160FC0130
:100F000020838AE790E0FC0120818AE790E024605A
:100F1000FC0120838AE790E0FC0120818AE790E0D1
:100F20002260FC0120838AE790E0FC0120818AE7AF
:100F300090E02160FC0120838AE790E0FC012081A1
:100F40008AE790E02068FC01208381EC90E0FC01BE
:100F500010820000DF91CF910895CF93DF93CDB73A
:100F6000DEB769970FB6F894DEBF0FBECDBF888F8E
:100F7000698F888D882F90E0825A9E4F9A8389834B
:100F800089819A81FC0184918B838B818C83888DEC
:100F9000882F90E0885E9E4F9E838D838D819E81F9
:100FA000FC0184918F838F8188878885882309F449
:100FB00095C08885882F90E0880F991F8C519F4F8E
:100FC0009A87898789859A85FC0125913491CF017B
:100FD0003C872B879A8789878B859C859E878D8701
:100FE0008885882F90E0880F991F82509F4F988B9B
:100FF0008F878F859889FC0125913491CF013A8B99
:10100000298B988B8F8789899A899C8B8B8B898D6B
:10101000882331F58FE590E0FC0180818F8BF89477
:101020008D859E85FC018081982F8C8180958923F8
:10103000282F8D859E85FC0120838B899C89FC014E
:101040008081982F8C8180958923282F8B899C897A
:10105000FC0120838FE590E02F89FC0120833FC0B5
:10106000898D823021F58FE590E0FC0180818E8BA7
:10107000F8948D859E85FC018081982F8C818095C8
:101080008923282F8D859E85FC0120838B899C894F
:10109000FC0190818C81292F282B8B899C89FC0154
:1010A00020838FE590E02E89FC01208318C08FE516
:1010B00090E0FC0180818D8BF8948D859E85FC01EC
:1010C00090818C81292F282B8D859E85FC01208382
:1010D0008FE590E02D89FC01208301C00000699616
:1010E0000FB6F894DEBF0FBECDBFDF91CF9108954C
:1010F000CF93DF931F92CDB7DEB789838981882F85
:1011000090E0092E000CAA0BBB0B0197A109B109B5
:1011100082319105A105B10508F0B9C0FC0188270D
:10112000EB56F74F8F4F0C943811C508CF08A7081E
:10113000B108BB084709D908E308ED08F708010919
:101140000B0915091F094709290933093D0980E8D9
:1011500090E0FC01208180E890E02F77FC01208363
:1011600096C080E890E0FC01208180E890E02F7D2F
:10117000FC0120838CC080E890E0FC01208180E8A5
:1011800090E0277FFC01208382C084E490E0FC0192
:10119000208184E490E02F77FC01208378C084E4F0
:1011A00090E0FC01208184E490E02F7DFC0120830D
:1011B0006EC080EB90E0FC01208180EB90E02F7707
:1011C000FC01208364C080EB90E0FC01208180EB77
:1011D00090E02F7DFC0120835AC080E990E0FC0163
:1011E000208180E990E02F77FC01208350C080E9C6
:1011F00090E0FC01208180E990E02F7DFC012083BC
:1012000046C080E990E0FC01208180E990E0277FE2
:10121000FC0120833CC080EA90E0FC01208180EA50
:1012200090E02F77FC01208332C080EA90E0FC013F
:10123000208180EA90E02F7DFC01208328C080EA95
:1012400090E0FC01208180EA90E0277FFC01208370
:101250001EC080E291E0FC01208180E291E02F77C6
:10126000FC01208314C080E291E0FC01208180E237
:1012700091E02F7DFC0120830AC080E291E0FC0117
:10128000208180E291E0277FFC01208300000000A4
:101290000F90DF91CF910895CF93DF93CDB7DEB755
:1012A00065970FB6F894DEBF0FBECDBF8C8B6D8BEC
:1012B0008C89882F90E08C559E4F9A8389838981F1
:1012C0009A81FC0184918B838B818C838C89882FFC
:1012D00090E0825A9E4F9E838D838D819E81FC017A
:1012E00084918F838F8188878C89882F90E0885E96
:1012F0009E4F9A87898789859A85FC0184918B877F
:101300008B858C878C85882309F444C08C81882345
:1013100011F08C81EDDE8C85882F90E0880F991F6D
:1013200082509F4F9E878D878D859E85FC012591DC
:101330003491CF01388B2F879E878D878F85988931
:101340009A8B898B8FE590E0FC0180818B8BF894E0
:101350008D89882371F489899A89FC018081982F6D
:10136000888580958923282F89899A89FC01208383
:101370000BC089899A89FC0190818885292F282BA7
:1013800089899A89FC0120838FE590E02B89FC01F3
:10139000208301C0000065960FB6F894DEBF0FBE33
:1013A000CDBFDF91CF910895CF93DF93CDB7DEB757
:1013B000F89481E0DF91CF910895CF93DF931F924E
:1013C0001F92CDB7DEB79A8389838FE590E029819C
:1013D0003A81F9012081FC01208300000F900F90D9
:1013E000DF91CF910895CF93DF9300D0CDB7DEB7D3
:1013F0009B838A838A819B81FC01848D882F90E066
:101400002A813B81820F931F835A9F4FFC01808169
:1014100089838A819B81FC01848D882F90E00196CD
:101420008F739078992324F40197806C9F6F0196B5
:10143000282F8A819B81FC01248F8A819B81FC015A
:10144000868997892981FC0120838A819B81FC01FF
:1014500080899189FC0180818370282F20648A8192
:101460009B81FC0180899189FC0120838A819B8179
:10147000FC01238D8A819B81FC01948D81E02917D9
:1014800009F080E0882379F08A819B81FC018289C0
:101490009389FC0120818A819B81FC018289938947
:1014A0002F7DFC01208300000F900F900F90DF91A3
:1014B000CF910895CF93DF9300D000D000D0CDB767
:1014C000DEB79C838B834D835E836F837887298708
:1014D00080E099E0ADE3B0E02D813E814F815885F9
:1014E000BC01CD01A3D6DA01C9010197A109B10957
:1014F000B695A795979587959A8389838B819C81CB
:10150000FC018089918922E0FC0120838D819E81EC
:10151000AF81B8858115914EA105B10529F089816A
:101520009A8181159041E8F08B819C81FC01808932
:101530009189FC01108280E894E8AEE1B0E02D8151
:101540003E814F815885BC01CD0170D6DA01C901B9
:101550000197A109B109B695A795979587959A83A3
:10156000898389819A81292F33278B819C81FC0172
:1015700084859585FC0120838B819C81FC01868577
:1015800097852981FC0120838B819C81FC01108E31
:101590008B819C81FC01848995892985FC012083AC
:1015A0008B819C81FC0182899389FC0120818B8144
:1015B0009C81FC01828993892061FC0120838B81BD
:1015C0009C81FC0182899389FC0120818B819C8113
:1015D000FC01828993892860FC0120838B819C8196
:1015E000FC0182899389FC0120818B819C81FC0113
:1015F000828993892068FC0120838B819C81FC0176
:1016000082899389FC0120818B819C81FC018289E4
:1016100093892F7DFC012083000029960FB6F89452
:10162000DEBF0FBECDBFDF91CF910895CF93DF9383
:101630001F921F92CDB7DEB79A83898389819A81E1
:10164000FC01818D882F90E09C01205C3F4F8981B7
:101650009A81FC01828D882F90E0A901481B590BCB
:10166000CA018F7399270F900F90DF91CF91089542
:10167000CF93DF931F921F92CDB7DEB79A838983F2
:1016800089819A81FC01218D89819A81FC01928D49
:1016900081E0291709F080E0882319F08FEF9FEF90
:1016A0000FC089819A81FC01828D882F90E0298169
:1016B0003A81820F931F4D96FC018081882F90E024
:1016C0000F900F90DF91CF910895CF93DF9300D0CB
:1016D000CDB7DEB79B838A838A819B81FC01218DF4
:1016E0008A819B81FC01928D81E0291709F080E0BD
:1016F000882319F08FEF9FEF1CC08A819B81FC012A
:10170000828D882F90E02A813B81820F931F4D9616
:10171000FC01808189838A819B81FC01828D8F5F9E
:10172000282F2F738A819B81FC01228F8981882F2A
:1017300090E00F900F900F90DF91CF910895CF938D
:10174000DF9300D01F92CDB7DEB79C838B838B8154
:101750009C81FC01838D89838B819C81FC01848D1C
:101760008A8399818A81981768F08981882F90E00F
:101770002FE330E0281B390B8A81882F90E0820FFD
:10178000931F0BC08A81282F30E08981882F90E039
:10179000A901481B590BCA0101970F900F900F9098
:1017A0000F90DF91CF910895CF93DF931F921F92F7
:1017B000CDB7DEB79A83898389819A81FC01908DA8
:1017C00081E08927882309F04DC089819A81FC0135
:1017D00082899389FC018081882F90E0807299270B
:1017E000892B69F489819A81FC0180899189FC01A6
:1017F0008081882F90E080749927892B11F481E0F3
:1018000001C080E0882379F18FE590E0FC018081C0
:1018100088237CF089819A81FC0182899389FC016B
:101820008081882F90E080729927892B11F081E0C8
:1018300001C080E0882349F289819A81FC01808976
:101840009189FC018081882F90E08072992721E0A6
:10185000892B09F420E0222309F4B7CF89819A81EA
:10186000C2DDB3CF00000F900F90DF91CF910895AC
:10187000CF93DF9300D000D01F921F92CDB7DEB779
:101880009F838E8368878E819F8121E0FC01208F5A
:101890008E819F81FC01238D8E819F81FC01848D2F
:1018A000281779F48E819F81FC0180899189FC0140
:1018B0008081882F90E080729927892B11F081E038
:1018C00001C080E0882359F18FE590E0FC01808120
:1018D0008C836ADD898389818823D9F08E819F81F9
:1018E000FC01868997892885FC0120838E819F8150
:1018F000FC0180899189FC0180818370282F2064FC
:101900008E819F81FC0180899189FC01208319824D
:10191000E2CFCE01049651DD81E090E06EC08E8171
:101920009F81FC01838D882F90E001968F739078C2
:10193000992324F40197806C9F6F01968B838E818D
:101940009F81FC01948D81E02B81291709F080E0B3
:101950008823F9F08FE590E0FC0180818095881F55
:101960008827881F882359F38E819F81FC018089F5
:101970009189FC018081882F90E08072992721E075
:10198000892B09F420E02223D1F28E819F812BDD67
:10199000D6CF8E819F81FC01838D882F90E02E8190
:1019A0003F81820F931F835A9F4F2885FC0120831C
:1019B0008FE590E0FC0180818D83F6DC8A838A814B
:1019C0008823B1F08E819F812B81FC01238F8E8132
:1019D0009F81FC0182899389FC0120818E819F81F6
:1019E000FC01828993892062FC0120831A82E7CF5F
:1019F000CE010596E2DC81E090E028960FB6F894DF
:101A0000DEBF0FBECDBFDF91CF910895CF93DF939F
:101A10001F921F92CDB7DEB79A8389832AE232E004
:101A200089819A81FC013183208389819A81FC011B
:101A30001382128200000F900F90DF91CF910895D2
:101A4000CF93DF931F921F92CDB7DEB79A8389831E
:101A500080E090E00F900F90DF91CF910895CF93A9
:101A6000DF931F921F92CDB7DEB79A838983000060
:101A70000F900F90DF91CF910895CF93DF931F9236
:101A80001F92CDB7DEB79A83898389819A81BEDFA1
:101A900028E132E089819A81FC0131832083298108
:101AA0003A8188EE93E0A0E0B0E0F9018483958369
:101AB000A683B78300000F900F90DF91CF91089518
:101AC000CF92DF92EF92FF920F931F93CF93DF930A
:101AD000CDB7DEB72E970FB6F894DEBF0FBECDBFE1
:101AE0009A8389837C836B835E834D8338872F83BE
:101AF0001A870987FC86EB86DE86CD8689819A81E6
:101B0000BCDF26E032E089819A81FC0131832083A9
:101B100089819A812B813C81FC01358724878981C9
:101B20009A812D813E81FC013787268789819A81A0
:101B30002F813885FC01318B208B89819A81298501
:101B40003A85FC01338B228B89819A812B853C85D8
:101B5000FC01358B248B89819A812D853E85FC0182
:101B6000378B268B89819A81FC01118E89819A811C
:101B7000FC01128E89819A81FC01138E89819A81E0
:101B8000FC01148E00002E960FB6F894DEBF0FBE37
:101B9000CDBFDF91CF911F910F91FF90EF90DF901C
:101BA000CF900895CF93DF9300D01F92CDB7DEB7CB
:101BB0009C838B838B819C81FC0180899189FC01B2
:101BC0008081882F90E08470992721E0892B09F08B
:101BD00020E0222371F18B819C81FC018689978909
:101BE000FC01808189838B819C81FC01818D8F5FC9
:101BF0008F738A838B819C81FC01928D81E02A8185
:101C0000291709F480E08823D9F08B819C81FC019D
:101C1000818D882F90E02B813C81820F931F4D9600
:101C20002981FC0120838B819C812A81FC01218FE9
:101C300007C08B819C81FC0186899789FC0180818A
:101C400000000F900F900F900F90DF91CF910895AB
:101C50001F920F920FB60F9211240BB60F922F9373
:101C60003F934F935F936F937F938F939F93AF9324
:101C7000BF93EF93FF93CF93DF93CDB7DEB78EE49F
:101C800092E090DF0000DF91CF91FF91EF91BF9143
:101C9000AF919F918F917F916F915F914F913F9104
:101CA0002F910F900BBE0F900FBE0F901F901895A5
:101CB0001F920F920FB60F9211240BB60F922F9313
:101CC0003F934F935F936F937F938F939F93AF93C4
:101CD000BF93EF93FF93CF93DF93CDB7DEB78EE43F
:101CE00092E081DB0000DF91CF91FF91EF91BF91F6
:101CF000AF919F918F917F916F915F914F913F91A4
:101D00002F910F900BBE0F900FBE0F901F90189544
:101D1000CF92DF92EF92FF920F931F93CF93DF93B7
:101D200000D01F92CDB7DEB79A8389837C836B8303
:101D300089819A810197C9F48B819C810196A9F4CC
:101D40000F2EF6ECCF2ED12CF02D0F2EF2ECEF2E25
:101D5000F12CF02D01EC10E020EC30E044EC50E0F0
:101D600065EC70E08EE492E0ABDE00000F900F9027
:101D70000F900F90DF91CF911F910F91FF90EF90F7
:101D8000DF90CF900895CF93DF93CDB7DEB76FEF9D
:101D90007FEF81E090E0BCDFDF91CF9108951F924B
:101DA0000F920FB60F9211240BB60F922F933F9301
:101DB0004F935F936F937F938F939F93AF93BF9353
:101DC000EF93FF93CF93DF93CDB7DEB78BEE92E027
:101DD000E9DE0000DF91CF91FF91EF91BF91AF91CC
:101DE0009F918F917F916F915F914F913F912F9133
:101DF0000F900BBE0F900FBE0F901F9018951F9263
:101E00000F920FB60F9211240BB60F922F933F93A0
:101E10004F935F936F937F938F939F93AF93BF93F2
:101E2000EF93FF93CF93DF93CDB7DEB78BEE92E0C6
:101E3000DADA0000DF91CF91FF91EF91BF91AF917E
:101E40009F918F917F916F915F914F913F912F91D2
:101E50000F900BBE0F900FBE0F901F901895CF9252
:101E6000DF92EF92FF920F931F93CF93DF9300D0F7
:101E70001F92CDB7DEB79A8389837C836B83898178
:101E80009A810197C9F48B819C810196A9F40F2E48
:101E9000FEECCF2ED12CF02D0F2EFAECEF2EF12CE4
:101EA000F02D09EC10E028EC30E04CEC50E06DEC4B
:101EB00070E08BEE92E004DE00000F900F900F9028
:101EC0000F90DF91CF911F910F91FF90EF90DF90D6
:101ED000CF900895CF93DF93CDB7DEB76FEF7FEF4D
:101EE00081E090E0BCDFDF91CF9108951F920F92C7
:101EF0000FB60F9211240BB60F922F933F934F936F
:101F00005F936F937F938F939F93AF93BF93EF9361
:101F1000FF93CF93DF93CDB7DEB788E893E042DE3F
:101F20000000DF91CF91FF91EF91BF91AF919F9111
:101F30008F917F916F915F914F913F912F910F9072
:101F40000BBE0F900FBE0F901F9018951F920F920F
:101F50000FB60F9211240BB60F922F933F934F930E
:101F60005F936F937F938F939F93AF93BF93EF9301
:101F7000FF93CF93DF93CDB7DEB788E893E033DAF2
:101F80000000DF91CF91FF91EF91BF91AF919F91B1
:101F90008F917F916F915F914F913F912F910F9012
:101FA0000BBE0F900FBE0F901F901895CF92DF922F
:101FB000EF92FF920F931F93CF93DF9300D01F9266
:101FC000CDB7DEB79A8389837C836B8389819A81BD
:101FD0000197C9F48B819C810196A9F40F2EF6ED2F
:101FE000CF2ED12CF02D0F2EF2EDEF2EF12CF02D67
:101FF00001ED10E020ED30E044ED50E065ED70E0E3
:1020000088E893E05DDD00000F900F900F900F9037
:10201000DF91CF911F910F91FF90EF90DF90CF90C4
:102020000895CF93DF93CDB7DEB76FEF7FEF81E0F9
:1020300090E0BCDFDF91CF9108951F920F920FB611
:102040000F9211240BB60F922F933F934F935F93F0
:102050006F937F938F939F93AF93BF93EF93FF9370
:10206000CF93DF93CDB7DEB785E294E09BDD000030
:10207000DF91CF91FF91EF91BF91AF919F918F91A0
:102080007F916F915F914F913F912F910F900BBE78
:102090000F900FBE0F901F9018951F920F920FB6C2
:1020A0000F9211240BB60F922F933F934F935F9390
:1020B0006F937F938F939F93AF93BF93EF93FF9310
:1020C000CF93DF93CDB7DEB785E294E08CD90000E3
:1020D000DF91CF91FF91EF91BF91AF919F918F9140
:1020E0007F916F915F914F913F912F910F900BBE18
:1020F0000F900FBE0F901F901895CF92DF92EF9226
:10210000FF920F931F93CF93DF9300D01F92CDB711
:10211000DEB79A8389837C836B8389819A81019757
:10212000D9F48B819C810196B9F40F2EF6E3CF2E62
:10213000DD24D394F02D0F2EF2E3EF2EFF24F39441
:10214000F02D01E311E020E331E044E351E065E3E9
:1021500071E085E294E0B4DC00000F900F900F90E6
:102160000F90DF91CF911F910F91FF90EF90DF9033
:10217000CF900895CF93DF93CDB7DEB76FEF7FEFAA
:1021800081E090E0BADFDF91CF910895CF93DF93A4
:1021900000D000D01F921F92CDB7DEB79C838B83F7
:1021A0007E836D8358874F831A8219828F81988529
:1021B0009C012150310938872F8321E0892B09F4B4
:1021C00020E0222319F18B819C81FC018081918187
:1021D000FC01208131818D819E81AC014F5F5F4F79
:1021E0005E834D83FC0140818B819C81642FF901CA
:1021F000199521E0892B09F420E0222331F089810F
:102200009A8101969A838983D1CF000089819A812E
:1022100028960FB6F894DEBF0FBECDBFDF91CF91E9
:102220000895CF93DF93CDB7DEB72AD0A1E21A2E5F
:10223000AA1BBB1BFD010DC0AA1FBB1FEE1FFF1F6A
:10224000A217B307E407F50720F0A21BB30BE40BBA
:10225000F50B661F771F881F991F1A9469F7609501
:102260007095809590959B01AC01BD01CF010895BB
:10227000EE0FFF1F881F8BBF0790F691E02D19947A
:1022800081E090E0F89407C0DC0101C06D934150FB
:0A2290005040E0F70895F894FFCFE6
:10229A00320200000000380CC6109F0BD40B160B3C
:1022AA00650B380B000000001111C610200D2F0D10
:1022BA00111111111111000000001111C610200D89
:0222CA002F0DD6
:00000001FF
