:1000000005C1000033C1000031C100002FC1000054
:100010002DC100002BC1000029C1000027C1000034
:1000200025C1000023C1000021C100001FC1000044
:100030001DC100001BC1000019C1000017C1000054
:1000400015C1000013C1000011C100000FC1000064
:100050000DC100000BC1000009C10000A4C30000D5
:1000600005C100000C94660C0C94960CFFC00000B7
:10007000FDC00000FBC00000F9C00000F7C0000098
:10008000F5C00000F3C00000F1C00000EFC00000A8
:100090000C940D0D0C943D0DE9C00000E7C000006C
:1000A000E5C00000E3C00000E1C00000DFC00000C8
:1000B000DDC00000DBC00000D9C00000D7C00000D8
:1000C000D5C00000D3C00000D1C000000C94B40D16
:1000D0000C94E40DCBC000000C945B0E0C948B0EC2
:1000E000C5C0000000002100240027002A002D00C8
:1000F0003000330001010000040107010A01000083
:100100002200250028002B002E00310034000201BF
:100110000000050108010B0100002000230026005B
:1001200029002C002F00320000010000030106010D
:10013000090105050505070508080808020202026D
:100140000A0A080804040404010101010101010173
:100150000303030303030303040707070C0C0C0C3E
:100160000C0C0C0C02020202060606060606060627
:100170000B0B0B0B0B0B0B0B0102102020080810B4
:100180002040102040800201020108040201010207
:1001900004081020408080402010080402018004E0
:1001A000020180402010080402010804020101023B
:1001B0000408102040800102040810204080000044
:1001C0000A0B02090C0D0E080703040100000000D1
:1001D000000000000000000000000000000000001F
:1001E00000000000000000000000121110000000DC
:1001F00000000000000000000000000000000000FF
:1002000000000000010DA80D4F0EF80E11241FBEB6
:10021000CFEFD1E2DEBFCDBF00E00CBF12E0A0E027
:10022000B2E0E6E1FFE100E00BBF02C007900D92F3
:10023000A633B107D9F724E0A6E3B2E001C01D92CE
:10024000AA3DB207E1F711E0C6E0D1E000E006C048
:1002500021970109802FFE010E94760FC230D1073D
:1002600080E00807A9F71BD20C94890FC9CECF9361
:10027000DF931F921F92CDB7DEB789836A838A818D
:10028000882321F460E089813DD40AC08A818130CD
:1002900021F461E0898136D403C062E0898132D4DF
:1002A00000000F900F90DF91CF910895CF93DF93CF
:1002B0001F921F92CDB7DEB789836A838A81882314
:1002C00021F061E08981BDD503C060E08981B9D5A5
:1002D00000000F900F90DF91CF910895CF93DF939F
:1002E0001F921F92CDB7DEB78A838A8132D60197DB
:1002F00011F481E001C080E0898389810F900F9023
:10030000DF91CF910895CF93DF931F92CDB7DEB7E2
:100310008091C8049091C904A091CA04B091CB0403
:10032000209100023091010240910202509103029B
:10033000BC01CD0110D2882381F080910002909100
:100340000102A0910202B09103028093C80490932D
:10035000C904A093CA04B093CB0488E0BFDF8983AB
:1003600081E09981992309F080E08983698189E09E
:100370009DDF00000F90DF91CF910895CF93DF9321
:10038000CDB7DEB786E392E0FC011182108248E12E
:1003900050E060E070E080EC94E00E94820F1092E8
:1003A000C00481E08093D704809100029091010203
:1003B000A0910202B09103028093C8049093C904F3
:1003C000A093CA04B093CB0481E090E0A0E0B0E039
:1003D0008093C1049093C204A093C304B093C40457
:1003E00060E088E044DF81E08093C5041092CC0493
:1003F00081E08093D60481E090E0A0E0B0E08093BB
:10040000CD049093CE04A093CF04B093D00461E0C8
:1004100089E02DDF81E08093D1040000DF91CF914E
:100420000895CF93DF93CDB7DEB78091C0048823C2
:1004300019F481E08093C0048091CC04882319F4DE
:1004400081E08093CC040000DF91CF910895CF9399
:10045000DF93CDB7DEB740E855E260E070E080E0C2
:1004600090E025D00000DF91CF910895CF93DF93E6
:1004700000D000D0CDB7DEB79A8389834B835C83ED
:100480006D837E838B819C81AD81BE81E981FA8100
:1004900026E0AC01BD01CF014BD6000026960FB679
:1004A000F894DEBF0FBECDBFDF91CF910895CF93FB
:1004B000DF9300D000D0CDB7DEB79A8389834B831A
:1004C0005C836D837E8389819A8181309105B1F04F
:1004D000823091051CF4892B39F02EC082309105B1
:1004E000B9F00397F9F028C08B819C81AD81BE8162
:1004F000AC01BD018CE492E0B9DF1EC08B819C8110
:10050000AD81BE81AC01BD0189EE92E0AFDF14C0C8
:100510008B819C81AD81BE81AC01BD0186E893E0F9
:10052000A5DF0AC08B819C81AD81BE81AC01BD017C
:1005300083E294E09BDF0000000026960FB6F8945B
:10054000DEBF0FBECDBFDF91CF910895CF93DF9374
:10055000CDB7DEB70000DF91CF910895EF92FF9203
:100560000F931F93CF93DF9300D01F921F92CDB7AD
:10057000DEB7198289D1DC01CB0180933C029093D4
:100580003D02A0933E02B0933F0220913C02309185
:100590003D0240913E0250913F028091380290917D
:1005A0003902A0913A02B0913B0279018A01E81A1E
:1005B000F90A0A0B1B0BD801C701803A9648A140E3
:1005C000B10508F43CC080913C0290913D02A0919D
:1005D0003E02B0913F028093380290933902A0937B
:1005E0003A02B0933B023AD04FD1DC01CB018A836F
:1005F0009B83AC83BD838091380290913902A09196
:100600003A02B0913B022A813B814C815D817901A4
:100610008A01E81AF90A0A0B1B0BD801C701803AB4
:100620009648A140B10538F081E090E090934102F6
:100630008093400204C0109241021092400281E077
:10064000898389810F900F900F900F900F90DF9109
:10065000CF911F910F91FF90EF900895CF93DF936B
:10066000CDB7DEB78091420291E0980F909342029D
:10067000882361F081E090E09093410280934002F2
:100680008091420281508093420206C03CDE8091FC
:100690004202815080934202DF91CF910895CF931F
:1006A000DF9300D000D01F921F92CDB7DEB78DEC44
:1006B0009CECACECBDE389839A83AB83BC831D8245
:1006C0001E821F8218861092D9041092D8043AD143
:1006D000BEDE8091040290910502FC01118210821D
:1006E0004DDEF89433DF8091040290910502FC0105
:1006F0008081918121E0892B09F020E0822F809375
:10070000D804789417C08091040290910502FC01EE
:100710008081918121E0892B09F420E0822F809350
:10072000D9049091D90481E0992309F080E0809365
:10073000D80414DF8091D804882329F772DEF89456
:1007400080E090E028960FB6F894DEBF0FBECDBFD4
:10075000DF91CF91089503D008F481E00895990FB7
:100760000008550FAA0BE0E8FEEF16161706E8077B
:10077000F907C0F012161306E407F50798F0621B9C
:10078000730B840B950B39F40A2661F0232B242B71
:10079000252B21F408950A2609F4A140A6958FEF90
:1007A000811D811D08951F920F920FB60F92112483
:1007B0008F939F93AF93BF93CF93DF93CDB7DEB764
:1007C0002597DEBFCDBF8091470290914802A0914E
:1007D0004902B0914A0289839A83AB83BC8380919A
:1007E0004B028D8389819A81AB81BC810196A11DC9
:1007F000B11D89839A83AB83BC838D818D5F8D838B
:100800008D818D3770F08D818D578D8389819A818F
:10081000AB81BC810196A11DB11D89839A83AB83F5
:10082000BC838D8180934B0289819A81AB81BC818D
:100830008093470290934802A0934902B0934A02E2
:100840008091430290914402A0914502B0914602EA
:100850000196A11DB11D8093430290934402A09381
:100860004502B093460200000F900F900F900F903A
:100870000F90DF91CF91BF91AF919F918F910F908A
:100880000FBE0F901F901895CF93DF9300D000D02C
:10089000CDB7DEB78FE590E0FC0180818D83F894C1
:1008A0008091430290914402A0914502B09146028A
:1008B00089839A83AB83BC8386E490E0FC018081CA
:1008C0008E8385E390E0FC018081882F90E0817029
:1008D0009927892B71F08E818F3F59F089819A81F8
:1008E000AB81BC810196A11DB11D89839A83AB8325
:1008F000BC838FE590E02D81FC01208389819A8162
:10090000AB81BC812227382F492F5A2F8E81882F07
:1009100090E0A0E0B0E0820F931FA41FB51F880FE6
:10092000991FAA1FBB1F880F991FAA1FBB1FBC01BD
:10093000CD0126960FB6F894DEBF0FBECDBFDF9176
:10094000CF910895CF93DF93CDB7DEB7789484E449
:1009500090E0FC01208184E490E02260FC0120838F
:1009600084E490E0FC01208184E490E02160FC01BB
:10097000208385E490E0FC01208185E490E0226002
:10098000FC01208385E490E0FC01208185E490E077
:100990002160FC0120838EE690E0FC0120818EE640
:1009A00090E02160FC01208381E890E0FC0110824E
:1009B00081E890E0FC01208181E890E02260FC0168
:1009C000208381E890E0FC01208181E890E02160B3
:1009D000FC01208380E890E0FC01208180E890E029
:1009E0002160FC01208381EB90E0FC01208181EB00
:1009F00090E02460FC01208380EB90E0FC012081EA
:100A000080EB90E02160FC01208381E990E0FC0113
:100A1000208181E990E02260FC01208381E990E05F
:100A2000FC01208181E990E02160FC01208380E9C4
:100A300090E0FC01208180E990E02160FC012083AE
:100A400081EA90E0FC01208181EA90E02260FC01D3
:100A5000208381EA90E0FC01208181EA90E021601E
:100A6000FC01208380EA90E0FC01208180EA90E094
:100A70002160FC01208381E291E0FC01208181E280
:100A800091E02260FC01208381E291E0FC01208161
:100A900081E291E02160FC01208380E291E0FC0191
:100AA000208180E291E02160FC0120838AE790E0D0
:100AB000FC0120818AE790E02460FC0120838AE722
:100AC00090E0FC0120818AE790E02260FC01208315
:100AD0008AE790E0FC0120818AE790E02160FC0138
:100AE00020838AE790E0FC0120818AE790E020687B
:100AF000FC01208381EC90E0FC0110820000DF917A
:100B0000CF910895CF93DF93CDB7DEB769970FB636
:100B1000F894DEBF0FBECDBF888F698F888D882F78
:100B200090E088589E4F9A83898389819A81FC013D
:100B300084918B838B818C83888D882F90E08E5C51
:100B40009E4F9E838D838D819E81FC0184918F8336
:100B50008F8188878885882309F495C08885882FA8
:100B600090E0880F991F8C519F4F9A8789878985BC
:100B70009A85FC0125913491CF013C872B879A8778
:100B800089878B859C859E878D878885882F90E0B7
:100B9000880F991F82509F4F988B8F878F859889D8
:100BA000FC0125913491CF013A8B298B988B8F874B
:100BB00089899A899C8B8B8B898D882331F58FE568
:100BC00090E0FC0180818F8BF8948D859E85FC01DF
:100BD0008081982F8C8180958923282F8D859E85F3
:100BE000FC0120838B899C89FC018081982F8C815A
:100BF00080958923282F8B899C89FC0120838FE590
:100C000090E02F89FC0120833FC0898D823021F53F
:100C10008FE590E0FC0180818E8BF8948D859E8518
:100C2000FC018081982F8C8180958923282F8D85C8
:100C30009E85FC0120838B899C89FC0190818C819D
:100C4000292F282B8B899C89FC0120838FE590E03C
:100C50002E89FC01208318C08FE590E0FC01808183
:100C60008D8BF8948D859E85FC0190818C81292F38
:100C7000282B8D859E85FC0120838FE590E02D89B2
:100C8000FC01208301C0000069960FB6F894DEBF16
:100C90000FBECDBFDF91CF910895CF93DF931F9209
:100CA000CDB7DEB789838981882F90E0092E000CAB
:100CB000AA0BBB0B0197A109B10982319105A105CE
:100CC000B10508F0B9C0FC018827E659F94F8F4FEC
:100CD0000C94760F9A06A4067C06860690061C07DE
:100CE000AE06B806C206CC06D606E006EA06F4064C
:100CF0001C07FE060807120780E890E0FC0120812F
:100D000080E890E02F77FC01208396C080E890E097
:100D1000FC01208180E890E02F7DFC0120838CC0C5
:100D200080E890E0FC01208180E890E0277FFC01D2
:100D3000208382C084E490E0FC01208184E490E080
:100D40002F77FC01208378C084E490E0FC012081AF
:100D500084E490E02F7DFC0120836EC080EB90E066
:100D6000FC01208180EB90E02F77FC01208364C0A0
:100D700080EB90E0FC01208180EB90E02F7DFC0176
:100D800020835AC080E990E0FC01208180E990E056
:100D90002F77FC01208350C080E990E0FC01208186
:100DA00080E990E02F7DFC01208346C080E990E03F
:100DB000FC01208180E990E0277FFC0120833CC07A
:100DC00080EA90E0FC01208180EA90E02F77FC012E
:100DD000208332C080EA90E0FC01208180EA90E02C
:100DE0002F7DFC01208328C080EA90E0FC01208157
:100DF00080EA90E0277FFC0120831EC080E291E022
:100E0000FC01208180E291E02F77FC01208314C057
:100E100080E291E0FC01208180E291E02F7DFC01E5
:100E200020830AC080E291E0FC01208180E291E011
:100E3000277FFC012083000000000F90DF91CF91FD
:100E40000895CF93DF93CDB7DEB765970FB6F894CB
:100E5000DEBF0FBECDBF8C8B6D8B8C89882F90E051
:100E600082549E4F9A83898389819A81FC0184915F
:100E70008B838B818C838C89882F90E088589E4F40
:100E80009E838D838D819E81FC0184918F838F81D0
:100E900088878C89882F90E08E5C9E4F9A878987FF
:100EA00089859A85FC0184918B878B858C878C85BD
:100EB000882309F444C08C81882311F08C81EDDEF5
:100EC0008C85882F90E0880F991F82509F4F9E87B6
:100ED0008D878D859E85FC0125913491CF01388BBE
:100EE0002F879E878D878F8598899A8B898B8FE531
:100EF00090E0FC0180818B8BF8948D89882371F4BC
:100F000089899A89FC018081982F88858095892319
:100F1000282F89899A89FC0120830BC089899A89A5
:100F2000FC0190818885292F282B89899A89FC01C9
:100F300020838FE590E02B89FC01208301C0000015
:100F400065960FB6F894DEBF0FBECDBFDF91CF918F
:100F50000895CF93DF93CDB7DEB761970FB6F894BE
:100F6000DEBF0FBECDBF898B8989882F90E0825468
:100F70009E4F9A83898389819A81FC0184918B8316
:100F80008B818C838989882F90E088589E4F9E831F
:100F90008D838D819E81FC0184918F838F818887D1
:100FA0008989882F90E08E5C9E4F9A8789878985F2
:100FB0009A85FC0184918B878B858C878C8588230F
:100FC00019F480E090E025C08C81882311F08C8199
:100FD00064DE8C85882F90E0880F991F885E9E4F75
:100FE0009E878D878D859E85FC0125913491CF014B
:100FF000388B2F879E878D878F859889FC019081FC
:1010000088858923882319F081E090E002C080E080
:1010100090E061960FB6F894DEBF0FBECDBFDF91B2
:10102000CF910895CF93DF93CDB7DEB7F89481E0E9
:10103000DF91CF910895CF93DF931F921F92CDB789
:10104000DEB79A8389838FE590E029813A81F9019F
:101050002081FC01208300000F900F90DF91CF9141
:101060000895CF93DF9300D0CDB7DEB79B838A83FB
:101070008A819B81FC01848D882F90E02A813B81AD
:10108000820F931F835A9F4FFC01808189838A813D
:101090009B81FC01848D882F90E001968F7390785E
:1010A000992324F40197806C9F6F0196282F8A81E1
:1010B0009B81FC01248F8A819B81FC018689978911
:1010C0002981FC0120838A819B81FC01808991898F
:1010D000FC0180818370282F20648A819B81FC0120
:1010E00080899189FC0120838A819B81FC01238D69
:1010F0008A819B81FC01948D81E0291709F080E0B1
:10110000882379F08A819B81FC0182899389FC0183
:1011100020818A819B81FC01828993892F7DFC013A
:10112000208300000F900F900F90DF91CF910895D2
:10113000CF93DF9300D000D000D0CDB7DEB79C8333
:101140008B834D835E836F837887298780E099E066
:10115000ADE3B0E02D813E814F815885BC01CD01CA
:10116000A3D6DA01C9010197A109B109B695A795DE
:10117000979587959A8389838B819C81FC018089CF
:10118000918922E0FC0120838D819E81AF81B88509
:101190008115914EA105B10529F089819A818115AA
:1011A0009041E8F08B819C81FC0180899189FC0150
:1011B000108280E894E8AEE1B0E02D813E814F815D
:1011C0005885BC01CD0170D6DA01C9010197A1098A
:1011D000B109B695A795979587959A838983898153
:1011E0009A81292F33278B819C81FC0184859585E9
:1011F000FC0120838B819C81FC0186859785298158
:10120000FC0120838B819C81FC01108E8B819C8151
:10121000FC01848995892985FC0120838B819C812F
:10122000FC0182899389FC0120818B819C81FC01D6
:10123000828993892061FC0120838B819C81FC0140
:1012400082899389FC0120818B819C81FC018289A8
:1012500093892860FC0120838B819C81FC01828919
:101260009389FC0120818B819C81FC018289938977
:101270002068FC0120838B819C81FC0182899389F9
:10128000FC0120818B819C81FC01828993892F7DC7
:10129000FC012083000029960FB6F894DEBF0FBE34
:1012A000CDBFDF91CF910895CF93DF931F921F920F
:1012B000CDB7DEB79A83898389819A81FC01818DBC
:1012C000882F90E09C01205C3F4F89819A81FC012E
:1012D000828D882F90E0A901481B590BCA018F739A
:1012E00099270F900F90DF91CF910895CF93DF93BF
:1012F0001F921F92CDB7DEB79A83898389819A8125
:10130000FC01218D89819A81FC01928D81E0291750
:1013100009F080E0882319F08FEF9FEF0FC08981DB
:101320009A81FC01828D882F90E029813A81820F79
:10133000931F4D96FC018081882F90E00F900F90B5
:10134000DF91CF910895CF93DF9300D0CDB7DEB773
:101350009B838A838A819B81FC01218D8A819B8169
:10136000FC01928D81E0291709F080E0882319F0B3
:101370008FEF9FEF1CC08A819B81FC01828D882F9B
:1013800090E02A813B81820F931F4D96FC01808162
:1013900089838A819B81FC01828D8F5F282F2F7327
:1013A0008A819B81FC01228F8981882F90E00F9098
:1013B0000F900F90DF91CF910895CF93DF9300D0DE
:1013C0001F92CDB7DEB79C838B838B819C81FC0100
:1013D000838D89838B819C81FC01848D8A83998193
:1013E0008A81981768F08981882F90E02FE330E098
:1013F000281B390B8A81882F90E0820F931F0BC026
:101400008A81282F30E08981882F90E0A901481B2C
:10141000590BCA0101970F900F900F900F90DF9119
:10142000CF910895CF93DF931F921F92CDB7DEB770
:101430009A83898389819A81FC01908D81E0892733
:10144000882309F04DC089819A81FC0182899389A2
:10145000FC018081882F90E080729927892B69F4A4
:1014600089819A81FC0180899189FC018081882F82
:1014700090E080749927892B11F481E001C080E00D
:10148000882379F18FE590E0FC01808188237CF04E
:1014900089819A81FC0182899389FC018081882F4E
:1014A00090E080729927892B11F081E001C080E0E3
:1014B000882349F289819A81FC0180899189FC0104
:1014C0008081882F90E08072992721E0892B09F490
:1014D00020E0222309F4B7CF89819A81C2DDB3CFFE
:1014E00000000F900F90DF91CF910895CF93DF937D
:1014F00000D000D01F921F92CDB7DEB79F838E839E
:1015000068878E819F8121E0FC01208F8E819F81E1
:10151000FC01238D8E819F81FC01848D281779F435
:101520008E819F81FC0180899189FC018081882FB7
:1015300090E080729927892B11F081E001C080E052
:10154000882359F18FE590E0FC0180818C836ADD6E
:10155000898389818823D9F08E819F81FC018689C6
:1015600097892885FC0120838E819F81FC018089D9
:101570009189FC0180818370282F20648E819F8156
:10158000FC0180899189FC0120831982E2CFCE0180
:10159000049651DD81E090E06EC08E819F81FC0158
:1015A000838D882F90E001968F739078992324F48F
:1015B0000197806C9F6F01968B838E819F81FC01C8
:1015C000948D81E02B81291709F080E08823F9F0C0
:1015D0008FE590E0FC0180818095881F8827881F17
:1015E000882359F38E819F81FC0180899189FC01B8
:1015F0008081882F90E08072992721E0892B09F45F
:1016000020E02223D1F28E819F812BDDD6CF8E81E7
:101610009F81FC01838D882F90E02E813F81820F76
:10162000931F835A9F4F2885FC0120838FE590E00C
:10163000FC0180818D83F6DC8A838A818823B1F066
:101640008E819F812B81FC01238F8E819F81FC01E4
:1016500082899389FC0120818E819F81FC0182898E
:1016600093892062FC0120831A82E7CFCE01059680
:10167000E2DC81E090E028960FB6F894DEBF0FBE62
:10168000CDBFDF91CF910895CF93DF931F921F922B
:10169000CDB7DEB79A8389832EE232E089819A81C1
:1016A000FC013183208389819A81FC01138212829B
:1016B00000000F900F90DF91CF910895CF93DF93AB
:1016C0001F921F92CDB7DEB79A83898380E090E0A6
:1016D0000F900F90DF91CF910895CF93DF931F92DA
:1016E0001F92CDB7DEB79A83898300000F900F90C9
:1016F000DF91CF910895CF93DF931F921F92CDB7C3
:10170000DEB79A83898389819A81BEDF2CE132E03A
:1017100089819A81FC013183208329813A8188EE75
:1017200093E0A0E0B0E0F90184839583A683B783BA
:1017300000000F900F90DF91CF910895CF92DF922C
:10174000EF92FF920F931F93CF93DF93CDB7DEB746
:101750002E970FB6F894DEBF0FBECDBF9A83898354
:101760007C836B835E834D8338872F831A87098739
:10177000FC86EB86DE86CD8689819A81BCDF2AE0F5
:1017800032E089819A81FC013183208389819A81A9
:101790002B813C81FC013587248789819A812D81A9
:1017A0003E81FC013787268789819A812F81388580
:1017B000FC01318B208B89819A8129853A85FC0136
:1017C000338B228B89819A812B853C85FC01358B5B
:1017D000248B89819A812D853E85FC01378B268B50
:1017E00089819A81FC01118E89819A81FC01128E76
:1017F00089819A81FC01138E89819A81FC01148E62
:1018000000002E960FB6F894DEBF0FBECDBFDF915D
:10181000CF911F910F91FF90EF90DF90CF9008959F
:10182000CF93DF9300D01F92CDB7DEB79C838B831D
:101830008B819C81FC0180899189FC018081882FAA
:1018400090E08470992721E0892B09F020E0222381
:1018500071F18B819C81FC0186899789FC018081D3
:1018600089838B819C81FC01818D8F5F8F738A833B
:101870008B819C81FC01928D81E02A81291709F4DA
:1018800080E08823D9F08B819C81FC01818D882F99
:1018900090E02B813C81820F931F4D962981FC01A2
:1018A00020838B819C812A81FC01218F07C08B8141
:1018B0009C81FC0186899789FC01808100000F9042
:1018C0000F900F900F90DF91CF9108951F920F927C
:1018D0000FB60F9211240BB60F922F933F934F9395
:1018E0005F936F937F938F939F93AF93BF93EF9388
:1018F000FF93CF93DF93CDB7DEB78CE492E090DF18
:101900000000DF91CF91FF91EF91BF91AF919F9137
:101910008F917F916F915F914F913F912F910F9098
:101920000BBE0F900FBE0F901F9018951F920F9235
:101930000FB60F9211240BB60F922F933F934F9334
:101940005F936F937F938F939F93AF93BF93EF9327
:10195000FF93CF93DF93CDB7DEB78CE492E081DBCA
:101960000000DF91CF91FF91EF91BF91AF919F91D7
:101970008F917F916F915F914F913F912F910F9038
:101980000BBE0F900FBE0F901F901895CF92DF9255
:10199000EF92FF920F931F93CF93DF9300D01F928C
:1019A000CDB7DEB79A8389837C836B8389819A81E3
:1019B0000197C9F48B819C810196A9F40F2EF6EC56
:1019C000CF2ED12CF02D0F2EF2ECEF2EF12CF02D8E
:1019D00001EC10E020EC30E044EC50E065EC70E00D
:1019E0008CE492E0ABDE00000F900F900F900F9010
:1019F000DF91CF911F910F91FF90EF90DF90CF90EB
:101A00000895CF93DF93CDB7DEB76FEF7FEF81E01F
:101A100090E0BCDFDF91CF9108951F920F920FB637
:101A20000F9211240BB60F922F933F934F935F9316
:101A30006F937F938F939F93AF93BF93EF93FF9396
:101A4000CF93DF93CDB7DEB789EE92E0E9DE0000F9
:101A5000DF91CF91FF91EF91BF91AF919F918F91C6
:101A60007F916F915F914F913F912F910F900BBE9E
:101A70000F900FBE0F901F9018951F920F920FB6E8
:101A80000F9211240BB60F922F933F934F935F93B6
:101A90006F937F938F939F93AF93BF93EF93FF9336
:101AA000CF93DF93CDB7DEB789EE92E0DADA0000AC
:101AB000DF91CF91FF91EF91BF91AF919F918F9166
:101AC0007F916F915F914F913F912F910F900BBE3E
:101AD0000F900FBE0F901F901895CF92DF92EF924C
:101AE000FF920F931F93CF93DF9300D01F92CDB738
:101AF000DEB79A8389837C836B8389819A8101977E
:101B0000C9F48B819C810196A9F40F2EFEECCF2E97
:101B1000D12CF02D0F2EFAECEF2EF12CF02D09EC3C
:101B200010E028EC30E04CEC50E06DEC70E089EE19
:101B300092E004DE00000F900F900F900F90DF9165
:101B4000CF911F910F91FF90EF90DF90CF9008956C
:101B5000CF93DF93CDB7DEB76FEF7FEF81E090E0FB
:101B6000BCDFDF91CF9108951F920F920FB60F92B5
:101B700011240BB60F922F933F934F935F936F9364
:101B80007F938F939F93AF93BF93EF93FF93CF93E5
:101B9000DF93CDB7DEB786E893E042DE0000DF9149
:101BA000CF91FF91EF91BF91AF919F918F917F91D5
:101BB0006F915F914F913F912F910F900BBE0F90BE
:101BC0000FBE0F901F9018951F920F920FB60F9295
:101BD00011240BB60F922F933F934F935F936F9304
:101BE0007F938F939F93AF93BF93EF93FF93CF9385
:101BF000DF93CDB7DEB786E893E033DA0000DF91FC
:101C0000CF91FF91EF91BF91AF919F918F917F9174
:101C10006F915F914F913F912F910F900BBE0F905D
:101C20000FBE0F901F901895CF92DF92EF92FF9208
:101C30000F931F93CF93DF9300D01F92CDB7DEB7E2
:101C40009A8389837C836B8389819A810197C9F404
:101C50008B819C810196A9F40F2EF6EDCF2ED12C0D
:101C6000F02D0F2EF2EDEF2EF12CF02D01ED10E006
:101C700020ED30E044ED50E065ED70E086E893E063
:101C80005DDD00000F900F900F900F90DF91CF91CE
:101C90001F910F91FF90EF90DF90CF900895CF9319
:101CA000DF93CDB7DEB76FEF7FEF81E090E0BCDF71
:101CB000DF91CF9108951F920F920FB60F921124CA
:101CC0000BB60F922F933F934F935F936F937F9336
:101CD0008F939F93AF93BF93EF93FF93CF93DF9334
:101CE000CDB7DEB783E294E09BDD0000DF91CF91BA
:101CF000FF91EF91BF91AF919F918F917F916F91E4
:101D00005F914F913F912F910F900BBE0F900FBE9F
:101D10000F901F9018951F920F920FB60F921124DB
:101D20000BB60F922F933F934F935F936F937F93D5
:101D30008F939F93AF93BF93EF93FF93CF93DF93D3
:101D4000CDB7DEB783E294E08CD90000DF91CF916C
:101D5000FF91EF91BF91AF919F918F917F916F9183
:101D60005F914F913F912F910F900BBE0F900FBE3F
:101D70000F901F901895CF92DF92EF92FF920F93E2
:101D80001F93CF93DF9300D01F92CDB7DEB79A8316
:101D900089837C836B8389819A810197D9F48B81B4
:101DA0009C810196B9F40F2EF6E3CF2EDD24D39457
:101DB000F02D0F2EF2E3EF2EFF24F394F02D01E32C
:101DC00011E020E331E044E351E065E371E083E2B8
:101DD00094E0B4DC00000F900F900F900F90DF9113
:101DE000CF911F910F91FF90EF90DF90CF900895CA
:101DF000CF93DF93CDB7DEB76FEF7FEF81E090E059
:101E0000BADFDF91CF910895CF93DF9300D000D058
:101E10001F921F92CDB7DEB79C838B837E836D8329
:101E200058874F831A8219828F8198859C0121508F
:101E3000310938872F8321E0892B09F420E0222300
:101E400019F18B819C81FC0180819181FC012081B1
:101E500031818D819E81AC014F5F5F4F5E834D83E9
:101E6000FC0140818B819C81642FF901199521E04F
:101E7000892B09F420E0222331F089819A8101968F
:101E80009A838983D1CF000089819A8128960FB6E1
:101E9000F894DEBF0FBECDBFDF91CF910895CF93F1
:101EA000DF93CDB7DEB72AD0A1E21A2EAA1BBB1B47
:101EB000FD010DC0AA1FBB1FEE1FFF1FA217B30716
:101EC000E407F50720F0A21BB30BE40BF50B661F2C
:101ED000771F881F991F1A9469F7609570958095F0
:101EE00090959B01AC01BD01CF010895EE0FFF1F3E
:101EF000881F8BBF0790F691E02D199481E090E048
:101F0000F89407C0DC0101C06D9341505040E0F7E8
:061F10000895F894FFCFD4
:101F1600CDCCCC3D360200000000760A040FDD0968
:101F2600120A5409A3097609000000004F0F040F96
:101F36005E0B6D0B4F0F4F0F4F0F000000004F0F42
:061F4600040F5E0B6D0BA1
:00000001FF
