:1000000005C100000C94BA310C94E5310C94103207
:100010000C943B320C9466320C9491320C94BC32AA
:100020000C94E73224C1000022C1000020C100006E
:100030001EC100001CC100001AC1000018C1000050
:1000400016C1000014C1000012C1000010C1000060
:100050000EC100000CC100000AC100000C94123354
:1000600006C100000C940E370C94443700C1000008
:10007000FEC00000FCC00000FAC00000F8C0000094
:10008000F6C00000F4C00000F2C00000F0C00000A4
:100090000C949A370C94D037EAC00000E8C00000F6
:1000A000E6C00000E4C00000E2C00000E0C00000C4
:1000B000DEC00000DCC00000DAC00000D8C00000D4
:1000C000D6C00000D4C000000C943C2D0C942638FF
:1000D0000C945C38CCC000000C94B2380C94E83816
:1000E000C6C0000000000A0B02090C0D0E08070331
:1000F00004010000000000000000000000000000FB
:1001000000000000000000000000000000000000EF
:1001100012111000000000000000000000000000AC
:100120000000000000000000000001021020200874
:100130000810204010204080020102010804020142
:1001400001020408102040808040201008040201B1
:10015000800402018040201008040201080402010A
:100160000102040810204080010204081020408091
:1001700005050505070508080808020202020A0A23
:100180000808040404040101010101010101030341
:10019000030303030303040707070C0C0C0C0C0CEC
:1001A0000C0C0202020206060606060606060B0BE9
:1001B0000B0B0B0B0B0B000020002300260029006B
:1001C0002C002F003200000100000301060109018C
:1001D00000002200250028002B002E0031003400F2
:1001E00002010000050108010B01000021002400AC
:1001F00027002A002D003000330001010000040117
:1002000007010A016D37F9378538113911241FBEEE
:10021000CFEFD1E2DEBFCDBF00E00CBF13E0A0E026
:10022000B2E0E2E8F3E700E00BBF02C007900D92F6
:10023000A632B107D9F729E0A6E2B3E001C01D92CA
:10024000A33AB207E1F711E0C6E0D1E000E006C052
:1002500021970109802FFE010E948E39C230D107FB
:1002600080E00807A9F70E942E2E0C94BF39C8CE53
:10027000611102C00C9453356130E1F362E0FACFB2
:10028000662319F061E00C948F3560E0FCCF0E948A
:10029000BC3521E0019709F020E0822F0895CF922C
:1002A000DF92EF92FF92CF93882351F16A017B0195
:1002B000CFEFC80F20E030E0A901CB01B6010E94CA
:1002C000362F87FF11C0C701B60190580E94A72F93
:1002D0009B01AC016C2F70E090E080E0CF91FF902B
:1002E000EF90DF90CF90B2C0C701B6010E94A22F5D
:1002F0008C2FCF91FF90EF90DF90CF900C9419341A
:10030000CF91FF90EF90DF90CF9008950F931F93C0
:100310008B019C0183E036952795179507958A9563
:10032000D1F70A5D1C4F462F477021E030E0F901FC
:1003300002C0EE0FFF1F4A95E2F7AF01F8012081DE
:100340002423CB010196211102C090E080E01F918F
:100350000F9108950F931F938B019C0183E03695B5
:100360002795179507958A95D1F7677081E090E0FA
:1003700001C0880F6A95EAF7F801EA5DFC4F208119
:10038000452B31F48095822380831F910F9108952E
:10039000822BFACF2F923F924F925F926F927F9271
:1003A0008F929F92AF92BF92CF92DF92EF92FF9285
:1003B0000F931F93CF93DF93D62EC72E782E692EDF
:1003C00049015A01280161E08D2D0E945335CD2D40
:1003D000DC2D8E010F5F1F4FA8016D2D7C2D872D09
:1003E000962DB8DF20E030E0A901C201B7010E94DC
:1003F000D830181664F4C201B7010E94A72F2B0150
:10040000C501B4010E94A72FA201CE0123D0C801CB
:10041000DF91CF911F910F91FF90EF90DF90CF90E0
:10042000BF90AF909F908F907F906F905F904F9014
:100430003F902F900895882341F08150682F70E0FD
:1004400090E080E050E040E085CF0895862FB9012C
:100450000C9419349C01FC01EC51FF4FE491E150E4
:10046000E231E0F4F0E08827E75CFD4F8F4F0C9419
:100470008E394B02520255026C0281024E029602E4
:10048000A202A602BD02D202E702FE0213034E023E
:1004900028033F03540384B5806884BD60E0822F45
:1004A0000C948F3584B58062F8CF809180008C7F6A
:1004B00082608093800080918100807E8061682BC3
:1004C0006093810050938700409386008091800064
:1004D000806880938000E2CF809180008C7F826072
:1004E0008093800080918100807E8061682B609382
:1004F0008100509387004093860080918000806245
:10050000E8CF809180008C7F826080938000809112
:100510008100807E8061682B60938100509387000A
:1005200040938600809180008860D3CF8091B00096
:1005300080688093B0008091B100887F682B6093C1
:10054000B100ACCF8091B0008062F3CF8091900079
:100550008C7F82608093900080919100807E80618A
:10056000682B609391005093970040939600809180
:10057000900080688093900091CF809190008C7F54
:1005800082608093900080919100807E8061682BD2
:100590006093910050939700409396008091900053
:1005A0008062E8CF809190008C7F82608093900081
:1005B00080919100807E8061682B609391005093C0
:1005C000970040939600809190008860D3CF8091EF
:1005D000A0008C7F82608093A0008091A100807E2B
:1005E0008061682B6093A1005093A7004093A60000
:1005F0008091A00080688093A00050CF8091A000DF
:100600008C7F82608093A0008091A100807E8061B9
:10061000682B6093A1005093A7004093A60080919F
:10062000A0008062E8CF8091A0008C7F82608093E0
:10063000A0008091A100807E8061682B6093A10062
:100640005093A7004093A6008091A0008860D3CF6C
:10065000809120018C7F8260809320018091210114
:10066000807E8061682B6093210150932701409325
:100670002601809120018068809320010FCF809116
:1006800020018C7F82608093200180912101807EF7
:100690008061682B609321015093270140932601CC
:1006A000809120018062E8CF809120018C7F826060
:1006B0008093200180912101807E8061682B60936E
:1006C00021015093270140932601809120018860E9
:1006D000D3CF90E080E008950F931F93009709F423
:1006E00089C06115710509F485C00091540210910B
:1006F000550220915602309157020E3F1F4F2F4F47
:100700003F4F09F068C04FEF5FEFBA0140935402CA
:1007100050935502609356027093570240915402D1
:10072000509155026091560270915702DC01129669
:10073000ED91FC9180819181A281B38180938F049E
:1007400090939004A0939104B09392048481958136
:10075000A681B78180938B0490938C04A0938D0421
:10076000B0938E0480859185A285B385809387049C
:1007700090938804A0938904B0938A048485958516
:10078000A685B7858093830490938404A093850401
:10079000B093860410927F0410928004109281041A
:1007A000109282040E9427118CE491E1909330030F
:1007B00080932F0390933203809331030E9416108D
:1007C000009731F421E030E03093940420939304B7
:1007D0001F910F910895009154021091550220919C
:1007E000560230915702DB010D931D932D933C93DC
:1007F000139794CF8FEF9FEFEBCF8F929F92AF9293
:10080000BF92CF92DF92EF92FF921F93CF93DF932D
:100810004B015C011091960482E090E09093940467
:100820008093930481149104A104B10441F4809154
:100830009604811104C080919504C1E08111C0E04B
:10084000C12CD12C760180919604811106C0809133
:100850009504811102C0CC23D9F083E090E09093FD
:10086000940480939304CC2381F1CCE9DFEF111140
:1008700002C00E94B114CE01DF91CF911F91FF9071
:10088000EF90DF90CF90BF90AF909F908F900895A2
:100890006AE070E080E090E00E94813380E1C80E61
:1008A00087E2D81EE11CF11C8FEF88169806A80677
:1008B000B80631F0C1E08C149D04AE04BF0408F00A
:1008C000C0E080E00E944A10BECFD0E0C0E0CFCFB1
:1008D000CF92DF92EF92FF920F931F93CF93DF930C
:1008E0008F3F910511F008F051C020919304309191
:1008F00094042330310539F020919304309194040D
:100900002130310531F424E030E030939404209319
:1009100093046A017B01EC0182309105A8F011E09B
:10092000AE01C701B6010E941510AB01BC01CE019A
:100930001123F9F0DF91CF911F910F91FF90EF906C
:10094000DF90CF900C94DA168C01000F111F015D1F
:100950001C4FD8018D919C91892B09F30E94E416BC
:100960000297E9F6D801ED91FC91CE011995182F67
:10097000D7CF0E94FC1690E080E0DF91CF911F91CD
:100980000F91FF90EF90DF90CF9008958FEF9FEF42
:10099000F4CF80E00C944A10CF93DF9386E090E090
:1009A00090939404809393040E94A310EC01EFE2CF
:1009B000F3E084E0DF011D928A95E9F70E94491473
:1009C0001092940410929304CE01DF91CF91089578
:1009D00080919504089580917E0408956093540257
:1009E00070935502809356029093570290E080E0F6
:1009F0000895CF92DF92EF92FF9280917D0981500E
:100A00008230E0F080E080937D0980917C09815004
:100A10008230B0F080E080937C0980917B09815026
:100A2000823080F080E080937B0980913B048823B2
:100A300059F0813069F080913C0407C083E0E3CF36
:100A400083E0E9CF83E0EFCF81E080933A0402C0F6
:100A500010923A0480913A0490E0FC01EE0FFF1FDF
:100A6000EE0FFF1FE35CFB4F408151816281738178
:100A700040933204509333046093340470933504EC
:100A8000880F991F880F991FFC01EB5BFB4F80813A
:100A90009181A281B3818093360490933704A0930F
:100AA0003804B09339048FEF80933A048091710930
:100AB00090917209A0917309B091740980933109E2
:100AC00090933209A0933309B0933409C090000287
:100AD000D0900102E0900202F0900302A70196017B
:100AE00060913D0970913E0980913F0990914009C4
:100AF0000E94362F882341F0C0923D09D0923E09D2
:100B0000E0923F09F092400983E0C1DB81112DC0E2
:100B10002091040230910502409106025091070293
:100B200060917109709172098091730990917409B3
:100B30000E94BF2E609371097093720980937309AC
:100B40009093740984E080937D0984E080937B090D
:100B500080917809882339F1813049F190917909A0
:100B600081E0992309F180E01FC0209108023091B3
:100B7000090240910A0250910B0260917109709133
:100B8000720980917309909174090E94BE2E60933E
:100B9000710970937209809373099093740984E0CA
:100BA00080937C09D2CF81E08093770902C01092B4
:100BB0007709209177098091310990913209A091AC
:100BC0003309B09134092223A1F080935D099093F9
:100BD0005E09A0935F09B0936009809177098093C3
:100BE00079098FEF80937709FF90EF90DF90CF9096
:100BF00008958093590990935A09A0935B09B09383
:100C00005C09EBCF84509F4FFC018081918101975B
:100C1000A1F4F90180819181A281B381FB018083DC
:100C20009183A283B383F90184819581A681B781E1
:100C3000FA0180839183A283B3830895CF92DF92D8
:100C4000EF92FF926B017C019F7720E030E040E85B
:100C500059E50E94362F87FF2BC020E030E040E0AE
:100C60005FE3C701B6010E94D83087FD0EC020E0C7
:100C700030E040E05FE3C701B6010E94BF2EFF9065
:100C8000EF90DF90CF900C94103020E030E040E007
:100C90005FEBC701B6010E94D830181684F420E03B
:100CA00030E0A901C701B6010E94DC306B017C0174
:100CB000C701B601FF90EF90DF90CF90089520E03C
:100CC00030E040E05FE3C701B6010E94BE2EFF9016
:100CD000EF90DF90CF900C94232FE091E103F091FF
:100CE000E2038091250990912609A0912709B091EE
:100CF000280980839183A283B38308952F923F9222
:100D00004F925F926F927F928F929F92AF92BF921B
:100D1000CF92DF92EF92FF920F931F93CF93DF93C7
:100D2000CDB7DEB76A970FB6F894DEBF0FBECDBF62
:100D3000A0905104B09052040091540410915504B5
:100D400021E0A216B10409F078C080911E049091B0
:100D50001F04A0912004B0912104409026045090DB
:100D600027046090280470902904C0902204D09039
:100D70002304E0902404F09025048F3FEFEF9E07BA
:100D8000AE07BE0799F5C701B6016F5F7F4F8F4F62
:100D90009F4F0E94D32FA30192010E94DC3020E0DC
:100DA00030E040E85FE40E94DC30609365037093BC
:100DB0006603809367039093680380918409815050
:100DC000823008F44FC080E080938409F1E0AF16D0
:100DD000B10409F0A9C080917709882309F444C0BF
:100DE000813009F445C0809179093FC0BC01CD0133
:100DF0006F5F7F4F8F4F9F4F0E94D32FA3019201B0
:100E00000E94DC3069877A878B879C87C701B6018F
:100E10000E94D32FA30192010E94DC3020E030E039
:100E200040E85FE40E94DC309B01AC0169857A8573
:100E30008B859C850E94BF2EB8CFA114B10409F008
:100E4000BCCFE0919503F09196030190F081E02DE5
:100E500080819181A281B381F80180839183A283F3
:100E6000B383ABCF83E0B0CF81E08093780902C039
:100E70001092780980917809882309F496C08091AE
:100E80005D0990915E09A0915F09B091600980931E
:100E90001D0990931E09A0931F09B09320098FEF9D
:100EA0008093780920911D0930911E0940911F09F6
:100EB00050912009609110027091110280911202EC
:100EC000909113020E94DC306B017C01C0922109D9
:100ED000D0922209E0922309F0922409C0921909C4
:100EE000D0921A09E0921B09F0921C092091140279
:100EF000309115024091160250911702609118022C
:100F00007091190280911A0290911B020E94DC30AC
:100F1000A70196010E94BE2E6093250970932609B1
:100F20008093270990932809D8014D905D906D908A
:100F30007C90809061099090620910916309009102
:100F40006409F0906909E0906A09D0906B09C0903B
:100F50006C09A3019201B401812F902F0E94D83017
:100F60002F2D3E2D4D2D5C2D87FD28C0C301B201D4
:100F70000E94362F18160CF005C42F2D3E2D4D2D36
:100F80005C2DB401812F902F0E94362F87FD1DC04C
:100F900080916D0990916E09A0916F09B0917009CF
:100FA00089879A87AB87BC8729C08091590990911E
:100FB0005A09A0915B09B0915C0969CFB401812FF6
:100FC000902F0E94362F87FF0AC02F2D3E2D4D2DCA
:100FD0005C2DC301B2010E94D8301816CCF280916A
:100FE000650990916609A0916709B09168098987A0
:100FF0009A87AB87BC87F82CE92C68012F2D3E2DF2
:101000004D2D5C2DC301B2010E94BE2E6B017C01EF
:1010100029853A854B855C85609125097091260963
:1010200080912709909128090E94BE2EA701960160
:101030000E943A2F6B017C0191E0A916B104D1F412
:1010400020912509309126094091270950912809BE
:10105000609128027091290280912A0290912B02BE
:101060000E94DC306093290970932A0980932B0930
:1010700090932C092091200230912102409122026C
:1010800050912302C701B6010E94DC30209129094A
:1010900030912A0940912B0950912C090E94BF2EB2
:1010A0006B017C0120918509309186094091870967
:1010B0005091880960912402709125028091260246
:1010C000909127020E94DC309B01AC01C701B60160
:1010D0000E94BF2E4B018C01C0902C02D0902D029B
:1010E000E0902E02F0902F029B01AC01C701B601E7
:1010F0000E94362F87FD12C0C0903002D09031027E
:10110000E0903202F09033029401A801C701B601C9
:101110000E94D830181614F064017801AA94AB2804
:1011200089F48091250990912609A0912709B09111
:101130002809BF7780932D0990932E09A0932F093A
:10114000B0933009E0915B03F0915C038081918161
:10115000019721F08091D6038823E9F020E030E068
:10116000A901C701B6010E94D83018160CF00EC3B1
:1011700020E030E040E450E460912D0970912E09A8
:1011800080912F09909130090E94D83018160CF0E8
:10119000FDC210927A0980917A09813009F41CC34A
:1011A000823009F443C3811123C02CE432E0AE0144
:1011B0004F5F5F4FBE016B5F7F4F85E593E022DDA0
:1011C000E0915B03F0915C0380819181019721F0B4
:1011D0008091D603882361F080918409882309F4E3
:1011E000F8C2833009F0F1C281E090E08093840975
:1011F0008091510490915204019709F040C06D8193
:101200007E818F8198851ADD4B015C0120E030E002
:1012100040E853E40E94362F6FEF87FF0EC020E0B6
:1012200030E0A901C501B4010E94D83060E087FD1B
:1012300004C0C501B4010E94A72F8EE121D86981A5
:101240007A818B819C81FADC4B015C0120E030E0EB
:1012500040E853E40E94362F6FEF87FF0EC020E076
:1012600030E0A901C501B4010E94D83060E087FDDB
:1012700004C0C501B4010E94A72F8FE101D865E029
:1012800070E080E090E042D88C0190935809809300
:101290005709C701B6019F7720913402309135027A
:1012A00040913602509137020E94DC306B017C0184
:1012B00020E030E04FE753E40E94362F18160CF47C
:1012C000DFC220E030E0A901C701B6010E94D8309A
:1012D00087FDDDC2B701A601C8010E944F018091C0
:1012E000510490915204019709F028C3809161093B
:1012F00090916209A0916309B091640989879A87E6
:10130000AB87BC87409091095090920960909309F7
:1013100070909409E0915404F0915504C080D180FC
:10132000E280F380A3019201BC01CD010E94362F1F
:101330008111B1C2C0926109D0926209E092630941
:10134000F0926409E5E6F9E080912509909126097B
:10135000A0912709B091280980839183A283B38348
:1013600060912204709123048091240490912504BB
:101370000E94D32F20E030E040E85FE40E94DC30A0
:101380006B017C0160911E0470911F048091200408
:10139000909121040E94D32F9B01AC01C701B6019B
:1013A0000E94BF2E20E030E0A9010E94BF2E0E94C3
:1013B000A72FAB01BC0190E080E08ADA8091510454
:1013C00090915204019709F0B9C260912E04709176
:1013D0002F0480913004909131040E94D32F20E09B
:1013E00030E040E85FE40E94DC306B017C016091FA
:1013F0002A0470912B0480912C0490912D040E945A
:10140000D32F9B01AC01C701B6010E94BF2E20E083
:1014100030E0A9010E94BF2E0E94A72FAB01BC01A2
:1014200081E090E055DAA0915104B0915204BC8B58
:10143000AB8B119709F082C2E0919503F09196036E
:101440000190F081E02D4080518062807380809116
:10145000650390916603A0916703B09168038D8B3B
:101460009E8BAF8BB88FE0916903F0916A03C080C7
:10147000D180E280F380E0919903F0919A0300819A
:101480001181E0915D03F0915E0320803180A281A3
:10149000B381BA87A987848195819E878D87A6812C
:1014A000B781B88BAF87808591859A8B898BE091C6
:1014B0005B03F0915C031182108284E0F801D1019A
:1014C00001900D928A95E1F7E0919303F0919403D6
:1014D000A985BA85B183A08300DC20E030E040E03C
:1014E0005FE3C701B6010E94DC304B015C01E98576
:1014F000FA8520813181428153810E94DC30D10103
:101500002D913D914D915C910E94BF2EF801608319
:10151000718382839383E0919503F0919603808198
:1015200091819A8F898FA5019401C301B2010E9414
:10153000BF2EA98DBA8D6D937D938D939C93139738
:10154000E0919303F09194038D859E859183808330
:10155000D5DBC3DBAD85BE852D913D914D915C9171
:10156000C501B4010E94DC30F1012081318142814A
:1015700053810E94BF2ED8016D937D938D939C93D0
:101580001397E0919303F09194038F859889918349
:101590008083B4DBA2DBAF85B8892D913D914D915D
:1015A0005C91C701B6010E94DC30F10120813181DC
:1015B000428153810E94BF2ED8016D937D938D93FC
:1015C0009C931397E0919503F09196030190F0811D
:1015D000E02D8D899E89AF89B88D80839183A28308
:1015E000B383E0919303F0919403A989BA89B183FD
:1015F000A08384DB72DBED85FE8560817181828151
:1016000093819B01AC010E94BF2EA985BA852D91C3
:101610003D914D915C910E94BF2E4B015C01EF8585
:10162000F88960817181828193819B01AC010E9464
:10163000BF2E9B01AC01C501B4010E94BF2EA98938
:10164000BA892D913D914D915C910E94BF2E4B0125
:101650005C0120E030E040EC50E4C701B6010E949C
:101660003A2F9B01AC01C501B4010E94DC30F101AD
:1016700020813181428153810E94BF2ED8016D9318
:101680007D938D939C931397E0915B03F0915C03A2
:101690008B899C899183808340911E0450911F0403
:1016A00060912004709121044F5F5F4F6F4F7F4F17
:1016B00040931E0450931F046093200470932104F0
:1016C000411551056105710599F4809122049091AD
:1016D0002304A0912404B09125040196A11DB11DFD
:1016E0008093220490932304A0932404B0932504B0
:1016F0008091650390916603A0916703B0916803A0
:10170000E0915404F091550480839183A283B383C4
:1017100080912A0490912B04A0912C04B0912D0467
:101720000196A11DB11D80932A0490932B04A093D0
:101730002C04B0932D04892B8A2B8B2B99F4809148
:101740002E0490912F04A0913004B09131040196A1
:10175000A11DB11D80932E0490932F04A0933004FB
:10176000B093310480913A04882309F4BAC08130DF
:1017700009F4BBC081E090913C04992309F4B2C004
:1017800080E0B0C0C12CD12C760156CC20E030E0F6
:10179000A901C701B6010E94362F87FF14C020E0BF
:1017A00030E040E450E460912D0970912E09809161
:1017B0002F09909130090E94D830181624F481E046
:1017C00080937A09E8CC82E0FBCF082E000C990BBD
:1017D0000DCD82E090E00ACD24E432E0AE014F5F0F
:1017E0005F4FBE016B5F7F4F85E593E00BDAE091C1
:1017F0005B03F0915C0380819181019729F08091D6
:10180000D603882309F4F4CC80918309882359F006
:10181000833029F481E090E080938309E9CC082E9D
:10182000000C990BF9CF82E090E0F6CF2CE332E088
:10183000AE014F5F5F4FBE016B5F7F4F85E593E069
:10184000E1D9E0915B03F0915C0380819181019784
:1018500029F08091D603882309F4CACC80918209AB
:10186000882359F0833029F481E090E08093820945
:10187000BFCC082E000C990BF9CF82E090E0F6CF98
:10188000C12CD12C5FE7E52E53E4F52E23CDC12CDE
:10189000D12C76011FCD8090690990906A09A090A3
:1018A0006B09B0906C09A5019401C301B2010E94BB
:1018B000362F81110BC0C0926909D0926A09E0925B
:1018C0006B09F0926C09EDE6F9E03ECDA5019401BB
:1018D00069857A858B859C850E94362F87FFEBCFA3
:1018E00029CD81E080933B0402C010923B042091FB
:1018F0003B04822F90E0FC01EE0FFF1FEE0FFF1F55
:10190000E35CFB4F4083518362837383880F991F8D
:10191000880F991FFC01EB5BFB4F80912204909193
:101920002304A0912404B091250480839183A28391
:10193000B38320933C048FEF80933B046A960FB6E9
:10194000F894DEBF0FBECDBFDF91CF911F910F91F5
:10195000FF90EF90DF90CF90BF90AF909F908F90CF
:101960007F906F905F904F903F902F9008954F928F
:101970005F926F927F92AF92BF92CF92DF92EF927F
:10198000FF920F931F93CF93DF9384E090E014D2E4
:10199000E5E5F3E08DE091E0DF01EC011D92219798
:1019A000E9F7C1E5D4E0D783C68384E594E090935A
:1019B00096038093950306E214E0158B048B21EEC9
:1019C00033E037AF26AF4BED53E050939A0340938B
:1019D000990326E134E0309398032093970328E19C
:1019E00034E030939C0320939B032DED33E0309340
:1019F0009E0320939D032FED33E03093A0032093AB
:101A00009F03F093C003E093BF03F583E48321E0D9
:101A100030E0398328832CEF33E068EE73E0D9019E
:101A20006D937C936CEE73E07093FF036093FE0301
:101A300060EF73E0709301046093000464EF73E05F
:101A4000709303046093020468EF73E070930504DD
:101A50006093040465E8C62E69E0D62EEA01D982B7
:101A6000C882318720872DE832E03387228726E538
:101A700034E0DC012D933C9340E050E060E87FEBE4
:101A800040934D0450934E0460934F047093500460
:101A90004FE652E163E87AE3E801488359836A83B9
:101AA0007B8346E054E085E992E6A2E4B3E3EA01F1
:101AB00088839983AA83BB8388E598ECA0E0B1E989
:101AC00080930A0490930B04A0930C04B0930D042C
:101AD00083E890E3AFE0B2EC80930E0490930F04A0
:101AE000A0931004B09311048DE993EDACE2B3EF31
:101AF0008093120490931304A0931404B0931504DC
:101B0000A9E4B3E0B383A283E3E3F3E01196FC938B
:101B1000EE9382E992E09183808362E879E07383B7
:101B200062836CE779E0758364836BE779E07783A0
:101B300066830DE719E011870087738762879587B1
:101B4000848797878687918B808B83E899E0938B36
:101B5000828B84E899E0958B848B8CE194E01596D8
:101B60009C938E93149713965C934E9312971796AB
:101B70003C932E931697EDE1F9E088E1DF011D9289
:101B80008A95E9F784E0E60119928A95E9F7C5E3B9
:101B9000D9E080E5FE0111928A95E9F710921909C2
:101BA00010921A0910921B0910921C09DD24D3947B
:101BB000D0927E0970E0A72E72E0B72EF5018081E9
:101BC0009181A281B38188879987AA87BB87412C9D
:101BD000512C3201439449825A826B827C8260E0AC
:101BE00083E00E943801DD8262E082E00E9453358A
:101BF00043E050E069EF74E080E00E944031CC2483
:101C0000CA94C0927A091C8AD09281094D8A5E8A50
:101C10006F8A788E61E08EE10E943801D98E1C8631
:101C2000D09280094D865E866F86788A61E08FE16A
:101C30000E943801D98A1C8ED0927F094D8E5E8E0B
:101C40006F8E78A2E12CF12C8701A801970165E045
:101C500070E080E090E00E94CA019BA38AA3D9A211
:101C6000F50180AD91ADA2ADB3AD8CAF9DAFAEAF80
:101C7000BFAFC0923A04C0923B0410923C048485EA
:101C80009585A685B7858CA39DA3AEA3BFA3C0925F
:101C90007709C09278098091910990919209A09159
:101CA0009309B09194098CA79DA7AEA7BFA78CAB51
:101CB0009DABAEABBFAB848D958DA68DB78D80935C
:101CC000850990938609A0938709B0938809DF91CD
:101CD000CF911F910F91FF90EF90DF90CF90BF9029
:101CE000AF907F906F905F904F90089580913509ED
:101CF000811103C081E080933509809149098111E8
:101D000003C081E08093490980914109811103C09A
:101D100081E0809341098091510981112EC081E0B9
:101D2000809351098091520990915309A0915409CF
:101D3000B09155090197A105B105F9F480915609B3
:101D40008823D9F065E070E080E090E00E94860191
:101D5000909358098093570940E050E0BA010E94DF
:101D60004F0165E070E080E090E00E948601909372
:101D70005809809357090C941B02089560E070E0A5
:101D800080E89FE7089560E070E080E89FE70895AD
:101D900060E070E080E89FEF089560E070E080E828
:101DA0009FEF089560E070E080EC9FEF089560E0A1
:101DB00070E080EC9FEF0895F5DF609395097093D4
:101DC00096098093970990939809F1DF60938909A8
:101DD00070938A0980938B0990938C09CFDF60936D
:101DE0009109709392098093930990939409CBDFA2
:101DF00060938D0970938E0980938F099093900959
:101E0000C7DF6093990970939A0980939B09909317
:101E10009C09C3DF60939D0970939E0980939F097D
:101E20009093A00908954F925F926F927F928F9244
:101E30009F92AF92BF92CF92DF92EF92FF920F9359
:101E40001F93F89440906E0450906F04609070045B
:101E500070907104C0906204D0906304E0906404B8
:101E6000F09065044130510509F0A4C09B01AC011C
:101E7000241935094609570929013A0100916A04D4
:101E800010916B0420916C0430916D04480159014C
:101E9000840C951CA61CB71C80169106A206B306DE
:101EA000A0F40091660410916704209168043091B9
:101EB00069040F5F1F4F2F4F3F4F0093660410932D
:101EC0006704209368043093690480926A049092B6
:101ED0006B04A0926C04B0926D04009166041091A2
:101EE0006704209168043091690480927204909292
:101EF0007304A0927404B092750400937604109356
:101F00007704209378043093790460936E0470937F
:101F10006F048093700490937104A8EEB3E0A30162
:101F200092010E9496396C0D7D1D8E1D9F1D609340
:101F30006204709363048093640490936504009139
:101F400054021091550220915602309157020F3FD2
:101F50001F4F2F4F3F4FF1F0009154021091550247
:101F600020915602309157020E3F1F4F2F4F3F4F87
:101F700089F0C0905402D0905502E0905602F09043
:101F8000570221E08C149D04AE04BF0408F420E045
:101F900020937E0478941F910F91FF90EF90DF9033
:101FA000CF90BF90AF909F908F907F906F905F90F9
:101FB0004F9008954B015C0184189508A608B70856
:101FC000A3019201261B370B480B590B64157505AD
:101FD00086059705D0F082169306A406B50640F450
:101FE00020E030E0A90181149104A104B10491F42E
:101FF000A8EEB3E00E949639A7019601261B370B85
:10200000480B590BCA01B901C5CF82169306A40625
:10201000B50670F7A8EEB3E0A50194010E949639C9
:102020006C0D7D1D8E1D9F1DB5CFFDCECF93DF9313
:1020300000D01F92CDB7DEB71C821B821A82198294
:1020400010927A0410927B0410927C0410927D040A
:10205000BE016F5F7F4FCE0103960E940C2D6981F8
:102060007A818B819C810E94FA25009761F4BE01E0
:102070006F5F7F4FCE0103960E94182D69817A8190
:102080008B819C812FD50F900F900F900F90DF9137
:10209000CF910895FF920F931F93CF93DF93082F53
:1020A00060E070E0CB010E948133FF24F3940E9432
:1020B000E324EC01892B89F010E0CE3F8FEFD807A5
:1020C00069F0002361F160E070E0CB010E94813390
:1020D00081E090E0892B59F322C011E026D5EC0174
:1020E000892B21F0CE3F8FEFD80759F711111EC071
:1020F00011E0229609F410E00E949324EC01892B50
:1021000021F0CE3F8FEFD807E1F6111111C011E099
:10211000CE3F8FEFD80709F410E001110BC0CE01BC
:10212000DF91CF911F910F91FF90089511E0E4CFBF
:1021300011E0F3CF60E070E0CB010E9481331F25F6
:10214000812F90E0C7CFCF93DF9380917E048823C7
:1021500021F060E070E0CB014DD636D6D0E0C0E093
:10216000892B71F06AE070E080E090E00E9481339A
:1021700081E090DF29D62196C03D27E0D20781F784
:1021800028D60E944E261092960410929504109222
:102190008F04109290041092910410929204109265
:1021A0008B0410928C0410928D0410928E04109265
:1021B0008704109288041092890410928A04109265
:1021C0008304109284041092850410928604109265
:1021D0007F041092800410928104109282044EEFCA
:1021E0005FEF6FEF7FEF409354025093550260937F
:1021F00056027093570210927E04E2E7F4E028E062
:10220000DF011D922A95E9F710926E0410926F0477
:10221000109270041092710410926A0410926B0470
:1022200010926C0410926D04109266041092670470
:102230001092680410926904109262041092630470
:102240001092640410926504DF91CF91089510926A
:10225000A2041092A3041092A4041092A504109258
:10226000A1048091AA049091AB049093A004809360
:102270009F0410929E0410929D0410929904109253
:102280009A0410929B0410929C041092A70410923E
:10229000A60490E080E00895CF92DF92EF92FF9243
:1022A0000F931F93CF938C01019709F055C0209194
:1022B000AA043091AB0480919F049091A0044091B6
:1022C000AA045091AB045093A00440939F04281794
:1022D000390781F010929E0410929D041092990487
:1022E00010929A0410929B0410929C041092A704DE
:1022F0001092A6048091AA049091AB04019761F515
:102300008091A6049091A704892B21F48091580212
:10231000811112C08091A6049091A7040197E1F465
:102320008091990490919A04A0919B04B0919C048F
:102330000197A105B10581F41092990410929A04B5
:1023400010929B0410929C041092580282E090E03C
:102350009093A7048093A6048091AA049091AB0463
:10236000019709F01CC18091C0049091C1048017AD
:10237000910709F014C18091BC049091BD04A09113
:10238000BE04B091BF04009709F409C12091BB04B9
:1023900021110DC04091BC045091BD046091BE0458
:1023A0007091BF04452B462B472B09F4F8C02091B0
:1023B000A6043091A7042230310509F0F0C0209125
:1023C0009D042111ECC0FC01C080D180E280F3802B
:1023D0008091A104882309F4D3C08091AD04909129
:1023E000AE04892B09F4FEC02091AD043091AE04F7
:1023F00081E02230310509F080E02091AD04309178
:10240000AE04C1E02130310549F02091AD04309196
:10241000AE04C1E02230310509F0C0E0882309F4A0
:1024200056C02091B7043091B8044091B90450913E
:10243000BA04C701B6010E94D83087FD14C02091AC
:10244000B7043091B8044091B9045091BA04609136
:10245000A2047091A3048091A4049091A5040E9409
:10246000362F87FD22C02091B7043091B8044091E7
:10247000B9045091BA04C701B6010E94D8301816A9
:1024800034F52091B7043091B8044091B9045091CB
:10249000BA046091A2047091A3048091A404909165
:1024A000A5040E94362F811112C08091AF04909133
:1024B000B004A091B104B091B204892B8A2B8B2B6C
:1024C00019F481E080939E0481E080939D04CC23E5
:1024D00009F456C02091B7043091B8044091B90472
:1024E0005091BA04C701B6010E94362F87FF14C06D
:1024F0002091B7043091B8044091B9045091BA04C6
:102500006091A2047091A3048091A4049091A50409
:102510000E94D83087FF22C02091B7043091B804C0
:102520004091B9045091BA04C701B6010E94362FF8
:10253000811126C02091B7043091B8044091B904AC
:102540005091BA046091A2047091A3048091A404F4
:102550009091A5040E94D830181694F48091AF048D
:102560009091B004A091B104B091B204892B8A2B50
:102570008B2B19F481E080939E0481E080939D046D
:1025800081E090919D04911180E08093A104C0921C
:10259000A204D092A304E092A404F092A504013016
:1025A000110509F067C18091A6049091A704892BB9
:1025B000D9F41092AC0410929D04809158028823A3
:1025C00079F082E090E09093A7048093A6041092A3
:1025D00058022091AA043091AB0481E0232BE9F04A
:1025E00080E01BC081E009CF109258028091AC04BA
:1025F000882349F010929E041092A7041092A6041A
:102600001092AC04EDCF8091AA049091AB04892B79
:10261000E1F080919D0410929D042091A6043091D8
:10262000A7042230310509F45EC088F42115310574
:1026300009F448C02130310509F4F3C010929E041A
:1026400010929D041092AC0438C081E0E6CF233094
:10265000310509F4B1C02430310581F74091990466
:1026600050919A0460919B0470919C04411551050E
:102670006105710561F0415051096109710940938B
:10268000990450939A0460939B0470939C04409126
:10269000990450919A0460919B0470919C04452B7D
:1026A000462B472BD9F42091A8043091A90421305E
:1026B000310509F046C010929E041092A7041092B2
:1026C000A6040CC080915802882341F082E090E07B
:1026D0009093A7048093A604109258021092970436
:1026E00080919E04CEC08823C9F38091AF0490915D
:1026F000B004A091B104B091B204181619061A06DC
:102700001B060CF07DC08091AA049091AB04019748
:1027100009F076C08091AF049091B004A091B1040B
:10272000B091B2048093990490939A04A0939B046F
:10273000B0939C0483E090E09093A7048093A60458
:10274000CDCF4091B3045091B4046091B504709121
:10275000B604452B462B472BA9F010929E0480917E
:10276000B3049091B404A091B504B091B6048093E1
:10277000990490939A04A0939B04B0939C0481E0E5
:1027800090E0DACF882399F08091590290915A0213
:10279000A0915B02B0915C028093990490939A049B
:1027A000A0939B04B0939C0484E090E0C5CF10926A
:1027B0009E0482E090E0C0CF8091990490919A04A9
:1027C000A0919B04B0919C040097A105B10559F01C
:1027D0000197A109B1098093990490939A04A09359
:1027E0009B04B0939C048091990490919A04A091C9
:1027F0009B04B0919C04892B8A2B8B2B09F06ECF04
:102800008091590290915A02A0915B02B0915C02B2
:10281000892B8A2B8B2B09F44ECF81E080939E0469
:10282000B3CF4091990450919A0460919B047091A8
:102830009C04411551056105710561F04150510934
:10284000610971094093990450939A0460939B0421
:1028500070939C044091990450919A0460919B0458
:1028600070919C04452B462B472B09F037CF8111E3
:10287000C7CF9FCF80919704882309F431CF8091EF
:102880009804CF911F910F91FF90EF90DF90CF9020
:1028900008951092A2041092A3041092A40410921E
:1028A000A5041092A1041092A7041092A6041092FD
:1028B000A00410929F041092C1041092C0041092C0
:1028C0009E0410929D041092990410929A04109202
:1028D0009B0410929C0410929804109297041092FA
:1028E000BC041092BD041092BE041092BF0410925A
:1028F000BB041092B7041092B8041092B90410925D
:10290000BA0488EE93E0A0E0B0E08093590290937F
:102910005A02A0935B02B0935C021092B30410922F
:10292000B4041092B5041092B6041092AF04109241
:10293000B0041092B1041092B2041092AE0410923E
:10294000AD0481E0809358021092AC041092AB0465
:102950001092AA041092A9041092A80490E080E0BA
:1029600008958091AA049091AB04892B19F5809168
:102970005802882351F08091AC04811106C081E097
:10298000809398048093970408952091AC0430912B
:10299000580281E090E0332311F090E080E030E0D5
:1029A00082239323892B21F01092980481E0EACFAF
:1029B00010929704089582E090E0FA019183808359
:1029C0008FEF9FEF0895CF93DF93EA01009711F007
:1029D0000E946E271982188290E080E0DF91CF91EB
:1029E0000895DB01009719F48FEF8C9308952EEF73
:1029F0002C93FC013F96EF30F10508F034C0882796
:102A0000EB5FFA4E8F4F0C948E3931152F152D1523
:102A10002B15291525152715231521151F151C15EF
:102A2000181514151A15331580E311968C93089513
:102A300089E2FBCF82E2F9CF11961C92089583E2DE
:102A4000F4CF81E2F2CF81E1F0CF87E2EECF8AE2EC
:102A5000ECCF80E1EACF84E2E8CF88E2E6CF86E2FD
:102A6000E4CF81E3E2CF80E2E0CF8091CE04909189
:102A7000CF0408959093CF048093CE04089580915D
:102A8000CD0408959091CD04892B8093CD040895B1
:102A9000982F90958091CD0489238093CD0408953B
:102AA0008091CC0408958091CA049091CB0408953C
:102AB0006115710559F0FB0130E020E070E060E045
:102AC0002417350719F06115710511F0CB01089530
:102AD000A081B181A817B90709F4BF012F5F3F4F4B
:102AE0003696EECF8091D00481111CC060D266D2A0
:102AF0009093C3048093C2040E947A1F0E948C1F8B
:102B00009093C7048093C6040E94FB230E94022472
:102B10009093C5048093C40481E08093D00490E036
:102B200080E0089584EF9FEF08958F929F92AF9277
:102B3000BF92CF92DF92EF92FF920F931F93CF93AA
:102B4000DF9300D000D000D01F92CDB7DEB71A8639
:102B5000198618861F821E821D821C821B821A8281
:102B600019828091D00407EF1FEF882309F49CC0DD
:102B70008E010D5F1F4F9E012B5F3F4FAE01495FDE
:102B80005F4FBE01675F7F4F90E080E00E947F252E
:102B90008C01009721F00596029708F0DBC029858B
:102BA0003A852115310509F402C1ED80FE804B8183
:102BB0005C81B701640F751F8F8198858617970711
:102BC00008F4F5C0E20EF31ED7019C91903C09F089
:102BD0007FC04230510508F47BC011968C91409122
:102BE000CE045091CF04452B09F49CC0913F08F0CE
:102BF00071C02CE1290F2D3008F48BC02DE2290F74
:102C0000203108F489C0903C21F48150823008F4CE
:102C100083C088E3890F8B3008F481C091EFC92EFF
:102C200094E1D92EEBEDF4E16D817E81AE014F5F31
:102C30005F4F89859A8519955C01C114D104A1F172
:102C400089809A808114910479F18B819C81881507
:102C5000990508F487C010E000E04B815C8170E0CA
:102C600060E0C7010E94B83901151105E9F44981F6
:102C70005A8169857A858D819E81680F791FC5018A
:102C8000F6011995E980FA800D811E812F81388522
:102C900049855A856FEF7FEF81E090E00E941A2509
:102CA0008C01892B09F056C0C8012A960FB6F894FA
:102CB000DEBF0FBECDBFDF91CF911F910F91FF906F
:102CC000EF90DF90CF90BF90AF909F908F9008953E
:102CD00080E085CF30E020E0220F331FF901EE5372
:102CE000FB4F0190F081E02D309709F497CF892FA9
:102CF00090E01995009709F491CFDC011296ED91BF
:102D0000FC9113971496CD90DC90309709F08CCFFE
:102D10001FC021E030E0E0CF22E030E0DDCF23E053
:102D200030E0DACFD12CC12CE3EEF4E19F3F09F083
:102D30007BCFE091C204F091C304309721F4C90124
:102D400004EF1FEF0CC08FEF90E019950097A9F6E4
:102D500004EF1FEF89859A85009709F4A5CF0E949B
:102D60006E27A2CF0E9449268C0189859A850E94F0
:102D70006E2770E060E0C4010E94E22598878F838F
:102D80000E9417259E838D836F817885611571055B
:102D900059F0C8010E94FA289A87898706EF1FEF29
:102DA000892B09F058CF59CF08EF1FEF56CF08EF06
:102DB0001FEFD0CF2091D004222319F020E00C94F3
:102DC000911F87EF9FEF08958091CE049091CF04DB
:102DD00008950E9407240E946123F5D0E2ECF4E0FC
:102DE00088E0DF011D928A95E9F71092D00490E007
:102DF00080E008950C94BF2121E040E050E0BA014A
:102E00000C94911F86E090E0FA019183808390E01A
:102E100080E0089547E050E065E972E049CEDF9236
:102E2000EF92FF920F931F93CF93DF938A01EC01F0
:102E3000C60FD71FE090D404F090D504D9800E942B
:102E40003126D816190678F082E090E0F8019183D7
:102E500080838EEF9FEFDF91CF911F910F91FF90B5
:102E6000EF90DF900895EF2841F482E090E0F801C0
:102E70009183808384EF9FEFEECF89818093D30489
:102E800090E00196F8019183808390E080E0E3CFA9
:102E9000CF93DF93EA010E947022882321F00E94E1
:102EA0003E260E94712282E090E0998388838BEF16
:102EB0009FEFDF91CF910895CF93DF93EB0186E0F1
:102EC000FB0111928A95E9F78FEF8883D8DD89831A
:102ED000E7DD8A83E8DD9D838C83DF91CF910895C0
:102EE000CF93DF93EA010E947322811109C082E02F
:102EF00090E09983888385EF9FEFDF91CF910895CC
:102F000090E080E0B7DD81E090E09983888390E0F5
:102F100080E0F3CF0F931F93CF93DF93EA018C01EF
:102F2000060F171F0E94732281110BC082E090E0F0
:102F30009983888385EF9FEFDF91CF911F910F9148
:102F40000895F8018181823038F082E090E0998321
:102F500088838EEF9FEFF0CF81E090E08BDD88E0FB
:102F600090E09983888390E080E0E6CFCF93DF9371
:102F70000097D1F4EB01FB01329686E0DF011D9250
:102F80008A95E9F78FEF888385E089831A820E940A
:102F900031268B830E9430269D838C8381E08E8333
:102FA0008F83DF91CF910895DF91CF911ACD8AE081
:102FB00097E19093D2048093D10408958091D10435
:102FC0009091D20408951092D2041092D1040895E1
:102FD0008091D4049091D5040895411105C06115E4
:102FE00071058105910561F06093D4047093D50457
:102FF0008093D6049093D7044093D80481E0089539
:1030000080E00895FF920F931F93CF93DF938A017F
:10301000EC01C60FD71FF9800E943126F816190659
:1030200068F082E090E0F801918380838EEF9FEF5B
:10303000DF91CF911F910F91FF9008956C817D8159
:103040008E819F814B81C9DF811108C082E090E0B1
:10305000F8019183808384EF9FEFEACF8981809389
:10306000D30490E00196F8019183808390E080E0A2
:10307000DFCFCF93DF93EA01FC01E60FF71F6481F6
:103080007581868197814381A8DF811109C082E023
:1030900090E09983888384EF9FEFDF91CF9108952B
:1030A00081E090E09983888390E080E0F6CFE4EDC2
:1030B000F4E04081518162817381480F511D611D8F
:1030C000711D40835183628373830895CF93C091B0
:1030D000D3044C2F50E06091D4047091D504019634
:1030E0000E94AF398C2FE3DF1092D304CF91089563
:1030F000009799F48091D4049091D5042FEFFB01AF
:103100002083892B59F02091D30430E02F5F3F4F6B
:103110002417350719F4CB01D9CF63CC0895009754
:1031200099F48091D4049091D5042FEFFB01208372
:10313000892B59F02091D30430E02F5F3F4F2417A3
:10314000350719F4CB01C2CF4CCC089523E1AC0173
:10315000249FC001259F900D1124E091DD04F09182
:10316000DE04E80FF91F238134812250310981E008
:103170002230310508F080E008950F931F93CF931C
:10318000DF930091DF041091E004D0E0C0E080E024
:103190000C171D0749F491E0811190E0892FDF9110
:1031A000CF911F910F9108958111F5CFCE01CEDF00
:1031B0002196EECFA091DD04B091DE04109729F1A5
:1031C0002091DF043091E00482179307F0F453E17B
:1031D000589F9001599F300D1124A20FB31FED91FC
:1031E000FC911197309789F012968C91681768F4CA
:1031F0008BE0689FE00DF11D112480819181892B66
:1032000021F081E09281491708F080E008959C0147
:1032100043E1429FC001439F900D1124E091DD04E2
:10322000F091DE04E80FF91F8385823091F481E08C
:1032300090E06581768140915D0250915E02641755
:10324000750711F490E080E0892B19F081E0232BC1
:1032500009F080E00895EF92FF920F931F93CF93B0
:10326000DF93EA01FC01E60FF71F02811381E4807E
:10327000F5804F2D6E2DC8019DDF81110DC082E0BC
:1032800090E0998388838EEF9FEFDF91CF911F911C
:103290000F91FF90EF900895C80158DF882339F00F
:1032A00082E090E09983888388EF9FEFEECF1093C0
:1032B000640200936302E0926502F092660281E08C
:1032C00090E09983888390E080E0DFCFCF92DF9217
:1032D000EF92FF920F931F93CF93DF937A01EC014C
:1032E000C60FD71FC0906302D090640200916502A0
:1032F00010916602412F602FC6015CDF811110C062
:1033000082E090E0F701918380838AEF9FEFDF9165
:10331000CF911F910F91FF90EF90DF90CF90089584
:10332000C60114DF882341F082E090E0F701918329
:10333000808388EF9FEFEBCF4C815D816E817F8131
:103340009A8189818F3F41F082E090E0F70191837B
:1033500080838EEF9FEFDBCFE3E1EC9D9001ED9D4D
:10336000300D1124E091DD04F091DE04E20FF31F33
:103370000190F081E02D2BE0029FE00DF11D112462
:103380000190F081E02D27E0129FE00DF11D112446
:10339000808391838B818283438354836583768387
:1033A0001F5F1093660281E090E0F70191838083B4
:1033B00090E080E0ACCFEF92FF920F931F93CF93FA
:1033C000DF937A018C01060F171FC091DD04D091A5
:1033D000DE04209781F021E030E0F80182819381C2
:1033E0004091DF045091E0048417950710F030E01D
:1033F00020E0232B71F482E090E0F7019183808339
:103400008EEF9FEFDF91CF911F910F91FF90EF9083
:10341000089543E1489F9001499F300D1124C20F48
:10342000D31F94DE882341F082E090E0F70191837E
:10343000808388EF9FEFE6CFF80124813581203823
:103440003105C8F687818111D6CF4181842F90E064
:103450008F7E009741F082E090E0F70191838083B6
:1034600086EF9FEFCFCF4F833E832D832681288722
:103470001986223010F421E0288721E030E0F7019E
:1034800031832083BFCF88E090E0FA01918380836D
:1034900090E080E00895FB018FEF808381E18183DC
:1034A0008FEF9FEF9383828380E890E095838483FE
:1034B000168217820895FB018FEF808391E091833C
:1034C00082839383848384E3858381E090E0978380
:1034D00086830895DF92EF92FF920F931F93CF930D
:1034E000DF93EA01FC01E60FF71F8181813071F063
:1034F00082E090E0998388838FEF9FEFDF91CF91F7
:103500001F910F91FF90EF90DF900895828193813A
:10351000D4802581E680F7800091DD041091DE04DF
:103520000115110539F482E090E0998388838CEFCE
:103530009FEFE4CF4091DF045091E004841795079A
:1035400038F082E090E0998388838EEF9FEFD6CFAA
:10355000892B39F082E090E09983888386EF9FEF92
:10356000CDCF8D2D8D7FB1F72130A1F781E0D11026
:1035700006C091E0E916F10431F080E004C0E2E019
:10358000EE16F104D0F3882329F390E080E0DEDD2D
:10359000882339F082E090E09983888388EF9FEF59
:1035A000ADCFF801D38681E08487F686E586108A60
:1035B000178681E090E09983888390E080E09ECF39
:1035C0004CE050E06FEB72E073CA8F929F92BF9213
:1035D000CF92DF92EF92FF920F931F93CF93DF93DF
:1035E000EA01FC01E60FF71F828193810481B58017
:1035F000E091DD04F091DE04309791F482E090E0F8
:10360000998388838CEF9FEFDF91CF911F910F916A
:10361000FF90EF90DF90CF90BF909F908F90089594
:103620002091DF043091E0048217930738F082E0A4
:1036300090E0998388838EEF9FEFE6CF23E1289F68
:103640006001299FD00C1124EC0DFD1DE080F1805C
:10365000E114F10499F28281081748F78BE0089F82
:1036600080011124E00EF11EF70180819181892BE8
:1036700029F6BB20E1F2F7E0BF9E40011124C4010E
:103680000E943527F70191838083E091DD04F0915A
:10369000DE04EC0DFD1D0190F081E02DE00FF11F27
:1036A00080819181009739F482E090E0998388834A
:1036B0008DEF9FEFA9CFA40170E060E00E94B839C0
:1036C0008091DD049091DE04C80ED91EF601808140
:1036D0009181080F191FF801B28281E090E099836F
:1036E000888390E080E090CFAF92BF92CF92DF923C
:1036F000FF920F931F93CF93DF93EA01FC01E60F34
:10370000F71F82819381F4800091DD041091DE0423
:103710000115110581F482E090E0998388838CEF94
:103720009FEFDF91CF911F910F91FF90DF90CF908E
:10373000BF90AF9008952091DF043091E00482178C
:10374000930738F082E090E0998388838EEF9FEFB3
:10375000E8CF2FEF2F0D2C3FA8F723E1289F600122
:10376000299FD00C11240C0D1D1DF8018081918121
:10377000892B89F6FBE0FF9E50011124C5010E94B0
:103780003527F80191838083E091DD04F091DE0418
:10379000EC0DFD1D80819181009739F482E090E06D
:1037A000998388838DEF9FEFBCCFA50170E060E027
:1037B0000E94B839E091DD04F091DE04EC0DFD1DAE
:1037C000F28281E090E09983888390E080E0A9CF45
:1037D000CF92DF92EF92FF920F931F93CF93DF93DD
:1037E000860F971FFC01028113818091DD04909167
:1037F000DE04892B81F082E090E0FA0191838083DE
:103800008CEF9FEFDF91CF911F910F91FF90EF9081
:10381000DF90CF900895C801B0E0A0E00197A10922
:10382000B1098F3F9F4FA105B10540F082E090E0C4
:10383000FA01918380838EEF9FEFE4CF7A0183E1D9
:10384000809F6001819FD00C1124C6010E94352702
:10385000EC01009741F482E090E0F70191838083CE
:103860008DEF9FEFCFCFA60170E060E00E94B839E6
:10387000D093DE04C093DD041093E0040093DF04D2
:1038800090E080E02FEF3FEF41E061E070E08017D3
:10389000910741F481E090E0F7019183808390E00B
:1038A00080E0B0CF3A8B298B1B864C877E876D8753
:1038B000188A1F8601966396EACFCF92DF92EF9225
:1038C000FF920F931F93CF93DF93EC01D12CC12C68
:1038D00010E000E0F12CE12C6A816017110609F07C
:1038E000CCF483E0689FB0011124AE014F5E5F4FBE
:1038F000C7010E949A27009721F02FEF3FEF3A8BE4
:10390000298BDF91CF911F910F91FF90EF90DF9066
:10391000CF900895E881F981EC0DFD1D438154811C
:103920008D859E85489F9001499F300D589F300D91
:103930001124C90101960115110519F44F8144FDA7
:10394000049661E070E00E94E225E816F90608F4AA
:103950007C010F5F1F4F8BE0C80ED11CBDCFF894C8
:103960002091DB043091DC0481E02115310509F060
:1039700080E0232B09F0789408952F923F924F9284
:103980005F926F927F928F929F92AF92BF92CF92EF
:10399000DF92EF92FF920F931F93CF93DF933C013F
:1039A000660E771EF301828193814C01B12CA12C0C
:1039B000C091DD04D091DE04209769F021E030E071
:1039C0006091DF047091E0048617970710F030E0F3
:1039D00020E0232BD1F482E090E0FA0191838083F0
:1039E0008EEF9FEFDF91CF911F910F91FF90EF909E
:1039F000DF90CF90BF90AF909F908F907F906F900F
:103A00005F904F903F902F90089580926702909220
:103A10006802A0926902B0926A0263E1689F900115
:103A2000699F300D1124C20FD31FF30181818330B0
:103A300040F082E090E0FA019183808386EF9FEF6F
:103A4000D1CF2A012B813C81232BF1F428813981AC
:103A50009F8191FF2EC0232B09F46FC02091E204B7
:103A60009A81422F490F5527551FBA0141E050E076
:103A70006138710514F050E040E0452B09F45DC059
:103A80002A87920F9093E2048150823008F481C01B
:103A900066DF882309F4D8C0F3018181813009F4FD
:103AA0008DC008F47BC0823009F4C6C090E080E08D
:103AB000ADC0232B09F441C02091E1049A81E22F8B
:103AC000E90FFF27FF1F41E050E0ED3FF10514F043
:103AD00050E040E0452B89F12A87920F9093E10452
:103AE000D3CFA081B181A20FB31F11966C91060FA5
:103AF000111D0196295F3F4F8417950794F38D851B
:103B00009E85089F1001099F300C189F300C1124CE
:103B1000C114D104D1F48F8184FF17C00E943026D4
:103B2000F5E02F0E311C21E08215930508F420E00A
:103B3000A701455F5F4F21110EC082E090E0F201C6
:103B40009183808387EF9FEF4DCF0E9430262FEF28
:103B5000221A320AE8CF88819981E80EF91EF7010E
:103B600014830383FFEFCF1ADF0A7A018A818C1551
:103B70001D0409F00CF48CCFE881F981EE0DFF1DD6
:103B8000428150E030E020E010E000E090E080E092
:103B9000B3CFF12CE12CD12CC12CE8CF81E090E007
:103BA0009C838B83EADA882309F480CF81E090E05C
:103BB0000E943A1580E40E94481578CF89899A8935
:103BC000019661F083E090E09C838B8382E090E03B
:103BD0000E943A1580E40E94421568CF8D819E8133
:103BE00020915D0230915E0282179307D1F46091BB
:103BF000610270916202AE014F5E5F4F80915F0281
:103C0000909160020E94B9280097E1F2789422E036
:103C100030E0F20131832083892B99F08DEF9FEF03
:103C2000E1CE89288A288B2869F6039758F6CE01B9
:103C300044DE188A1F86E8CF82E090E09C838B8365
:103C400035CF90E080E0CECE82E090E0F20191832B
:103C5000808385EF9FEFC6CE8F929F92AF92BF92E7
:103C6000CF92DF92EF92FF920F931F93CF93DF9348
:103C7000EA018C01060F171FF8018181833098F04B
:103C800082E090E09983888386EF9FEFDF91CF9168
:103C90001F910F91FF90EF90DF90CF90BF90AF906A
:103CA0009F908F9008958091DD049091DE04892B80
:103CB00061F081E090E02091DF043091E004232B5B
:103CC00011F490E080E0892B39F482E090E0998350
:103CD00088838EEF9FEFDACF42DE882309F4E0C0BD
:103CE000F8018181813009F496C0E8F0823099F4BE
:103CF0002091DF043091E004E091DD04F091DE04D6
:103D000090E080E041E050E02817390709F0BEC09C
:103D100034DA811117C0789481E090E09983888328
:103D200090E080E0B3CF2091DF043091E004E09197
:103D3000DD04F091DE0490E080E041E050E02817DF
:103D4000390741F481E090E00E943A1580E40E9436
:103D50004815E1CF63817481672B11F0548343834D
:103D600001967396ECCFE091DD04F091DE04E00F54
:103D7000F11F2381348122303105D9F42189328920
:103D80002F3F3F4FB1F42581368140915D02509124
:103D90005E022417350761F5AF014F5E5F4F6091FA
:103DA00061027091620280915F02909160020E94B4
:103DB000B928EFEFCE1ADE0AEE0AFE0A0D5E1F4F9B
:103DC0004091DF045091E00470E060E0C416D50635
:103DD000E606F70644F5009731F27894892B09F44A
:103DE0009BCF82E090E0998388838DEF9FEF4ECF49
:103DF000C114D104E104F104E1F623303105C8F621
:103E0000CF015BDDE091DD04F091DE04E00FF11FF6
:103E1000108A1786CECF10E000E090E080E0C12C41
:103E2000D12C7601CDCF0097C1F610E000E0812CB7
:103E3000912C540183E0E82EF12C1AC0E091DD04AE
:103E4000F091DE04E00FF11F83819481029749F421
:103E5000F482E38282E090E00E943A1580E40E94BE
:103E60004215FFEF8F1A9F0AAF0ABF0A0D5E1F4F60
:103E70008091DF049091E004B0E0A0E088169906FC
:103E8000AA06BB06DCF290E080E0A7CF63817481D4
:103E90006230710511F4548343830196739634CFD5
:103EA00082E090E09983888385EF9FEFEFCE0097C3
:103EB000B9F48FEFFB018083209167023091680293
:103EC00043E1429FC001439F900D1124E091DD0426
:103ED000F091DE04E80FF91F8285FB0181830895CC
:103EE0000C94F11488E090E0FA019183808390E0D3
:103EF00080E008951092DC041092DB04EDEDF4E014
:103F000086E0DF011D928A95E9F780EE9AE19093B1
:103F1000DA048093D90408958091D9049091DA0449
:103F200008952F923F924F925F926F927F928F925D
:103F30009F92AF92BF92CF92DF92EF92FF920F9338
:103F40001F93CF93DF93CDB7DEB760970FB6F8948A
:103F5000DEBF0FBECDBFF894E091DB04F091DC042E
:103F60003196F093DC04E093DB047894A091DD04B7
:103F7000B091DE04BA83A983109709F4FAC1E091E5
:103F8000DF04F091E004EF2B09F4F3C128874B879D
:103F90005C876D877E879A878987B88BAF87312C3E
:103FA000212CF12C512C412C8091DF049091E004C4
:103FB0002816390610F4FF2029F1F8948091DB04CB
:103FC0009091DC0401979093DC048093DB04789457
:103FD000C20160960FB6F894DEBF0FBECDBFDF9171
:103FE000CF911F910F91FF90EF90DF90CF90BF90F6
:103FF000AF909F908F907F906F905F904F903F9089
:104000002F900895B10190E080E088D4682EEF856C
:10401000F889878181FD3DC0838194810397C9F52B
:10402000258136813C832B8389859A85281739071A
:1040300081F5C101ECD8782E8823A9F1AF85B88924
:104040001F968D919C915097019621E01D964D9160
:104050005C918417950709F020E02F83B12CA12CE7
:10406000EF85F88982818A151B0419F014F0FF206E
:10407000E9F0F885FF2309F46CC1AF85B889509643
:104080001C921E921F97662021F0B10190E080E003
:1040900047D4FFEF2F1A3F0A2F8538892D5E3F4FF7
:1040A000388B2F8781CFB1E0BF83D8CFC0D49E8318
:1040B0008D83E885EE23E9F0772009F43CC1AF85D4
:1040C000B8891F968D919C91892B79F0BBE0BA9DA0
:1040D000C001BB9D900D1124AF85B889ED91FC9175
:1040E000E80FF91F85819681F9D6BFEFAB1ABB0A9D
:1040F000B7CF81E0772039F0EF85F88927853089BF
:10410000232B09F080E0F82EE12CA114B10439F43E
:10411000AF85B8891796EC90E4FAEE24E0F8BBE09E
:10412000BA9D6001BB9DD00C1124882309F424C1E1
:10413000AF85B889ED91FC911197EC0DFD1D438180
:1041400054811D962D913C91429FC001439F900D3B
:10415000529F900D1124E1105DC0019690878783D6
:1041600061E070E0878190852DD5EF85F889218900
:104170003289008111810C0D1D1D2F3F320709F47A
:104180004BC0BC01C9010E94FA28D80116969C9325
:104190008E931597AF85B889ED91FC911197EC0D31
:1041A000FD1D058116810115110509F4CDC0ED81B4
:1041B000FE810E0F1F1F1A968C918A0DD8018C93C9
:1041C000E1102FC00F5F1F4FAF85B889ED91FC91B3
:1041D000EC0DFD1D12870187AF85B889ED91FC912B
:1041E000EC0DFD1D85819681892B09F4A4C0809179
:1041F0005D0290915E022B813C812817390709F4FA
:1042000065C0772011F001851285912C812C1A82CE
:1042100019824AC00596A2CF28D6F80196838583D5
:10422000B9CF8B859C85AD85BE85F801818392834E
:10423000A383B4830B5F1F4FC7CFE080F180E80CEE
:10424000F91CD70113966D917C9114978C918F3F37
:1042500009F473C0E1E0F0E002C0EE0FFF1F8A95A1
:10426000E2F7CF01092E000CAA0BBB0BFB0140812A
:1042700051816281738184239523A623B72321E092
:10428000892B8A2B8B2B09F420E0D8012C93D701A2
:1042900011968C91080F111DE981FA813196FA83EC
:1042A000E983F7E08F0E911CAF85B889ED91FC9101
:1042B000EC0DFD1D828129813A818217130611F0D0
:1042C0000CF0BBCF772011F0128701873F81332399
:1042D00091F1AF85B889ED91FC91EC0DFD1D61E088
:1042E00070E0878190856ED4AF85B889ED91FC919F
:1042F000EC0DFD1DE780F08445815681E1E0F0E0A2
:10430000662011F0F0E0E0E00D811E819C01B1011A
:10431000882799278E1B9F0B8DD32C01892B59F051
:10432000EF85F88980819181C80ED91ED601159636
:104330008D919C91D3D5F12CD8CEF701418150E0DD
:10434000C8010E94AF39A3CF86EF482E55245A9456
:10435000CCCEEF85F889878590890196908B8787E9
:10436000258536858217930709F08DCE108A17862A
:104370008ACE512C412C21CE10E000E02DCF2F927F
:104380003F924F925F926F927F928F929F92AF92E5
:10439000BF92CF92DF92EF92FF920F931F93CF9332
:1043A000DF938091DD049091DE0410E000E0892B22
:1043B000A9F0D5DA0AEF1FEF882381F02090DF04FF
:1043C0003090E004C091DD04D091DE04D12CC12CEA
:1043D00010E000E02C143D04A9F47894C801DF91AA
:1043E000CF911F910F91FF90EF90DF90CF90BF90F2
:1043F000AF909F908F907F906F905F904F903F9085
:104400002F900895C6010E940719882309F18B8116
:104410009C810397E9F48F859889892BC9F0B601AF
:1044200090E080E07BD221E030E0882311F030E0A2
:1044300020E044245524421A530AB12CA12C912C7B
:10444000812C8A818815190409F038F4188A1F868E
:104450004FEFC41AD40A6396BDCFE881F981EA0D03
:10446000FB1D85819681892BA1F161E070E0878138
:104470009085A8D33C01DBD28C01E881F981EA0D5B
:10448000FB1D8185928525813681200F311FAC016E
:10449000421B530B9A0147815085421B530B70E01E
:1044A00060E00E94B839E881F981EA0DFB1DE780E0
:1044B000F084458156819301B601C201BBD28C01C3
:1044C000892B39F0E881F981EA0DFB1D8581968100
:1044D00005D55FEF851A950A8BE0A80EB11CB1CF08
:1044E0003ECA789408952F923F924F925F926F92B6
:1044F0007F929F92AF92BF92CF92DF92EF92FF9204
:104500000F931F93CF93DF9300D000D0CDB7DEB7CA
:104510000091DD041091DE04992493940115110596
:1045200009F43EC0A090DF04B090E00418DA982EA1
:104530008823B1F11092DE041092DD041092E004A1
:104540001092DF041092E1041092E2048FEF9FEFCB
:10455000DC018093670290936802A0936902B09394
:104560006A0278947FD31E830D83C12CD12C7601EF
:10457000C501B0E0A0E089839A83AB83BC83222489
:104580002A94322C89819A81AB81BC81C816D906C4
:10459000EA06FB06F4F0C801A1D480E40E944815A5
:1045A000892D26960FB6F894DEBF0FBECDBFDF91E2
:1045B000CF911F910F91FF90EF90DF90CF90BF9020
:1045C000AF909F907F906F905F904F903F902F9013
:1045D0000895AD81BE8115968D919C91169720917D
:1045E0005D0230915E0282179307D1F451968D914E
:1045F0009C91EED5ED81FE8180819181B12CA12C21
:10460000412C512C3201892B89F5BFEFCB1ADB0AE3
:10461000EB0AFB0AED81FE817396FE83ED83B2CF38
:10462000C114D104E104F10429F7039718F7ED81CF
:10463000FE81818992898F3F980709F029D5AD8144
:10464000BE8152963C922E925197D4CF8A0D9B1DDB
:10465000DC018D919C91009709F040D4BFEF4B1A7B
:104660005B0A6B0A7B0AEBE0AE0EB11CAD81BE812A
:104670008D919C91119712964C9150E070E060E002
:1046800044165506660677060CF328D4BECFCF93A2
:10469000DF93EA0128DF811109C082E090E099836D
:1046A000888385EF9FEFDF91CF91089581E090E0BF
:1046B0000E943A1581E090E09983888390E080E041
:1046C000F2CF11DF1092DA041092D904089542E07B
:1046D00050E067E073E00C945815FF920F931F931E
:1046E000CF93DF938A01EC01C60FD71FF980B9D2AF
:1046F0000897F816190671F068F082E090E0F8016A
:10470000918380838EEF9FEFDF91CF911F910F9167
:10471000FF9008956C817D818E819F814B810E94E5
:10472000ED17811108C082E090E0F8019183808349
:1047300084EF9FEFE9CFF9800E94E8174F2D50E0FA
:10474000BE01685F7F4F0E94AF3989810E94571870
:1047500081E090E0F8019183808390E080E0D4CF05
:10476000DF92EF92FF920F931F93CF93DF938A0113
:10477000EC01C60FD71F0E94E8177C01D98071D2C7
:10478000DD2059F0029721E030E0D816190619F023
:1047900010F030E020E0232B79F482E090E0F80183
:1047A000918380838EEF9FEFDF91CF911F910F91C7
:1047B000FF90EF90DF900895EF2841F482E090E0C1
:1047C000F8019183808384EF9FEFEECFF9800E9400
:1047D000E8174F2D50E0BE016E5F7F4F0E94AF394A
:1047E00089810E94571881E090E0F80191838083CD
:1047F00090E080E0D9CF87E693E29093E404809341
:10480000E30408958091E3049091E40408950895E9
:10481000FC0111821082938382830895DB011D9233
:104820001C92DC011296ED91FC91139771836083C9
:1048300013967C936E9312970895FC018081918169
:10484000DB018D939C93A081B181109741F08D91F4
:104850009C9191838083892B11F4F383E2830895E3
:10486000FC0180819181DB018D939C93892B11F454
:1048700073836283718360830895FC0111821082C7
:10488000938382830895CF93DF931F921F92CDB7B6
:10489000DEB71A821982F894BE016F5F7F4F8AEEED
:1048A00094E0CBDF89819A81009709F017D3898141
:1048B0009A81892B89F7BE016F5F7F4F8EEE94E05E
:1048C000BCDF89819A81009709F008D389819A8198
:1048D000892B89F778940F900F90DF91CF910895ED
:1048E000CF93DF931F921F92CDB7DEB71A82198242
:1048F000F894BE016F5F7F4F86EE94E09EDF898162
:104900009A81009709F0EAD289819A81892B89F7E7
:1049100078940F900F90DF91CF91089581E00895E2
:1049200090E080E00895EF92FF920F931F93CF9352
:10493000DF931F921F92CDB7DEB71A821982809142
:10494000E50407EF1FEF8823A1F1F894BE016F5F24
:104950007F4F8EEE94E071DF789489819A81EE2406
:10496000E394F12C892B51F4F894BE016F5F7F4FD3
:104970008AEE94E062DF7894F12CE12C89819A81AF
:104980000EEF1FEF0097A9F0FC014281538164E014
:1049900070E076D68C01892B61F0F89469817A8178
:1049A000C701880F991F880F991F86519B4F58DFA9
:1049B0007894C8010F900F90DF91CF911F910F91C4
:1049C000FF90EF9008950F931F93CF93DF9300D044
:1049D0001F92CDB7DEB71C821B821A82198280918A
:1049E000E50407EF1FEF8823C1F0AE014D5F5F4F75
:1049F00064E070E0CE010196B6D68C01892B69F493
:104A0000E981FA818B819C8193838283F894698107
:104A10007A8186EE94E002DF7894C8010F900F90BF
:104A20000F900F90DF91CF911F910F910895BBD7F9
:104A3000049608958F929F92AF92BF92CF92DF9289
:104A4000EF92FF920F931F93CF93DF931F921F92CA
:104A5000CDB7DEB71A821982BC016F5F7F4F63301A
:104A6000710598F0AA24AA94BA2CC5010F900F9052
:104A7000DF91CF911F910F91FF90EF90DF90CF903A
:104A8000BF90AF909F908F9008954115510551F3BD
:104A9000480159018A016C01CADF8815990511F78F
:104AA000E114F104F9F28E0D9F1DA816B906D0F29B
:104AB0008091E5048823F1F0F894B5016450710900
:104AC0009701AE014F5F5F4FC8010496E1D65C01CC
:104AD000892B71F489819A81F80193838283C601BD
:104AE000880F991F880F991FB80186519B4F96DE3A
:104AF0007894BBCF87EFA82EBB24BA94B6CFAF92E1
:104B0000BF92CF92DF92EF92FF920F931F93CF93BA
:104B1000DF931F921F92CDB7DEB71A821982892BBD
:104B200009F047C06115710509F443C041155105ED
:104B300009F43FC02115310509F43BC001151105E9
:104B4000C1F18091E5048823B9F179016A015B0123
:104B5000F894BE016F5F7F4F86EE94E06EDE78942E
:104B600089819A81009759F1DC0112966D917C91AF
:104B7000A8010496A6D68C01E981FA81D501ED93AE
:104B8000FC93828193810496F601918380834FDFA9
:104B9000D7018D939C93C8010F900F90DF91CF9117
:104BA0001F910F91FF90EF90DF90CF90BF90AF904B
:104BB00008950FEF1FEFEFCF07EF1FEFECCF0EEFD2
:104BC0001FEFE9CFCF93DF93EC01672B71F4F4D69D
:104BD0008C179D0760F0E7D62496C80FD91FE6D63C
:104BE0008C0F9D1FDF91CF910895E3D6F1CF90E018
:104BF00080E0F8CF0F931F93CF93DF932091E504CC
:104C000021112BC08B01EC018AEE94E001DE8EEEC7
:104C100094E0FEDD86EE94E0FBDD97D00097C1F4D2
:104C2000CBD670E060E0CEDF4BE652E062E070E0B1
:104C300081D1009769F480916B0290916C02CED67D
:104C4000B801CE0103D5009719F421E02093E504C3
:104C5000DF91CF911F910F91089584EF9FEFF8CFCF
:104C6000A8C6AAC6CF93DF93AAD6EC01892B11F46C
:104C70000ADE36DECE01DF91CF910895CF93DF9328
:104C80009ED6EC01892B09F4FEDDCE01DF91CF9198
:104C9000089580916B0290916C020895CF93DF93F9
:104CA0008091E504D0E0C0E08823D1F09CD6EC01EF
:104CB000892BB1F4E8DD14DE80916B0290916C02D7
:104CC000E7D1E8D2EC01892B59F48AEE94E0D5DDE6
:104CD0008EEE94E0D2DD86EE94E0CFDD1092E50416
:104CE000CE01DF91CF910895EF92FF920F931F9322
:104CF000CF93DF93EC017A018B010F5F1F4F0E9D65
:104D0000A0010F9D500D1E9D500D112470E060E01C
:104D10000E94B83990E080E0F0E0E0E02FEFE81684
:104D2000F90639F4DF91CF911F910F91FF90EF9029
:104D300008951A8219822883309711F0D283C18393
:104D40000196FE01C00FD11FEACFCF92DF92EF9202
:104D5000FF920F931F93CF93DF9307EF15E00C7F24
:104D600043E050E06DE672E083E792E01CD48DE60C
:104D7000E82E82E0F82E93E7C92E92E0D92ECEE5F8
:104D8000D6E0D7014D915D917D01F6016191719160
:104D90006F01198308835D834C835B834A837F8320
:104DA0006E839B012F5F3F4F249FC001259F900D75
:104DB000349F900D1124998788870115110511F0F2
:104DC000C80192DF88859985080F191F2A96F3E795
:104DD000EF16F2E0FF06A9F6E4EFF4E080E091E0E0
:104DE000DF019C011D9221503040E1F71092F30445
:104DF0001092F20410927D0610927C0610928106A9
:104E00001092800610927F0610927E061092830602
:104E100010928206109285061092840610928706E0
:104E20001092860610928B0610928A0610928906BE
:104E30001092880610928D0610928C0610928F06A2
:104E400010928E0610925B0610925A0610925D0622
:104E500010925C0690E080E0DF91CF911F910F915E
:104E6000FF90EF90DF90CF9008950097F1F0F894C5
:104E7000A3E7B2E0EEE5F6E030E020E04D915D9191
:104E800048175907A8F0428153814115510581F017
:104E90008AE0829FF001839FF00D1124E25AF94FBE
:104EA00080819181009759F4789490E080E0089592
:104EB0002F5F3F4F3A962330310501F7F5CFDC01E4
:104EC00011966D917C917183608341505109538398
:104ED0004283FC012193CF0178940895009749F112
:104EE000DC018E91853041F4E0915C06F0915D0625
:104EF0003097F9F0CD0119948530D8F4282F30E09F
:104F0000F8948FEF8C938AE0829FF001839FF00DDD
:104F10001124E25AF94F8081918112969C938E93CD
:104F20001197B183A08382819381019693838283B9
:104F300078940895CF92DF92EF92FF920F931F9390
:104F4000CF93DF939C0187EF94E08C7F411551054F
:104F500009F49BC02115310509F497C0611571054D
:104F600009F493C07A01AB01B9016D5F7F4F6C7F8B
:104F70009B012F5F3F4F249F8001259F100D349F81
:104F8000100D1124F89420917C0630917D06232B7E
:104F900059F420918406309185062115310569F177
:104FA0002017310708F058C02091860630918706F7
:104FB000232B91F42091840630918506820F931F54
:104FC00020918E0630918F062115310509F441C0DC
:104FD0002017310708F056C07894CFEFDFEF86EF47
:104FE0009FEFF701D183C083DF91CF911F910F9184
:104FF000FF90EF90DF90CF900895C3E0D0E0C09095
:10500000F204D090F3042DEF30E02C193D09201765
:10501000310710F32AE02C9FF0012D9FF00D112491
:10502000E25AF94F918380835583448353834283AB
:105030007783668311870087009709F055DE0C0D92
:105040001D1D1093F3040093F204789490E080E027
:10505000C8CFC4E0D0E0D3CFC3E0D0E02AE02C9F9B
:10506000F0012D9FF00D1124E25AF94F91838083B6
:10507000558344835383428377836683009729F360
:1050800033DEE3CFC4E0D0E0E9CF8FEF9FEFACCFCA
:105090009C010397029708F069C0F89484E09AE0B5
:1050A000482F50E0241735070CF44DC091E08AE0FA
:1050B000829FF001839FF00D1124E25AF94F118273
:1050C000108215821482138212821782168299230B
:1050D000B1F180917C0690917D06892BA9F42091F5
:1050E0008406309185062115310571F08091F20416
:1050F0009091F304821B930B9093F3048093F2043A
:1051000010928506109284068091860690918706FB
:10511000892BA9F420918E0630918F062115310537
:1051200071F08091F2049091F304821B930B9093A1
:10513000F3048093F20410928F0610928E067894F6
:1051400090E080E00895949FF001959FF00D112468
:10515000E25AF94F40815181452B31F44085518508
:10516000452B11F481509CCF90E0A1CF8FEF9FEFA2
:1051700008954115510549F1009739F161157105FF
:1051800021F1F89420915A0630915B06232BB9F453
:1051900020915C0630915D06232B89F490935B0689
:1051A00080935A0670935D0660935C06789425E0C0
:1051B00030E090E080E0FA01318320830895789414
:1051C0002FEF3FEF86EF9FEFF6CF8FEF9FEF089522
:1051D000059769F4F89410925B0610925A061092A3
:1051E0005D0610925C06789490E080E008958FEF61
:1051F0009FEF08956115710519F4F0E0E0E011C02A
:105200008530910581F4E0915A06F0915B06309764
:10521000A1F3CB0101961995009779F3FC0185E084
:105220008193CF0108959C0123503109223031052B
:1052300020F72AE0289FD001299FB00D1124A25AFF
:10524000B94F2D913C911197232BB9F216962D91C0
:105250003C9117972617370780F2F89412962D91F4
:105260003C9113972115310529F0ED91FC9111978F
:10527000309711F47894C1CF4181528111965C939B
:105280004E932150310913963C932E93129781939C
:105290007894C7CFE4EFF5E086E6DF011D928A95AA
:1052A000E9F7E4EFF4E080E091E0DF019C011D927A
:1052B00021503040E1F71092F3041092F204EEE531
:1052C000F6E082E3DF011D928A95E9F7EAE5F6E070
:1052D00084E0DF011D928A95E9F790E080E008956F
:1052E000CF93DF93C0917902D0917A02CF3FDC0750
:1052F00059F423D490937A028093790297FF09C0DE
:10530000D0937A02C093790284EF9FEFDF91CF911F
:10531000089590E080E0FACF8230910528F48093E0
:10532000900690E080E008958FEF9FEF08954F92F0
:105330005F926F927F92AF92BF92CF92DF92EF9285
:10534000FF920F931F93CF93DF931F921F92CDB7BE
:10535000DEB71A821982009709F479C061157105C8
:1053600009F475C02091790230917A0207EF1FEF9E
:105370002F3F3F4F09F445C06B015C01412C512C7C
:105380003201F12CE12C10E000E09E012F5F3F4F35
:10539000A6014E195F09B5016E0D7F1D809179023E
:1053A00090917A022ED4892B09F04BC089819A8181
:1053B000009741F4E114F10429F42091900622238E
:1053C00009F442C0E80EF91EEC14FD04D0F480E8A4
:1053D000481684E858068EE16806710420F560E0FE
:1053E00070E0CB010E9481332AE0420E511C611C07
:1053F000711C0A3F4FEF140721F0043F8FEF18078D
:10540000A1F4C8010F900F90DF91CF911F910F91E0
:10541000FF90EF90DF90CF90BF90AF907F906F9014
:105420005F904F90089501EF1FEF81E090E0013F02
:105430002FEF120711F090E080E0892B09F4A5CF3F
:10544000E0CF04EF1FEFDDCF0AEF1FEFDACF0FEF52
:105450001FEFD7CF4F925F926F927F92AF92BF9222
:10546000CF92DF92EF92FF920F931F93CF93DF9330
:105470001F921F92CDB7DEB71A821982009709F4E6
:1054800079C06115710509F475C0209179023091D8
:105490007A0207EF1FEF2F3F3F4F09F445C06B0122
:1054A0005C01412C512C3201F12CE12C10E000E088
:1054B0009E012F5F3F4FA6014E195F09B5016E0D8A
:1054C0007F1D8091790290917A024ED3892B09F049
:1054D0004BC089819A81009741F4E114F10429F4C9
:1054E00020919006222309F442C0E80EF91EEC1424
:1054F000FD04D0F480E8481686E9580688E9680675
:10550000710420F560E070E0CB010E9481332AE055
:10551000420E511C611C711C0E3F4FEF140721F00D
:10552000043F8FEF1807A1F4C8010F900F90DF918F
:10553000CF911F910F91FF90EF90DF90CF90BF9090
:10554000AF907F906F905F904F90089502EF1FEFA4
:1055500081E090E0023F2FEF120711F090E080E031
:10556000892B09F4A5CFE0CF04EF1FEFDDCF0EEFBD
:105570001FEFDACF0FEF1FEFD7CF80917902909115
:105580007A028F3F980749F0D0D2892B49F48FEFE8
:105590009FEF90937A028093790290E080E00895E3
:1055A00084EF9FEF0895CF92DF92EF92FF920F93D7
:1055B0001F93CF93DF9321E04115510509F020E0BF
:1055C0004150510921112CC0DC01FB01D12CC12C0F
:1055D00021E022C03FEFC31AD30A7D010D911D9136
:1055E000E701EA80FB80E016F106A8F42081318112
:1055F000E280F380F182E08233832283ED90FC909D
:1056000011979D0122503109E901F982E882119632
:105610001C930E9320E03296C416D506D8F2D2CF52
:10562000DF91CF911F910F91FF90EF90DF90CF907E
:105630000895FC01680F791F90E080E0E617F707F6
:1056400009F408952191820F911DF8CF20919106C0
:10565000211113C045DE009791F410929706109225
:105660009606109295061092940610929306109248
:10567000920621E020939106089584EF9FEF08950C
:10568000AF92BF92CF92DF92EF92FF920F931F9350
:10569000CF93DF93009709F460C04630510508F4BA
:1056A0005CC020919106C7EFDFEF222309F449C0C7
:1056B0008C01060F171FF801C080D180C114D104DE
:1056C00009F44EC096012A5F3F4F4217530708F472
:1056D00047C07C01809196069091970693838283C0
:1056E000B6016C5F7F4F5801A60EB71EC801A1DF3F
:1056F000F5019183808364E070E0C80118DEEC015D
:10570000892BF9F481E090E007DEB601C801049628
:105710000EDEEC01892B91F462E070E0C50107DE3A
:10572000EC01892B59F4C701D9DB80919606909141
:1057300097060196909397068093960690E080E0F6
:10574000EBDDCE01DF91CF911F910F91FF90EF9094
:10575000DF90CF90BF90AF900895CFEFDFEFF1CF04
:10576000C9EFDFEFEECF6F927F928F929F92AF9251
:10577000BF92CF92DF92EF92FF920F931F93CF933E
:10578000DF9300D01F92CDB7DEB7009709F47AC03F
:105790004115510509F476C02091910607EF1FEFDE
:1057A000222309F44DC03A017B015C0164E070E002
:1057B000CE0101964FDE8C01892B09F041C0098191
:1057C0001A810115110509F45AC0480186E0880EB6
:1057D000911CB701680D791D80917B0290917C022C
:1057E00009DD6C01009709F450C0A70170E060E08A
:1057F0000E94B83989819A81AB81BC81EC0CFD1C77
:10580000F70181939193A193B1937F0181E090E09F
:1058100083DDB801C7011EDE892B31F562E070E03F
:10582000C701800F911F16DE8C01892BE9F490E0EF
:1058300080E072DDF501D182C082F3019182808225
:10584000C8010F900F900F900F90DF91CF911F9193
:105850000F91FF90EF90DF90CF90BF90AF909F900F
:105860008F907F906F90089590E080E055DDF50176
:1058700011821082F30111821082C6012FDB09EF21
:105880001FEFDECF0FEF1FEFDBCF06EF1FEFD8CFFD
:105890000097A1F04115510589F02115310571F0EE
:1058A000F90136966E177F0748F0DC012D933C9383
:1058B000DA01ED93FC9390E080E008958FEF9FEF85
:1058C0000895AF92BF92CF92DF92EF92FF920F9323
:1058D0001F93CF93DF93009709F45FC041155105E3
:1058E00009F45BC06530710508F457C0209191063A
:1058F000C7EFDFEF222391F1DC01CD90DC9011970F
:105900001296ED91FC9196012A5F3F4FC9EFDFEFB0
:105910002617370719F5C0919206D0919306209764
:1059200049F521E030E030939306209392067A0106
:105930008C01F0939506E09394065601B4E0AB0E0B
:10594000B11CB50176DE0A0D1B1DF80120813181E5
:105950008217930729F5D701CD92DC92CE01DF9112
:10596000CF911F910F91FF90EF90DF90CF90BF905C
:10597000AF90089520919406309195062F5F3F4F88
:10598000CCEFDFEFE217F30790F2CBEFDFEF2E174C
:105990003F0768F2D0E0C0E0CACFCFEFDFEFDECF45
:1059A000C3EFDFEFDBCF84E090E0089582E090E08A
:1059B00008958CEF9FEF089580E290E00895109293
:1059C00097061092960610929506109294061092E1
:1059D00093061092920690E080E0089590937C02E6
:1059E00080937B02089580919106882391F0C5DD14
:1059F000009789F4109297061092960610929506D9
:105A000010929406109293061092920610929106AC
:105A1000089590E080E00895009749F061157105C0
:105A200031F0FC0111821082FB0111821082089575
:105A3000F3CF26E030E040E855E260E070E090E02F
:105A400080E000C08130910571F01CF4892B39F0A1
:105A500008958230910551F0039759F0089585EA31
:105A600096E00C94AE3682E497E0FBCF8FED97E0A2
:105A7000F8CF8CE798E0F5CF1F920F920FB60F92F8
:105A800011240BB60F922F933F934F935F936F9315
:105A90007F938F939F93AF93BF93EF93FF9386E092
:105AA0009FEF9093250180932401BFD0FF91EF9148
:105AB000BF91AF919F918F917F916F915F914F9126
:105AC0003F912F910F900BBE0F900FBE0F901F9024
:105AD000189586E09FEF9093250180932401A3E71A
