:1000000005C100000C94DC0E0C94070F0C94320F09
:100010000C945D0F0C94880F0C94B30F0C94DE0FAE
:100020000C94091024C1000022C1000020C100006E
:100030001EC100001CC100001AC1000018C1000050
:1000400016C1000014C1000012C1000010C1000060
:100050000EC100000CC100000AC100000C94341055
:1000600006C100000C94D5130C940B1400C10000C1
:10007000FEC00000FCC00000FAC00000F8C0000094
:10008000F6C00000F4C00000F2C00000F0C00000A4
:100090000C9461140C949714EAC00000E8C00000AE
:1000A000E6C00000E4C00000E2C00000E0C00000C4
:1000B000DEC00000DCC00000DAC00000D8C00000D4
:1000C000D6C00000D4C000000C94320B0C94ED1488
:1000D0000C942315CCC000000C9479150C94AF152A
:1000E000C6C0000000000A0B02090C0D0E08070331
:1000F00004010000000000000000000000000000FB
:1001000000000000000000000000000000000000EF
:1001100012111000000000000000000000000000AC
:100120000000000000000000000001021020200874
:100130000810204010204080020102010804020142
:1001400001020408102040808040201008040201B1
:10015000800402018040201008040201080402010A
:100160000102040810204080010204081020408091
:1001700005050505070508080808020202020A0A23
:100180000808040404040101010101010101030341
:10019000030303030303040707070C0C0C0C0C0CEC
:1001A0000C0C0202020206060606060606060B0BE9
:1001B0000B0B0B0B0B0B000020002300260029006B
:1001C0002C002F003200000100000301060109018C
:1001D00000002200250028002B002E0031003400F2
:1001E00002010000050108010B01000021002400AC
:1001F00027002A002D003000330001010000040117
:1002000007010A013414C0144C15D81511241FBE5F
:10021000CFEFD1E2DEBFCDBF00E00CBF12E0A0E027
:10022000B2E0ECEBFCE200E00BBF02C007900D92E5
:10023000AE37B107D9F726E0AEE7B2E001C01D92B4
:10024000A935B207E1F711E0C6E0D1E000E006C051
:1002500021970109802FFE010E945416C230D10758
:1002600080E00807A9F70E94980B0C945C16C8CE92
:10027000611102C00C941A126130E1F362E0FACF0E
:10028000662319F061E00C94561260E0FCCF0E94E6
:10029000831221E0019709F020E0822F0895CF9288
:1002A000DF92EF92FF92CF93882351F16A017B0195
:1002B000CFEFC80F20E030E0A901CB01B6010E94CA
:1002C000590C87FF11C0C701B60190580E94CA0C93
:1002D0009B01AC016C2F70E090E080E0CF91FF902B
:1002E000EF90DF90CF90B2C0C701B6010E94C50C5D
:1002F0008C2FCF91FF90EF90DF90CF900C94E01077
:10030000CF91FF90EF90DF90CF9008950F931F93C0
:100310008B019C0183E036952795179507958A9563
:10032000D1F702581D4F462F477021E030E0F90108
:1003300002C0EE0FFF1F4A95E2F7AF01F8012081DE
:100340002423CB010196211102C090E080E01F918F
:100350000F9108950F931F938B019C0183E03695B5
:100360002795179507958A95D1F7677081E090E0FA
:1003700001C0880F6A95EAF7F801E258FD4F208125
:10038000452B31F48095822380831F910F9108952E
:10039000822BFACF2F923F924F925F926F927F9271
:1003A0008F929F92AF92BF92CF92DF92EF92FF9285
:1003B0000F931F93CF93DF93D62EC72E782E692EDF
:1003C00049015A01280161E08D2D0E941A12CD2D9C
:1003D000DC2D8E010F5F1F4FA8016D2D7C2D872D09
:1003E000962DB8DF20E030E0A901C201B7010E94DC
:1003F000FB0D181664F4C201B7010E94CA0C2B0150
:10040000C501B4010E94CA0CA201CE0123D0C801CB
:10041000DF91CF911F910F91FF90EF90DF90CF90E0
:10042000BF90AF909F908F907F906F905F904F9014
:100430003F902F900895882341F08150682F70E0FD
:1004400090E080E050E040E085CF0895862FB9012C
:100450000C94E0109C01FC01EC51FF4FE491E15041
:10046000E231E0F4F0E08827E75CFD4F8F4F0C9419
:1004700054164B02520255026C0281024E02960241
:10048000A202A602BD02D202E702FE0213034E023E
:1004900028033F03540384B5806884BD60E0822F45
:1004A0000C94561284B58062F8CF809180008C7FC6
:1004B00082608093800080918100807E8061682BC3
:1004C0006093810050938700409386008091800064
:1004D000806880938000E2CF809180008C7F826072
:1004E0008093800080918100807E8061682B609382
:1004F0008100509387004093860080918000806245
:10050000E8CF809180008C7F826080938000809112
:100510008100807E8061682B60938100509387000A
:1005200040938600809180008860D3CF8091B00096
:1005300080688093B0008091B100887F682B6093C1
:10054000B100ACCF8091B0008062F3CF8091900079
:100550008C7F82608093900080919100807E80618A
:10056000682B609391005093970040939600809180
:10057000900080688093900091CF809190008C7F54
:1005800082608093900080919100807E8061682BD2
:100590006093910050939700409396008091900053
:1005A0008062E8CF809190008C7F82608093900081
:1005B00080919100807E8061682B609391005093C0
:1005C000970040939600809190008860D3CF8091EF
:1005D000A0008C7F82608093A0008091A100807E2B
:1005E0008061682B6093A1005093A7004093A60000
:1005F0008091A00080688093A00050CF8091A000DF
:100600008C7F82608093A0008091A100807E8061B9
:10061000682B6093A1005093A7004093A60080919F
:10062000A0008062E8CF8091A0008C7F82608093E0
:10063000A0008091A100807E8061682B6093A10062
:100640005093A7004093A6008091A0008860D3CF6C
:10065000809120018C7F8260809320018091210114
:10066000807E8061682B6093210150932701409325
:100670002601809120018068809320010FCF809116
:1006800020018C7F82608093200180912101807EF7
:100690008061682B609321015093270140932601CC
:1006A000809120018062E8CF809120018C7F826060
:1006B0008093200180912101807E8061682B60936E
:1006C00021015093270140932601809120018860E9
:1006D000D3CFCF92DF92EF92FF9280913306909129
:1006E0003406A0913506B09136068093EF059093BD
:1006F000F005A093F105B093F205C0900002D090F0
:100700000102E0900202F0900302A70196016091BD
:10071000FF057091000680910106909102060E94EB
:10072000590C882341F0C092FF05D0920006E09258
:100730000106F092020683E0AADD811127C0209114
:100740000402309105024091060250910702609127
:1007500033067091340680913506909136060E94DA
:10076000E20B6093330670933406809335069093C2
:100770003606809138068823E1F08130F1F09091BF
:10078000390681E09923B1F080E014C0209108027D
:100790003091090240910A0250910B026091330698
:1007A0007091340680913506909136060E94E10BD7
:1007B000D8CF81E08093370602C01092370620918F
:1007C00037068091EF059091F005A091F105B09169
:1007D000F2052223A1F080931F0690932006A09398
:1007E0002106B093220680913706809339068FEF59
:1007F00080933706FF90EF90DF90CF90089580931D
:100800001B0690931C06A0931D06B0931E06EBCF0B
:1008100089539F4FFC01808191810197A1F4F901D7
:1008200080819181A281B381FB0180839183A28326
:10083000B383F90184819581A681B781FA01808310
:100840009183A283B3830895CF92DF92EF92FF92B8
:100850006B017C019F7720E030E040E859E50E9481
:10086000590C87FF2AC020E030E040E05FE3C70179
:10087000B6010E94FB0D87FD0DC020E030E040E096
:100880005FE3C701B6019ED7FF90EF90DF90CF9056
:100890000C94330D20E030E040E05FEBC701B6017F
:1008A0000E94FB0D181684F420E030E0A901C70176
:1008B000B6010E94FF0D6B017C01C701B601FF90DC
:1008C000EF90DF90CF90089520E030E040E05FE3CC
:1008D000C701B60176D7FF90EF90DF90CF90D6C7D3
:1008E000E0910F03F09110038091E3059091E405EE
:1008F000A091E505B091E60580839183A283B3833F
:1009000008952F923F924F925F926F927F928F92B3
:100910009F92AF92BF92CF92DF92EF92FF920F938E
:100920001F93CF93DF93CDB7DEB768970FB6F894D8
:10093000DEBF0FBECDBF80904E0390904F0300915D
:1009400051031091520321E08216910409F068C00E
:1009500080913A0390913B03A0913C03B0913D03F9
:1009600040904203509043036090440370904503CD
:10097000C0903E03D0903F03E0904003F0904103CD
:100980008F3FEFEF9E07AE07BE0729F5C701B601FF
:100990006F5F7F4F8F4F9F4F0E94F60CA301920114
:1009A0000E94FF0D20E030E040E85FE40E94FF0D70
:1009B00060939502709396028093970290939802A9
:1009C00080913706882309F47DC0813009F47EC008
:1009D0008091390678C0BC01CD016F5F7F4F8F4F8A
:1009E0009F4F0E94F60CA30192010E94FF0D6987A0
:1009F0007A878B879C87C701B601F8D7A30192013C
:100A00000E94FF0D20E030E040E85FE40E94FF0D0F
:100A10009B01AC0169857A858B859C85D3D6C8CF2F
:100A20008114910481F4E091C502F091C602019015
:100A3000F081E02D80819181A281B381F8018083D2
:100A40009183A283B383D8014D905D906D907C908B
:100A5000A0902306B090240610912506009126064A
:100A6000F0902B06E0902C06D0902D06C0902E061C
:100A7000A3019201B501812F902F0E94FB0D2F2D14
:100A80003E2D4D2D5C2D87FD6DC0C301B20111D7E8
:100A900018160CF08EC32F2D3E2D4D2D5C2DB5015B
:100AA000812F902F06D787FD63C080912F069091EC
:100AB0003006A0913106B091320689879A87AB87BC
:100AC000BC8770C081E08093380602C0109238065F
:100AD000809138068823E9F160911F067091200605
:100AE00080912106909122062FEF209338062091C5
:100AF00010023091110240911202509113020E9493
:100B0000FF0D6B017C01C092F305D092F405E092D9
:100B1000F505F092F60520911402309115024091EE
:100B2000160250911702609118027091190280917B
:100B30001A0290911B020E94FF0DA701960141D657
:100B40006093E3057093E4058093E5059093E605D3
:100B50007ACF60911B0670911C0680911D069091C2
:100B60001E06C2CFB501812F902FA3D687FF0BC0E1
:100B70002F2D3E2D4D2D5C2DC301B2010E94FB0D8A
:100B800018160CF492CF8091270690912806A09118
:100B90002906B0912A0689879A87AB87BC87FA2CE9
:100BA000EB2C68012F2D3E2D4D2D5C2DC301B20184
:100BB00008D66B017C0129853A854B855C8560915F
:100BC000E3057091E4058091E5059091E605F9D57E
:100BD000A701960172D66B017C0191E08916910400
:100BE000C9F42091E3053091E4054091E505509169
:100BF000E605609128027091290280912A02909165
:100C00002B02FDD76093E7057093E8058093E90513
:100C10009093EA0520912002309121024091220216
:100C200050912302C701B601EAD72091E705309120
:100C3000E8054091E9055091EA05C4D56B017C01B6
:100C40002091DF053091E0054091E1055091E205EA
:100C500060912402709125028091260290912702D2
:100C6000CED79B01AC01C701B601ACD55B018C01AD
:100C7000C0902C02D0902D02E0902E02F0902F0216
:100C80009B01AC01C701B60114D687FD11C0C0900D
:100C90003002D0903102E0903202F09033029501A0
:100CA000A801C701B601A7D7181614F0650178018D
:100CB0008A94892839F58090E3059090E405A09006
:100CC000E505B090E605E894B7F88092EB059092C0
:100CD000EC05A092ED05B092EE0520E030E0A90110
:100CE000C701B60188D718160CF067C220E030E0C3
:100CF00040E450E4C501B4017ED718160CF05DC283
:100D000010923A0680913A06813009F46DC2823021
:100D100009F476C22CE432E0882309F467C280919A
:100D20004E0390914F03019709F03AC06D817E8187
:100D30008F81988589DD4B015C0120E030E040E83F
:100D400053E4B7D56FEF87FF0CC020E030E0A90176
:100D5000C501B40150D760E087FD03C0C501B401EF
:100D600019D68EE18DDA69817A818B819C816CDD67
:100D70004B015C0120E030E040E853E49AD56FEF8E
:100D800087FF0CC020E030E0A901C501B40133D7D2
:100D900060E087FD03C0C501B401FCD58FE170DAC6
:100DA00065E070E080E090E0B1DA8C0190931A0683
:100DB00080931906C701B6019F77209134023091C4
:100DC0003502409136025091370219D76B017C01F0
:100DD00020E030E04FE753E46CD587FF14C220E0F9
:100DE00030E0A901C701B60106D718160CF012C2EF
:100DF000B701A601C80153DA80914E0390914F03C9
:100E0000019709F0BDC18091230690912406A0911D
:100E10002506B091260689879A87AB87BC874090C4
:100E20004706509048066090490670904A06E09147
:100E30005103F0915203C080D180E280F380A3017E
:100E40009201BC01CD0135D58111E8C1C0922306C4
:100E5000D0922406E0922506F0922606E7E2F6E01C
:100E60008091E3059091E405A091E505B091E60538
:100E700080839183A283B383E091C502F091C6027F
:100E80000190F081E02D40805180628073808091DC
:100E9000950290919602A0919702B09198028B8B47
:100EA0009C8BAD8BBE8BE0919902F0919A02C08031
:100EB000D180E280F380E091C902F091CA02008102
:100EC0001181E0918D02F0918E0220803180A2810B
:100ED000B381BA87A987848195819E878D87A681F2
:100EE000B781B88BAF87808591859A8B898BE0918C
:100EF0008B02F0918C021182108284E0F801D10102
:100F000001900D928A95E1F7E091C302F091C4023D
:100F1000A985BA85B183A083E3DC20E030E040E01E
:100F20005FE3C701B6016BD64B015C01E985FA8529
:100F3000208131814281538162D6D1012D913D9131
:100F40004D915C913FD4F8016083718382839383D8
:100F5000E091C502F091C60280819181988F8F8BBC
:100F6000A5019401C301B2012DD4AF89B88D6D9351
:100F70007D938D939C931397E091C302F091C402EB
:100F80008D859E8591838083BCDCAADCAD85BE8582
:100F90002D913D914D915C91C501B40130D6F10187
:100FA00020813181428153810DD4D8016D937D938D
:100FB0008D939C931397E091C302F091C4028F85A7
:100FC0009889918380839DDC8BDCAF85B8892D91D6
:100FD0003D914D915C91C701B60111D6F10120817F
:100FE000318142815381EED3D8016D937D938D93EE
:100FF0009C931397E091C502F091C6020190F08195
:10100000E02D8B899C89AD89BE8980839183A283E1
:10101000B383E091C302F091C402A989BA89B18374
:10102000A0836FDC5DDCED85FE856081718182814E
:1010300093819B01AC01C6D3A985BA852D913D91C1
:101040004D915C91BFD34B015C01EF85F8896081C4
:101050007181828193819B01AC01B4D39B01AC016E
:10106000C501B401AFD3A989BA892D913D914D91A4
:101070005C91A8D34B015C0120E030E040EC50E4EF
:10108000C701B6011AD49B01AC01C501B401B7D5A3
:10109000F101208131814281538194D3D8016D9334
:1010A0007D938D939C931397E0918B02F0918C022A
:1010B00081E090E09183808380913A0390913B039B
:1010C000A0913C03B0913D030196A11DB11D8093F9
:1010D0003A0390933B03A0933C03B0933D03892BC9
:1010E0008A2B8B2B99F480913E0390913F03A09122
:1010F0004003B09141030196A11DB11D80933E03B1
:1011000090933F03A0934003B093410380919502D5
:1011100090919602A0919702B0919802E0915103AC
:10112000F091520380839183A283B383809146031D
:1011300090914703A0914803B09149030196A11DE6
:10114000B11D8093460390934703A0934803B09347
:101150004903892B8A2B8B2B99F480914A03909118
:101160004B03A0914C03B0914D030196A11DB11DFD
:1011700080934A0390934B03A0934C03B0934D0389
:1011800068960FB6F894DEBF0FBECDBFDF91CF914A
:101190001F910F91FF90EF90DF90CF90BF90AF9095
:1011A0009F908F907F906F905F904F903F902F9087
:1011B0000895C12CD12C760110CD20E030E0A9019A
:1011C000C701B60176D387FF0DC020E030E040E4D0
:1011D00050E4C501B4010FD5181624F481E08093C2
:1011E0003A0690CD82E0FBCF24E432E0AE014F5FBF
:1011F0005F4FBE016B5F7F4F87E892E009DB8FCDC9
:101200002CE332E0F3CFC12CD12C8FE7E82E83E41E
:10121000F82EEECDC12CD12C7601EACD80902B0694
:1012200090902C06A0902D06B0902E06A50194015A
:10123000C301B2013ED381110BC0C0922B06D092E4
:101240002C06E0922D06F0922E06EFE2F6E008CE94
:10125000A501940169857A858B859C852AD387FFB2
:10126000ECCFF4CD4F925F926F927F92AF92BF928C
:10127000CF92DF92EF92FF920F931F93CF93DF9362
:1012800084E090E093D1E7E8F2E088EDDF011D9281
:101290008A95E9F7AEE4B3E0B583A48381E593E0F2
:1012A00097AF86AFC2E4D3E0D38BC28B2FE033E09D
:1012B00035AF24AF49E053E05093CA024093C902CE
:1012C00024E333E03093C8022093C70226E333E0DF
:1012D0003093CC022093CB022BE033E03093CE024C
:1012E0002093CD022DE033E03093D0022093CF0243
:1012F000F093F002E093EF02F383E28321E030E029
:101300002D933C932AE233E066E173E0D9016D93BB
:101310007C936AE173E070932D0360932C036EE17C
:1013200073E070932F0360932E0362E273E0709377
:1013300031036093300366E273E07093330360938C
:1013400032030FED15E0DA010D931C9337832683EA
:1013500024E632E03187208723E533E0FC01318346
:1013600020834FE652E163E87AE3488359836A8336
:101370007B83E3EEF5E080E1DF011D928A95E9F7DA
:1013800084E0F80111928A95E9F7C7EFD5E088E487
:10139000DE011D928A95E9F71092F3051092F4058B
:1013A0001092F5051092F605DD24D394D0923B06F9
:1013B00080E0A82E82E0B82EF50180819181A28183
:1013C000B38188879987AA87BB87412C512C32012A
:1013D000439449825A826B827C8260E083E00E945F
:1013E0003801DD8262E082E00E941A1243E050E0A0
:1013F00069E673E080E067D4CC24CA94C0923A06D0
:101400001C8AD0923E06198E4D8A5E8A6F8A788E2B
:1014100061E08EE10E943801D98E1C86D0923D0693
:10142000198A4D865E866F86788A61E08FE10E9418
:101430003801D98A1C8ED0923C0619A24D8E5E8E40
:101440006F8E78A2E12CF12C8701A801970165E04D
:1014500070E080E090E00E94CA019BA38AA3D9A219
:10146000F50180AD91ADA2ADB3AD8CAF9DAFAEAF88
:10147000BFAF84859585A685B7858CA39DA3AEA3B4
:10148000BFA3C0923706C09238068091470690915C
:101490004806A0914906B0914A068CA79DA7AEA721
:1014A000BFA78CAB9DABAEABBFAB848D958DA68D2E
:1014B000B78D8093DF059093E005A093E105B0938D
:1014C000E205DF91CF911F910F91FF90EF90DF9098
:1014D000CF90BF90AF907F906F905F904F900895A6
:1014E0008091F705811103C081E08093F705809119
:1014F0000B06811103C081E080930B0680910306E7
:10150000811103C081E0809303068091130681114D
:101510002EC081E0809313068091140690911506E9
:10152000A0911606B09117060197A105B105F9F42F
:10153000809118068823D9F065E070E080E090E0A3
:101540000E94860190931A068093190640E050E0AD
:10155000BA010E944F0165E070E080E090E00E94D7
:10156000860190931A06809319060C941B02089525
:1015700060E070E080E89FE7089560E070E080E858
:101580009FE7089560E070E080E89FEF089560E0D5
:1015900070E080E89FEF089560E070E080EC9FEFDE
:1015A000089560E070E080EC9FEF0895F5DF6093B0
:1015B0004B0670934C0680934D0690934E06F1DFD8
:1015C00060933F06709340068093410690934206D5
:1015D000CFDF609347067093480680934906909347
:1015E0004A06CBDF6093430670934406809345061A
:1015F00090934606C7DF60934F0670935006809322
:10160000510690935206C3DF6093530670935406BD
:101610008093550690935606089540E855E260E0A1
:1016200070E090E080E000C08130910579F01CF41A
:10163000892B39F008958230910561F0039771F09C
:10164000089526E08BE693E00C94751326E088E07D
:1016500094E0FACF26E085EA94E0F6CF26E082E433
:1016600095E0F2CF1F920F920FB60F9211240BB696
:101670000F922F933F934F935F936F937F938F932B
:101680009F93AF93BF93EF93FF9386E09FEF909369
:1016900025018093240134D0FF91EF91BF91AF9148
:1016A0009F918F917F916F915F914F913F912F917A
:1016B0000F900BBE0F900FBE0F901F90189586E0F5
:1016C0009FEF9093250180932401A3E7B0E08C91D4
:1016D0008E7F8C93E0E2F1E080818C7F8083E1E279
:1016E000F1E08081877E8083808183608083808138
:1016F0008B7F80838C9181608C93089581E0089525
:1017000080915F0391E0980F90935F03882349F0E5
:1017100021E030E0309361032093600380935F0306
:1017200008957894EED8F89480915F038150F6CFB5
:101730000F931F93CF93DF93109258061092570682
:10174000DDD46BDFC0916902D0916A0219821882E0
:1017500089DDF894B4DF88819981892B31F481E0A7
:10176000FE01E753FF4F9081911180E0809357066F
:10177000789478948E0107531F4F809157068111FA
:1017800009C0AEDEF89490E080E0DF91CF911F9128
:101790000F91089588819981892B89F481E0F8015E
:1017A0009081911101C080E0809358069091580675
:1017B00081E0911180E080935706A0DFDECF81E0C9
:1017C000F3CF5058BB27AA270ED0C4C1B5D130F0F3
:1017D000BAD120F031F49F3F11F41EF4AAC10EF4E7
:1017E000E095E7FB77C1E92FC6D180F3BA1762070E
:1017F00073078407950718F071F49EF5F5C10EF490
:10180000E0950B2EBA2FA02D0B01B90190010C0110
:10181000CA01A0011124FF27591B99F0593F50F428
:10182000503E68F11A16F040A22F232F342F442780
:10183000585FF3CF469537952795A795F040539578
:10184000C9F77EF41F16BA0B620B730B840BBAF048
:101850009150A1F0FF0FBB1F661F771F881FC2F7B3
:101860000EC0BA0F621F731F841F48F487957795C7
:101870006795B795F7959E3F08F0B3CF9395880F7E
:1018800008F09927EE0F97958795089596D180F0E7
:101890009F3740F491110EF4A8C160E070E080E839
:1018A0009FE3089526F01B16611D711D811D18C14F
:1018B00032C1ECD008F481E008950CD04BC143D183
:1018C00040F03AD130F021F45F3F19F003C15111DB
:1018D0008CC12FC150D198F39923C9F35523B1F38B
:1018E000951B550BBB27AA2762177307840738F08F
:1018F0009F5F5F4F220F331F441FAA1FA9F333D0EE
:101900000E2E3AF0E0E830D091505040E695001CA1
:10191000CAF729D0FE2F27D0660F771F881FBB1F5D
:10192000261737074807AB07B0E809F0BB0B802D37
:10193000BF01FF2793585F4F2AF09E3F510568F083
:10194000C9C053C15F3FECF3983EDCF386957795B1
:101950006795B795F7959F5FC9F7880F911D969585
:10196000879597F90895E1E0660F771F881FBB1FE1
:10197000621773078407BA0720F0621B730B840B8E
:10198000BA0BEE1F88F7E095089504D06894B11162
:101990002CC10895F8D088F09F5790F0B92F99275F
:1019A000B751A0F0D1F0660F771F881F991F1AF06A
:1019B000BA95C9F712C0B13081F016D1B1E00895DF
:1019C00013C1672F782F8827B85F39F0B93FCCF360
:1019D000869577956795B395D9F73EF49095809560
:1019E000709561957F4F8F4F9F4F0895E89409C080
:1019F00097FB3EF490958095709561957F4F8F4F42
:101A00009F4F9923A9F0F92F96E9BB279395F69557
:101A1000879577956795B795F111F8CFFAF4BB0FD5
:101A200011F460FF1BC06F5F7F4F8F4F9F4F16C039
:101A3000882311F096E911C0772321F09EE8872FC3
:101A4000762F05C0662371F096E8862F70E060E07F
:101A50002AF09A95660F771F881FDAF7880F9695F8
:101A6000879597F90895A9D080F09F3740F4911198
:101A70000EF0BBC060E070E080E89FEB089526F4B4
:101A80001B16611D711D811D2BC045C0990F0008DB
:101A9000550FAA0BE0E8FEEF16161706E807F90740
:101AA000C0F012161306E407F50798F0621B730BDB
:101AB000840B950B39F40A2661F0232B242B252B5C
:101AC00021F408950A2609F4A140A6958FEF811DFF
:101AD000811D089597F99F6780E870E060E00895A0
:101AE000882371F4772321F09850872B762F07C035
:101AF000662311F499270DC09051862B70E060E0A9
:101B00002AF09A95660F771F881FDAF7880F969547
:101B1000879597F908959F3F31F0915020F487956C
:101B200077956795B795880F911D9695879597F945
:101B300008959FEF80EC089500240A941616170666
:101B400018060906089500240A94121613061406AE
:101B500005060895092E0394000C11F4882352F011
:101B6000BB0F40F4BF2B11F460FF04C06F5F7F4FC9
:101B70008F4F9F4F089557FD9058440F551F59F0B0
:101B80005F3F71F04795880F97FB991F61F09F3F6A
:101B900079F087950895121613061406551FF2CF93
:101BA0004695F1DF08C0161617061806991FF1CFE3
:101BB00086957105610508940895E5DFA0F0BEE7FC
:101BC000B91788F4BB279F3860F41616B11D672F2C
:101BD000782F8827985FF7CF869577956795B11D01
:101BE00093959639C8F30895E894BB27662777271D
:101BF000CB0197F908954ADF08F48FEF08950BD0D1
:101C0000A9CF9ADF28F09FDF18F0952309F062CF63
:101C100090CF1124EACFAFDFA0F3959FD1F3950FBA
:101C200050E0551F629FF001729FBB27F00DB11D60
:101C3000639FAA27F00DB11DAA1F649F6627B00DF0
:101C4000A11D661F829F2227B00DA11D621F739FD9
:101C5000B00DA11D621F839FA00D611D221F749FE7
:101C60003327A00D611D231F849F600D211D822F2E
:101C7000762F6A2F11249F5750408AF0E1F0882375
:101C80004AF0EE0FFF1FBB1F661F771F881F915082
:101C90005040A9F79E3F510570F01CCFA6CF5F3F83
:101CA000ECF3983EDCF3869577956795B795F795B5
:101CB000E7959F5FC1F7FE2B880F911D969587953D
:101CC00097F908950895883008F075C0E82FF0E07E
:101CD000EE0FFF1FEC5AFD4F7183608381508730F8
:101CE00008F03CC0E82FF0E08827E758F14F8F4F0D
:101CF000DBC7B60E800E880E940EA10EC20ECF0E5C
:101D0000809169008C7F482B40936900E89A089580
:101D100080916900837F440F551F440F551F482B46
:101D200040936900E99A0895809169008F7C74E07E
:101D3000440F551F7A95E1F7482B40936900EA9AC2
:101D40000895809169008F7366E0440F551F6A956E
:101D5000E1F7482B40936900EB9A089580916A005F
:101D60008C7F482B40936A00EC9A089580916A001A
:101D7000837F440F551F440F551F482B40936A0023
:101D8000ED9A089580916A008F7C24E0440F551FDE
:101D90002A95E1F7482B40936A00EE9A08958091C6
:101DA0006A008F7396E0440F551F9A95E1F7482B10
:101DB00040936A00EF9A08951F920F920FB60F9208
:101DC00011240BB60F922F933F934F935F936F9312
:101DD0007F938F939F93AF93BF93EF93FF93E09184
:101DE0005802F09159021995FF91EF91BF91AF916F
:101DF0009F918F917F916F915F914F913F912F9123
:101E00000F900BBE0F900FBE0F901F9018951F9252
:101E10000F920FB60F9211240BB60F922F933F9390
:101E20004F935F936F937F938F939F93AF93BF93E2
:101E3000EF93FF93E0915A02F0915B021995FF91A5
:101E4000EF91BF91AF919F918F917F916F915F9132
:101E50004F913F912F910F900BBE0F900FBE0F909F
:101E60001F9018951F920F920FB60F9211240BB668
:101E70000F922F933F934F935F936F937F938F9323
:101E80009F93AF93BF93EF93FF93E0915C02F09128
:101E90005D021995FF91EF91BF91AF919F918F9145
:101EA0007F916F915F914F913F912F910F900BBE5A
:101EB0000F900FBE0F901F9018951F920F920FB6A4
:101EC0000F9211240BB60F922F933F934F935F9372
:101ED0006F937F938F939F93AF93BF93EF93FF93F2
:101EE000E0915E02F0915F021995FF91EF91BF9131
:101EF000AF919F918F917F916F915F914F913F91A2
:101F00002F910F900BBE0F900FBE0F901F90189542
:101F10001F920F920FB60F9211240BB60F922F93B0
:101F20003F934F935F936F937F938F939F93AF9361
:101F3000BF93EF93FF93E0915402F09155021995EE
:101F4000FF91EF91BF91AF919F918F917F916F9191
:101F50005F914F913F912F910F900BBE0F900FBE4D
:101F60000F901F9018951F920F920FB60F92112489
:101F70000BB60F922F933F934F935F936F937F9383
:101F80008F939F93AF93BF93EF93FF93E09156028C
:101F9000F09157021995FF91EF91BF91AF919F91E9
:101FA0008F917F916F915F914F913F912F910F9002
:101FB0000BBE0F900FBE0F901F9018951F920F929F
:101FC0000FB60F9211240BB60F922F933F934F939E
:101FD0005F936F937F938F939F93AF93BF93EF9391
:101FE000FF93E0916002F09161021995FF91EF91EA
:101FF000BF91AF919F918F917F916F915F914F9121
:102000003F912F910F900BBE0F900FBE0F901F901E
:1020100018951F920F920FB60F9211240BB60F92C4
:102020002F933F934F935F936F937F938F939F93E0
:10203000AF93BF93EF93FF93E0916202F09163023D
:102040001995FF91EF91BF91AF919F918F917F91E2
:102050006F915F914F913F912F910F900BBE0F9019
:102060000FBE0F901F9018951F920F920FB60F92F0
:1020700011242F933F938F939F93AF93BF9380919E
:10208000630390916403A0916503B091660330915E
:10209000620323E0230F2D3758F50196A11DB11DD2
:1020A000209362038093630390936403A09365037A
:1020B000B09366038091670390916803A0916903D0
:1020C000B0916A030196A11DB11D8093670390939F
:1020D0006803A0936903B0936A03BF91AF919F9186
:1020E0008F913F912F910F900FBE0F901F901895D9
:1020F00026E8230F0296A11DB11DD2CF789484B596
:10210000826084BD84B5816084BD85B5826085BDF3
:1021100085B5816085BDEEE6F0E0808181608083D9
:10212000E1E8F0E0108280818260808380818160BC
:102130008083E0E8F0E0808181608083E1EBF0E083
:10214000808184608083E0EBF0E080818160808327
:10215000E1E9F0E08081826080838081816080831A
:10216000E0E9F0E0808181608083E1EAF0E0808155
:1021700082608083808181608083E0EAF0E08081FA
:1021800081608083E1E2F1E08081826080838081F0
:1021900081608083E0E2F1E0808181608083EAE712
:1021A000F0E0808184608083808182608083808190
:1021B000816080838081806880831092C10008954F
:1021C0001F93CF93DF93182FEB0161E033D120975A
:1021D00031F460E0812FDF91CF911F9167C1CF3F34
:1021E000D10511F461E0F6CFE12FF0E0EC51FF4FA3
:1021F000E491E150E23108F0B2C0F0E08827ED5FF1
:10220000FE4E8F4F51C515111D1122112C11361183
:10221000AF114011481150115A1164116E117D1106
:102220008711AF1191119B11A51184B5806884BDF0
:10223000C7BDDF91CF911F91089584B5806284BDA1
:10224000C8BDF7CF80918000806880938000D093D4
:102250008900C0938800EDCF8091800080628093D8
:102260008000D0938B00C0938A00E3CF80918000E0
:10227000886080938000D0938D00C0938C00D9CF6C
:102280008091B00080688093B000C093B300D1CF3C
:102290008091B00080628093B000C093B400C9CF39
:1022A00080919000806880939000D0939900C093B3
:1022B0009800BFCF80919000806280939000D0936F
:1022C0009B00C0939A00B5CF809190008860809366
:1022D0009000D0939D00C0939C00ABCF8091A00054
:1022E00080688093A0008091A0008F7B8093A000E5
:1022F000D093A900C093A8009CCF8091A0008062D9
:102300008093A000D093AB00C093AA0092CF80919D
:10231000A00088608093A000D093AD00C093AC0073
:1023200088CF80912001806880932001D09329017B
:10233000C09328017ECF809120018062809320018C
:10234000D0932B01C0932A0174CF80912001886023
:1023500080932001D0932D01C0932C016ACFC03807
:10236000D1050CF03FCF35CF8150823108F059C0F4
:10237000E82FF0E08827E154FE4E8F4F95C4DF111F
:10238000E311D111D711DB111112E611EC11F0118B
:10239000F611FA11FE110412081211120C12121287
:1023A0001612809180008F7780938000089580912D
:1023B00080008F7DF9CF80918000877FF5CF84B535
:1023C0008F7784BD089584B58F7DFBCF8091B00059
:1023D0008F778093B00008958091B0008F7DF9CF02
:1023E000809190008F778093900008958091900065
:1023F0008F7DF9CF80919000877FF5CF8091A000ED
:102400008F778093A00008958091A0008F7DF9CFF1
:102410008091A000877FF5CF809120018F778093F6
:1024200020010895809120018F7DF9CF80912001B6
:10243000877FF5CFCF93DF9390E0FC01E65DFE4F01
:10244000249180599E4FFC0184918823C9F090E02B
:10245000880F991FFC01E651FE4FA591B491FC0134
:10246000E053FE4FC591D49161110DC09FB7F89410
:102470008C91209582238C938881282328839FBF69
:10248000DF91CF910895623051F49FB7F8943C9159
:10249000822F809583238C93E8812E2BEFCF8FB7EB
:1024A000F894EC912E2B2C938FBFEACF1F93CF93F0
:1024B000DF93282F30E0F901EC51FF4F8491F901AF
:1024C000E65DFE4FD491F901E059FE4FC491CC2353
:1024D000A1F0162F811148DFEC2FF0E0EE0FFF1F67
:1024E000E053FE4FA591B4918FB7F894EC91111180
:1024F00008C0D095DE23DC938FBFDF91CF911F9171
:102500000895DE2BF8CFCF93DF93282F30E0F90129
:10251000EC51FF4F8491F901E65DFE4FD491F90132
:10252000E059FE4FC491CC2399F081111DDFEC2FAF
:10253000F0E0EE0FFF1FEA54FE4FA591B491EC912D
:10254000ED2381E090E009F480E0DF91CF910895E0
:1025500080E090E0FACFFC01918D228D892F90E0F0
:10256000805C9F4F821B91098F7399270895FC010E
:10257000918D828D981731F0828DE80FF11D858D38
:1025800090E008958FEF9FEF0895FC01918D828D6B
:10259000981761F0A28DAE0FBF2FB11D5D968C9183
:1025A000928D9F5F9F73928F90E008958FEF9FEFC2
:1025B0000895FC01538D448D252F30E0842F90E049
:1025C000821B930B541710F0CF960895019708952E
:1025D000FC01A48DA80FB92FB11DA35ABF4F2C9198
:1025E000848D90E001968F739927848FA689B7898F
:1025F0002C93A089B1898C91837080648C93938D86
:10260000848D981306C00288F389E02D80818F7D28
:1026100080830895CF93DF93EC01888D8823B1F0F8
:10262000AA89BB89E889F9898C9185FD03C08081DD
:1026300086FD0CC00FB607FCF7CF8C9185FFF2CF5B
:10264000808185FFEDCFCE01C3DFEACFDF91CF914F
:102650000895EF92FF920F931F93CF93DF93EC01B6
:1026600081E0888F9B8D8C8D98131AC0E889F98939
:10267000808185FF15C09FB7F894EE89FF8960833C
:10268000E889F98980818370806480839FBF81E0BD
:1026900090E0DF91CF911F910F91FF90EF900895FF
:1026A000F62E0B8D10E00F5F1F4F0F731127E02EDA
:1026B0008C8D8E110BC00FB607FCFACFE889F98913
:1026C000808185FFF5CFCE0183DFF2CFEB8DEC0F5C
:1026D000FD2FF11DE35AFF4FF0829FB7F8940B8F47
:1026E000EA89FB8980818062D0CFCF92DF92EF921E
:1026F000FF921F93CF93DF93EC016A017B01122FAE
:10270000E889F98982E08083C11481EED806E1046A
:10271000F10499F060E079E08DE390E0A701960183
:10272000A1D2215031094109510956954795379554
:102730002795211580E1380790F0E889F989108202
:1027400060E874E88EE190E0A70196018BD22150F9
:102750003109410951095695479537952795EC85DB
:10276000FD853083EE85FF852083188EEC89FD89F9
:102770001083EA89FB89808180618083EA89FB89F3
:10278000808188608083EA89FB898081806880837A
:10279000EA89FB8980818F7D8083DF91CF911F91B2
:1027A000FF90EF90DF90CF9008951F920F920FB699
:1027B0000F9211240BB60F922F938F939F93EF9349
:1027C000FF93E0917B03F0917C038081E091810392
:1027D000F091820382FD1DC09081809184038F5F00
:1027E0008F7320918503821741F0E0918403F0E01C
:1027F000E559FC4F958F80938403FF91EF919F9152
:102800008F912F910F900BBE0F900FBE0F901F90C6
:1028100018958081F2CF1F920F920FB60F9211245C
:102820000BB60F922F933F934F935F936F937F93CA
:102830008F939F93AF93BF93EF93FF938BE693E0B8
:10284000C7DEFF91EF91BF91AF919F918F917F91E3
:102850006F915F914F913F912F910F900BBE0F9011
:102860000FBE0F901F901895EBE6F3E013821282D3
:1028700088EE93E0A0E0B0E084839583A683B783DD
:102880008FE692E09183808385EC90E09587848742
:1028900084EC90E09787868780EC90E0918B808B2A
:1028A00081EC90E0938B828B82EC90E0958B848B13
:1028B00086EC90E0978B868B118E128E138E148E81
:1028C00008951F920F920FB60F9211240BB60F921C
:1028D0002F938F939F93EF93FF93E0911804F091C0
:1028E00019048081E0911E04F0911F0482FD1DC037
:1028F0009081809121048F5F8F7320912204821731
:1029000041F0E0912104F0E0E85FFB4F958F809368
:102910002104FF91EF919F918F912F910F900BBE0A
:102920000F900FBE0F901F9018958081F2CF1F92CD
:102930000F920FB60F9211240BB60F922F933F9365
:102940004F935F936F937F938F939F93AF93BF93B7
:10295000EF93FF9388E094E03BDEFF91EF91BF910E
:10296000AF919F918F917F916F915F914F913F9127
:102970002F910F900BBE0F900FBE0F901F901895C8
:10298000E8E0F4E01382128288EE93E0A0E0B0E089
:1029900084839583A683B7838FE692E091838083B7
:1029A0008DEC90E0958784878CEC90E09787868704
:1029B00088EC90E0918B808B89EC90E0938B828BFC
:1029C0008AEC90E0958B848B8EEC90E0978B868BD5
:1029D000118E128E138E148E08951F920F920FB6C1
:1029E0000F9211240BB60F922F938F939F93EF9317
:1029F000FF93E091B504F091B6048081E091BB04AF
:102A0000F091BC0482FD1DC090818091BE048F5F57
:102A10008F732091BF04821741F0E091BE04F0E073
:102A2000EB55FB4F958F8093BE04FF91EF919F91E3
:102A30008F912F910F900BBE0F900FBE0F901F9094
:102A400018958081F2CF1F920F920FB60F9211242A
:102A50000BB60F922F933F934F935F936F937F9398
:102A60008F939F93AF93BF93EF93FF9385EA94E087
:102A7000AFDDFF91EF91BF91AF919F918F917F91CA
:102A80006F915F914F913F912F910F900BBE0F90DF
:102A90000FBE0F901F901895E5EAF4E013821282A2
:102AA00088EE93E0A0E0B0E084839583A683B783AB
:102AB0008FE692E09183808385ED90E0958784870F
:102AC00084ED90E09787868780ED90E0918B808BF6
:102AD00081ED90E0938B828B82ED90E0958B848BDF
:102AE00086ED90E0978B868B118E128E138E148E4E
:102AF00008951F920F920FB60F9211240BB60F92EA
:102B00002F938F939F93EF93FF93E0915205F09152
:102B100053058081E0915805F091590582FD1DC053
:102B2000908180915B058F5F8F7320915C05821788
:102B300041F0E0915B05F0E0EE5BFA4F958F8093FA
:102B40005B05FF91EF919F918F912F910F900BBE9D
:102B50000F900FBE0F901F9018958081F2CF1F929B
:102B60000F920FB60F9211240BB60F922F933F9333
:102B70004F935F936F937F938F939F93AF93BF9385
:102B8000EF93FF9382E495E023DDFF91EF91BF91F6
:102B9000AF919F918F917F916F915F914F913F91F5
:102BA0002F910F900BBE0F900FBE0F901F90189596
:102BB000E2E4F5E01382128288EE93E0A0E0B0E058
:102BC00084839583A683B7838FE692E09183808385
:102BD00085E391E09587848784E391E097878687F2
:102BE00080E391E0918B808B81E391E0938B828BEA
:102BF00082E391E0958B848B86E391E0978B868BC3
:102C0000118E128E138E148E0895AF92BF92CF92B2
:102C1000DF92EF92FF920F931F93CF93DF936C019C
:102C20007B018B01040F151FEB015E01AE18BF087D
:102C3000C017D10759F06991D601ED91FC9101902F
:102C4000F081E02DC6011995892B79F7C501DF9137
:102C5000CF911F910F91FF90EF90DF90CF90BF9099
:102C6000AF900895A1E21A2EAA1BBB1BFD010DC057
:102C7000AA1FBB1FEE1FFF1FA217B307E407F5072C
:102C800020F0A21BB30BE40BF50B661F771F881F08
:102C9000991F1A9469F760957095809590959B019E
:102CA000AC01BD01CF010895EE0FFF1F881F8BBF40
:0C2CB0000790F691E02D1994F894FFCFE6
:102CBC00000080BF0000803F0000803F000000004B
:102CCC003BA8033F000034430000803F000000009D
:102CDC000000000000000000000000000000A04008
:102CEC000000A0C000004C420000000000000000EA
:102CFC0000000000000000000000803F0000803F4A
:102D0C0000000000620E620E620E620E620E620E17
:102D1C00620E620E6F6465340087020000000029A9
:0E2D2C00130516D9120A13AB12C512B7120006
:00000001FF
